{
  "contractName": "Bank",
  "abi": [
    {
      "constant": true,
      "inputs": [],
      "name": "typeCode",
      "outputs": [
        {
          "name": "",
          "type": "string"
        }
      ],
      "payable": false,
      "stateMutability": "view",
      "type": "function"
    },
    {
      "constant": true,
      "inputs": [],
      "name": "countryCode",
      "outputs": [
        {
          "name": "",
          "type": "uint16"
        }
      ],
      "payable": false,
      "stateMutability": "view",
      "type": "function"
    },
    {
      "constant": false,
      "inputs": [],
      "name": "seal",
      "outputs": [
        {
          "name": "success",
          "type": "bool"
        }
      ],
      "payable": false,
      "stateMutability": "nonpayable",
      "type": "function"
    },
    {
      "constant": true,
      "inputs": [
        {
          "name": "",
          "type": "uint256"
        }
      ],
      "name": "registeredBINs",
      "outputs": [
        {
          "name": "",
          "type": "bool"
        }
      ],
      "payable": false,
      "stateMutability": "view",
      "type": "function"
    },
    {
      "constant": true,
      "inputs": [],
      "name": "description",
      "outputs": [
        {
          "name": "",
          "type": "string"
        }
      ],
      "payable": false,
      "stateMutability": "view",
      "type": "function"
    },
    {
      "constant": true,
      "inputs": [],
      "name": "stopped",
      "outputs": [
        {
          "name": "",
          "type": "bool"
        }
      ],
      "payable": false,
      "stateMutability": "view",
      "type": "function"
    },
    {
      "constant": false,
      "inputs": [],
      "name": "acceptOwnership",
      "outputs": [],
      "payable": false,
      "stateMutability": "nonpayable",
      "type": "function"
    },
    {
      "constant": false,
      "inputs": [],
      "name": "destroy",
      "outputs": [],
      "payable": false,
      "stateMutability": "nonpayable",
      "type": "function"
    },
    {
      "constant": true,
      "inputs": [],
      "name": "owner",
      "outputs": [
        {
          "name": "",
          "type": "address"
        }
      ],
      "payable": false,
      "stateMutability": "view",
      "type": "function"
    },
    {
      "constant": false,
      "inputs": [],
      "name": "resumeMe",
      "outputs": [
        {
          "name": "success",
          "type": "bool"
        }
      ],
      "payable": false,
      "stateMutability": "nonpayable",
      "type": "function"
    },
    {
      "constant": false,
      "inputs": [],
      "name": "stopMe",
      "outputs": [
        {
          "name": "success",
          "type": "bool"
        }
      ],
      "payable": false,
      "stateMutability": "nonpayable",
      "type": "function"
    },
    {
      "constant": true,
      "inputs": [],
      "name": "label",
      "outputs": [
        {
          "name": "",
          "type": "string"
        }
      ],
      "payable": false,
      "stateMutability": "view",
      "type": "function"
    },
    {
      "constant": true,
      "inputs": [],
      "name": "newOwner",
      "outputs": [
        {
          "name": "",
          "type": "address"
        }
      ],
      "payable": false,
      "stateMutability": "view",
      "type": "function"
    },
    {
      "constant": true,
      "inputs": [],
      "name": "classCode",
      "outputs": [
        {
          "name": "",
          "type": "string"
        }
      ],
      "payable": false,
      "stateMutability": "view",
      "type": "function"
    },
    {
      "constant": true,
      "inputs": [],
      "name": "sealed",
      "outputs": [
        {
          "name": "",
          "type": "bool"
        }
      ],
      "payable": false,
      "stateMutability": "view",
      "type": "function"
    },
    {
      "constant": true,
      "inputs": [],
      "name": "banksAddress",
      "outputs": [
        {
          "name": "",
          "type": "address"
        }
      ],
      "payable": false,
      "stateMutability": "view",
      "type": "function"
    },
    {
      "constant": false,
      "inputs": [
        {
          "name": "_newOwner",
          "type": "address"
        }
      ],
      "name": "transferOwnership",
      "outputs": [],
      "payable": false,
      "stateMutability": "nonpayable",
      "type": "function"
    },
    {
      "inputs": [
        {
          "name": "_banksAddress",
          "type": "address"
        },
        {
          "name": "_typeCode",
          "type": "string"
        },
        {
          "name": "_label",
          "type": "string"
        },
        {
          "name": "_description",
          "type": "string"
        },
        {
          "name": "_countryCode",
          "type": "uint16"
        }
      ],
      "payable": false,
      "stateMutability": "nonpayable",
      "type": "constructor"
    },
    {
      "anonymous": false,
      "inputs": [],
      "name": "Destroyed",
      "type": "event"
    },
    {
      "anonymous": false,
      "inputs": [
        {
          "indexed": true,
          "name": "bankAddress",
          "type": "address"
        },
        {
          "indexed": false,
          "name": "accountAddress",
          "type": "address"
        }
      ],
      "name": "AddedAccount",
      "type": "event"
    },
    {
      "anonymous": false,
      "inputs": [
        {
          "indexed": true,
          "name": "bankAddress",
          "type": "address"
        },
        {
          "indexed": false,
          "name": "accountAddress",
          "type": "address"
        }
      ],
      "name": "RemovedAccount",
      "type": "event"
    },
    {
      "anonymous": false,
      "inputs": [
        {
          "indexed": true,
          "name": "bankAddress",
          "type": "address"
        },
        {
          "indexed": false,
          "name": "serviceAddress",
          "type": "address"
        }
      ],
      "name": "AddedService",
      "type": "event"
    },
    {
      "anonymous": false,
      "inputs": [
        {
          "indexed": true,
          "name": "bankAddress",
          "type": "address"
        },
        {
          "indexed": false,
          "name": "serviceAddress",
          "type": "address"
        }
      ],
      "name": "RemovedService",
      "type": "event"
    },
    {
      "anonymous": false,
      "inputs": [],
      "name": "Stopped",
      "type": "event"
    },
    {
      "anonymous": false,
      "inputs": [],
      "name": "Resumed",
      "type": "event"
    },
    {
      "anonymous": false,
      "inputs": [],
      "name": "Sealed",
      "type": "event"
    },
    {
      "anonymous": false,
      "inputs": [
        {
          "indexed": true,
          "name": "_from",
          "type": "address"
        },
        {
          "indexed": true,
          "name": "_to",
          "type": "address"
        }
      ],
      "name": "OwnershipTransferred",
      "type": "event"
    },
    {
      "constant": false,
      "inputs": [
        {
          "name": "_serviceAddress",
          "type": "address"
        },
        {
          "name": "_soPAN",
          "type": "uint256"
        },
        {
          "name": "_toPAN",
          "type": "uint256"
        },
        {
          "name": "_toValue",
          "type": "uint256"
        }
      ],
      "name": "transfer",
      "outputs": [
        {
          "name": "success",
          "type": "bool"
        }
      ],
      "payable": false,
      "stateMutability": "nonpayable",
      "type": "function"
    },
    {
      "constant": false,
      "inputs": [
        {
          "name": "_soPAN",
          "type": "uint256"
        },
        {
          "name": "_toPAN",
          "type": "uint256"
        },
        {
          "name": "_toValue",
          "type": "uint256"
        },
        {
          "name": "_soFee",
          "type": "uint256"
        },
        {
          "name": "_toFee",
          "type": "uint256"
        },
        {
          "name": "_rate",
          "type": "uint256"
        }
      ],
      "name": "serviceTransfer",
      "outputs": [
        {
          "name": "",
          "type": "uint256"
        }
      ],
      "payable": false,
      "stateMutability": "nonpayable",
      "type": "function"
    },
    {
      "constant": false,
      "inputs": [
        {
          "name": "_accountAddress",
          "type": "address"
        }
      ],
      "name": "addAccount",
      "outputs": [
        {
          "name": "success",
          "type": "bool"
        }
      ],
      "payable": false,
      "stateMutability": "nonpayable",
      "type": "function"
    },
    {
      "constant": false,
      "inputs": [
        {
          "name": "_accountAddress",
          "type": "address"
        }
      ],
      "name": "removeAccount",
      "outputs": [
        {
          "name": "success",
          "type": "bool"
        }
      ],
      "payable": false,
      "stateMutability": "nonpayable",
      "type": "function"
    },
    {
      "constant": true,
      "inputs": [],
      "name": "getAccounts",
      "outputs": [
        {
          "name": "",
          "type": "address[]"
        }
      ],
      "payable": false,
      "stateMutability": "view",
      "type": "function"
    },
    {
      "constant": true,
      "inputs": [],
      "name": "getAccountsCount",
      "outputs": [
        {
          "name": "",
          "type": "uint256"
        }
      ],
      "payable": false,
      "stateMutability": "view",
      "type": "function"
    },
    {
      "constant": true,
      "inputs": [
        {
          "name": "_accountAddress",
          "type": "address"
        }
      ],
      "name": "getNextAccount",
      "outputs": [
        {
          "name": "",
          "type": "address"
        }
      ],
      "payable": false,
      "stateMutability": "view",
      "type": "function"
    },
    {
      "constant": true,
      "inputs": [
        {
          "name": "_accountAddress",
          "type": "address"
        }
      ],
      "name": "registeredAccount",
      "outputs": [
        {
          "name": "",
          "type": "bool"
        }
      ],
      "payable": false,
      "stateMutability": "view",
      "type": "function"
    },
    {
      "constant": false,
      "inputs": [
        {
          "name": "_serviceAddress",
          "type": "address"
        }
      ],
      "name": "addService",
      "outputs": [
        {
          "name": "success",
          "type": "bool"
        }
      ],
      "payable": false,
      "stateMutability": "nonpayable",
      "type": "function"
    },
    {
      "constant": false,
      "inputs": [
        {
          "name": "_serviceAddress",
          "type": "address"
        }
      ],
      "name": "removeService",
      "outputs": [
        {
          "name": "success",
          "type": "bool"
        }
      ],
      "payable": false,
      "stateMutability": "nonpayable",
      "type": "function"
    },
    {
      "constant": true,
      "inputs": [],
      "name": "getServices",
      "outputs": [
        {
          "name": "",
          "type": "address[]"
        }
      ],
      "payable": false,
      "stateMutability": "view",
      "type": "function"
    },
    {
      "constant": true,
      "inputs": [],
      "name": "getServicesCount",
      "outputs": [
        {
          "name": "",
          "type": "uint256"
        }
      ],
      "payable": false,
      "stateMutability": "view",
      "type": "function"
    },
    {
      "constant": true,
      "inputs": [
        {
          "name": "_serviceAddress",
          "type": "address"
        }
      ],
      "name": "getNextService",
      "outputs": [
        {
          "name": "",
          "type": "address"
        }
      ],
      "payable": false,
      "stateMutability": "view",
      "type": "function"
    },
    {
      "constant": true,
      "inputs": [
        {
          "name": "_serviceAddress",
          "type": "address"
        }
      ],
      "name": "registeredService",
      "outputs": [
        {
          "name": "",
          "type": "bool"
        }
      ],
      "payable": false,
      "stateMutability": "view",
      "type": "function"
    }
  ],
  "bytecode": "0x60806040523480156200001157600080fd5b5060405162005b3438038062005b34833981018060405281019080805190602001909291908051820192919060200180518201929190602001805182019291906020018051906020019092919050505060006040805190810160405280600481526020017f42414e4b000000000000000000000000000000000000000000000000000000008152508585858360009080519060200190620000b4929190620005c7565b508260019080519060200190620000cd929190620005c7565b508160029080519060200190620000e6929190620005c7565b508060039080519060200190620000ff929190620005c7565b505050505033600460006101000a81548173ffffffffffffffffffffffffffffffffffffffff021916908373ffffffffffffffffffffffffffffffffffffffff1602179055506001600560156101000a81548160ff0219169083151502179055508573ffffffffffffffffffffffffffffffffffffffff16600073ffffffffffffffffffffffffffffffffffffffff161415151562000206576040517f08c379a000000000000000000000000000000000000000000000000000000000815260040180806020018281038252601f8152602001807f42616e6b7320696e7374616e6365206164647265737320697320656d7074790081525060200191505060405180910390fd5b85600660006101000a81548173ffffffffffffffffffffffffffffffffffffffff021916908373ffffffffffffffffffffffffffffffffffffffff16021790555081600560166101000a81548161ffff021916908361ffff160217905550600660009054906101000a900473ffffffffffffffffffffffffffffffffffffffff16600760006101000a81548173ffffffffffffffffffffffffffffffffffffffff021916908373ffffffffffffffffffffffffffffffffffffffff160217905550600760009054906101000a900473ffffffffffffffffffffffffffffffffffffffff1673ffffffffffffffffffffffffffffffffffffffff1663e092d49d6040518163ffffffff167c0100000000000000000000000000000000000000000000000000000000028152600401602060405180830381600087803b1580156200034e57600080fd5b505af115801562000363573d6000803e3d6000fd5b505050506040513d60208110156200037a57600080fd5b810190808051906020019092919050505090508073ffffffffffffffffffffffffffffffffffffffff16600073ffffffffffffffffffffffffffffffffffffffff161415151562000433576040517f08c379a00000000000000000000000000000000000000000000000000000000081526004018080602001828103825260168152602001807f58436f696e206973206e6f7420617661696c61626c650000000000000000000081525060200191505060405180910390fd5b80600860006101000a81548173ffffffffffffffffffffffffffffffffffffffff021916908373ffffffffffffffffffffffffffffffffffffffff160217905550600860009054906101000a900473ffffffffffffffffffffffffffffffffffffffff1673ffffffffffffffffffffffffffffffffffffffff166327918b233069be951906eba2aa8000006040518363ffffffff167c0100000000000000000000000000000000000000000000000000000000028152600401808373ffffffffffffffffffffffffffffffffffffffff1673ffffffffffffffffffffffffffffffffffffffff168152602001828152602001806020018281038252600c8152602001807f4661756365743a2042616e6b00000000000000000000000000000000000000008152506020019350505050602060405180830381600087803b1580156200057d57600080fd5b505af115801562000592573d6000803e3d6000fd5b505050506040513d6020811015620005a957600080fd5b81019080805190602001909291905050505050505050505062000676565b828054600181600116156101000203166002900490600052602060002090601f016020900481019282601f106200060a57805160ff19168380011785556200063b565b828001600101855582156200063b579182015b828111156200063a5782518255916020019190600101906200061d565b5b5090506200064a91906200064e565b5090565b6200067391905b808211156200066f57600081600090555060010162000655565b5090565b90565b6154ae80620006866000396000f30060806040526004361061018b576000357c0100000000000000000000000000000000000000000000000000000000900463ffffffff1680630f81a38f14610190578063193eef40146102205780631b3051731461027b57806336b6b286146102d65780633bee8889146103495780633fb27b851461037c5780635372a9ce146103ab5780635bfb7ff8146104065780636468ce281461044b5780637284e41614610476578063754178511461050657806375f12b2114610572578063770e3106146105a157806379ba5097146105cc57806383197ef0146105e35780638a48ac03146105fa5780638da5cb5b146106665780639886b144146106bd5780639b2a3501146106ec578063aff77dc214610747578063b6510bb3146107ca578063bc699e7514610843578063c4740a9514610872578063cb4774c4146108cd578063d4ee1d901461095d578063e24ff744146109b4578063e4b203ef14610a44578063e794668114610a73578063e89b0e1e14610aca578063f2fde38b14610b25578063f4f4cb7114610b68575b600080fd5b34801561019c57600080fd5b506101a5610beb565b6040518080602001828103825283818151815260200191508051906020019080838360005b838110156101e55780820151818401526020810190506101ca565b50505050905090810190601f1680156102125780820380516001836020036101000a031916815260200191505b509250505060405180910390f35b34801561022c57600080fd5b50610261600480360381019080803573ffffffffffffffffffffffffffffffffffffffff169060200190929190505050610c89565b604051808215151515815260200191505060405180910390f35b34801561028757600080fd5b506102bc600480360381019080803573ffffffffffffffffffffffffffffffffffffffff169060200190929190505050610ca6565b604051808215151515815260200191505060405180910390f35b3480156102e257600080fd5b50610333600480360381019080803590602001909291908035906020019092919080359060200190929190803590602001909291908035906020019092919080359060200190929190505050610e65565b6040518082815260200191505060405180910390f35b34801561035557600080fd5b5061035e61183c565b604051808261ffff1661ffff16815260200191505060405180910390f35b34801561038857600080fd5b50610391611850565b604051808215151515815260200191505060405180910390f35b3480156103b757600080fd5b506103ec600480360381019080803573ffffffffffffffffffffffffffffffffffffffff169060200190929190505050611a4f565b604051808215151515815260200191505060405180910390f35b34801561041257600080fd5b5061043160048036038101908080359060200190929190505050611d94565b604051808215151515815260200191505060405180910390f35b34801561045757600080fd5b50610460611db4565b6040518082815260200191505060405180910390f35b34801561048257600080fd5b5061048b611dc1565b6040518080602001828103825283818151815260200191508051906020019080838360005b838110156104cb5780820151818401526020810190506104b0565b50505050905090810190601f1680156104f85780820380516001836020036101000a031916815260200191505b509250505060405180910390f35b34801561051257600080fd5b5061051b611e5f565b6040518080602001828103825283818151815260200191508051906020019060200280838360005b8381101561055e578082015181840152602081019050610543565b505050509050019250505060405180910390f35b34801561057e57600080fd5b50610587611e70565b604051808215151515815260200191505060405180910390f35b3480156105ad57600080fd5b506105b6611e83565b6040518082815260200191505060405180910390f35b3480156105d857600080fd5b506105e1611e90565b005b3480156105ef57600080fd5b506105f861209a565b005b34801561060657600080fd5b5061060f6121cf565b6040518080602001828103825283818151815260200191508051906020019060200280838360005b83811015610652578082015181840152602081019050610637565b505050509050019250505060405180910390f35b34801561067257600080fd5b5061067b6121e0565b604051808273ffffffffffffffffffffffffffffffffffffffff1673ffffffffffffffffffffffffffffffffffffffff16815260200191505060405180910390f35b3480156106c957600080fd5b506106d2612206565b604051808215151515815260200191505060405180910390f35b3480156106f857600080fd5b5061072d600480360381019080803573ffffffffffffffffffffffffffffffffffffffff16906020019092919050505061231b565b604051808215151515815260200191505060405180910390f35b34801561075357600080fd5b50610788600480360381019080803573ffffffffffffffffffffffffffffffffffffffff169060200190929190505050612338565b604051808273ffffffffffffffffffffffffffffffffffffffff1673ffffffffffffffffffffffffffffffffffffffff16815260200191505060405180910390f35b3480156107d657600080fd5b50610829600480360381019080803573ffffffffffffffffffffffffffffffffffffffff169060200190929190803590602001909291908035906020019092919080359060200190929190505050612355565b604051808215151515815260200191505060405180910390f35b34801561084f57600080fd5b50610858612df9565b604051808215151515815260200191505060405180910390f35b34801561087e57600080fd5b506108b3600480360381019080803573ffffffffffffffffffffffffffffffffffffffff169060200190929190505050612f0e565b604051808215151515815260200191505060405180910390f35b3480156108d957600080fd5b506108e2613199565b6040518080602001828103825283818151815260200191508051906020019080838360005b83811015610922578082015181840152602081019050610907565b50505050905090810190601f16801561094f5780820380516001836020036101000a031916815260200191505b509250505060405180910390f35b34801561096957600080fd5b50610972613237565b604051808273ffffffffffffffffffffffffffffffffffffffff1673ffffffffffffffffffffffffffffffffffffffff16815260200191505060405180910390f35b3480156109c057600080fd5b506109c961325d565b6040518080602001828103825283818151815260200191508051906020019080838360005b83811015610a095780820151818401526020810190506109ee565b50505050905090810190601f168015610a365780820380516001836020036101000a031916815260200191505b509250505060405180910390f35b348015610a5057600080fd5b50610a596132fb565b604051808215151515815260200191505060405180910390f35b348015610a7f57600080fd5b50610a8861330e565b604051808273ffffffffffffffffffffffffffffffffffffffff1673ffffffffffffffffffffffffffffffffffffffff16815260200191505060405180910390f35b348015610ad657600080fd5b50610b0b600480360381019080803573ffffffffffffffffffffffffffffffffffffffff169060200190929190505050613334565b604051808215151515815260200191505060405180910390f35b348015610b3157600080fd5b50610b66600480360381019080803573ffffffffffffffffffffffffffffffffffffffff169060200190929190505050613884565b005b348015610b7457600080fd5b50610ba9600480360381019080803573ffffffffffffffffffffffffffffffffffffffff16906020019092919050505061398d565b604051808273ffffffffffffffffffffffffffffffffffffffff1673ffffffffffffffffffffffffffffffffffffffff16815260200191505060405180910390f35b60018054600181600116156101000203166002900480601f016020809104026020016040519081016040528092919081815260200182805460018160011615610100020316600290048015610c815780601f10610c5657610100808354040283529160200191610c81565b820191906000526020600020905b815481529060010190602001808311610c6457829003601f168201915b505050505081565b6000610c9f8260096139aa90919063ffffffff16565b9050919050565b6000600460009054906101000a900473ffffffffffffffffffffffffffffffffffffffff1673ffffffffffffffffffffffffffffffffffffffff163373ffffffffffffffffffffffffffffffffffffffff16141515610d6d576040517f08c379a00000000000000000000000000000000000000000000000000000000081526004018080602001828103825260158152602001807f4f6e6c79206f776e657220697320616c6c6f776564000000000000000000000081525060200191505060405180910390fd5b610d8182600d613a0390919063ffffffff16565b15610e5c57600760009054906101000a900473ffffffffffffffffffffffffffffffffffffffff1673ffffffffffffffffffffffffffffffffffffffff16635615ea8e836040518263ffffffff167c0100000000000000000000000000000000000000000000000000000000028152600401808273ffffffffffffffffffffffffffffffffffffffff1673ffffffffffffffffffffffffffffffffffffffff168152602001915050600060405180830381600087803b158015610e4357600080fd5b505af1158015610e57573d6000803e3d6000fd5b505050505b60019050919050565b600080600080600080600560159054906101000a900460ff161515610ee5573373ffffffffffffffffffffffffffffffffffffffff16600460009054906101000a900473ffffffffffffffffffffffffffffffffffffffff1673ffffffffffffffffffffffffffffffffffffffff16141515610ee057600080fd5b610f02565b600560149054906101000a900460ff16151515610f0157600080fd5b5b610f1633600d6139aa90919063ffffffff16565b1515610f8a576040517f08c379a000000000000000000000000000000000000000000000000000000000815260040180806020018281038252600d8152602001807f4163636573732064656e6965640000000000000000000000000000000000000081525060200191505060405180910390fd5b600760009054906101000a900473ffffffffffffffffffffffffffffffffffffffff1673ffffffffffffffffffffffffffffffffffffffff16630d3127708d6040518263ffffffff167c010000000000000000000000000000000000000000000000000000000002815260040180828152602001915050606060405180830381600087803b15801561101b57600080fd5b505af115801561102f573d6000803e3d6000fd5b505050506040513d606081101561104557600080fd5b81019080805190602001909291908051906020019092919080519060200190929190505050945094509450600760009054906101000a900473ffffffffffffffffffffffffffffffffffffffff1673ffffffffffffffffffffffffffffffffffffffff16630d3127708c6040518263ffffffff167c010000000000000000000000000000000000000000000000000000000002815260040180828152602001915050606060405180830381600087803b15801561110157600080fd5b505af1158015611115573d6000803e3d6000fd5b505050506040513d606081101561112b57600080fd5b8101908080519060200190929190805190602001909291908051906020019092919050505092509250503073ffffffffffffffffffffffffffffffffffffffff168573ffffffffffffffffffffffffffffffffffffffff161415156111f8576040517f08c379a000000000000000000000000000000000000000000000000000000000815260040180806020018281038252601b8152602001807f536f75726365206f662066756e64206973206e6f74206f6e207573000000000081525060200191505060405180910390fd5b8373ffffffffffffffffffffffffffffffffffffffff1663c8f38dc08573ffffffffffffffffffffffffffffffffffffffff1663e102e5e36040518163ffffffff167c0100000000000000000000000000000000000000000000000000000000028152600401602060405180830381600087803b15801561127857600080fd5b505af115801561128c573d6000803e3d6000fd5b505050506040513d60208110156112a257600080fd5b81019080805190602001909291905050508473ffffffffffffffffffffffffffffffffffffffff1663e102e5e36040518163ffffffff167c0100000000000000000000000000000000000000000000000000000000028152600401602060405180830381600087803b15801561131757600080fd5b505af115801561132b573d6000803e3d6000fd5b505050506040513d602081101561134157600080fd5b81019080805190602001909291905050506040518363ffffffff167c0100000000000000000000000000000000000000000000000000000000028152600401808361ffff1661ffff1681526020018261ffff1661ffff16815260200192505050602060405180830381600087803b1580156113bb57600080fd5b505af11580156113cf573d6000803e3d6000fd5b505050506040513d60208110156113e557600080fd5b81019080805190602001909291905050508714151561146c576040517f08c379a00000000000000000000000000000000000000000000000000000000081526004018080602001828103825260188152602001807f45786368616e67652072617465206d69736d617463686564000000000000000081525060200191505060405180910390fd5b61147884838b8b613ed6565b8173ffffffffffffffffffffffffffffffffffffffff168473ffffffffffffffffffffffffffffffffffffffff161415156114c2576114bb8c8c8c8c8c8c6144a9565b955061182d565b8173ffffffffffffffffffffffffffffffffffffffff166323b872dd84838d6040518463ffffffff167c0100000000000000000000000000000000000000000000000000000000028152600401808473ffffffffffffffffffffffffffffffffffffffff1673ffffffffffffffffffffffffffffffffffffffff1681526020018373ffffffffffffffffffffffffffffffffffffffff1673ffffffffffffffffffffffffffffffffffffffff1681526020018281526020019350505050602060405180830381600087803b15801561159957600080fd5b505af11580156115ad573d6000803e3d6000fd5b505050506040513d60208110156115c357600080fd5b8101908080519060200190929190505050508173ffffffffffffffffffffffffffffffffffffffff1663e1da6cd133838f8f8f6040518663ffffffff167c0100000000000000000000000000000000000000000000000000000000028152600401808673ffffffffffffffffffffffffffffffffffffffff1673ffffffffffffffffffffffffffffffffffffffff1681526020018573ffffffffffffffffffffffffffffffffffffffff1673ffffffffffffffffffffffffffffffffffffffff168152602001848152602001838152602001828152602001806020018281038252600081526020016020019650505050505050602060405180830381600087803b1580156116d057600080fd5b505af11580156116e4573d6000803e3d6000fd5b505050506040513d60208110156116fa57600080fd5b8101908080519060200190929190505050508860001015611829578373ffffffffffffffffffffffffffffffffffffffff166323b872dd84308c6040518463ffffffff167c0100000000000000000000000000000000000000000000000000000000028152600401808473ffffffffffffffffffffffffffffffffffffffff1673ffffffffffffffffffffffffffffffffffffffff1681526020018373ffffffffffffffffffffffffffffffffffffffff1673ffffffffffffffffffffffffffffffffffffffff1681526020018281526020019350505050602060405180830381600087803b1580156117ec57600080fd5b505af1158015611800573d6000803e3d6000fd5b505050506040513d602081101561181657600080fd5b8101908080519060200190929190505050505b8995505b50505050509695505050505050565b600560169054906101000a900461ffff1681565b6000600460009054906101000a900473ffffffffffffffffffffffffffffffffffffffff1673ffffffffffffffffffffffffffffffffffffffff163373ffffffffffffffffffffffffffffffffffffffff16141515611917576040517f08c379a00000000000000000000000000000000000000000000000000000000081526004018080602001828103825260158152602001807f4f6e6c79206f776e657220697320616c6c6f776564000000000000000000000081525060200191505060405180910390fd5b600560159054906101000a900460ff1615151561193357600080fd5b600560009054906101000a900473ffffffffffffffffffffffffffffffffffffffff1673ffffffffffffffffffffffffffffffffffffffff16600073ffffffffffffffffffffffffffffffffffffffff161415156119f9576040517f08c379a00000000000000000000000000000000000000000000000000000000081526004018080602001828103825260208152602001807f5472616e73666572206f776e65727368697020697320696e636f6d706c65746581525060200191505060405180910390fd5b611a01614cbf565b6001600560156101000a81548160ff0219169083151502179055507f1b2d71eb44f882534bf4e86f940c56ccc869ffb927e2bab86561de93950c221660405160405180910390a16001905090565b600080600460009054906101000a900473ffffffffffffffffffffffffffffffffffffffff1673ffffffffffffffffffffffffffffffffffffffff163373ffffffffffffffffffffffffffffffffffffffff16141515611b17576040517f08c379a00000000000000000000000000000000000000000000000000000000081526004018080602001828103825260158152602001807f4f6e6c79206f776e657220697320616c6c6f776564000000000000000000000081525060200191505060405180910390fd5b8290508073ffffffffffffffffffffffffffffffffffffffff1663e4b203ef6040518163ffffffff167c0100000000000000000000000000000000000000000000000000000000028152600401602060405180830381600087803b158015611b7e57600080fd5b505af1158015611b92573d6000803e3d6000fd5b505050506040513d6020811015611ba857600080fd5b81019080805190602001909291905050501515611c2d576040517f08c379a000000000000000000000000000000000000000000000000000000000815260040180806020018281038252601e8152602001807f5365727669636520696e7374616e6365206973206e6f74207365616c6564000081525060200191505060405180910390fd5b611c4183600d614cc190919063ffffffff16565b1515611cb5576040517f08c379a000000000000000000000000000000000000000000000000000000000815260040180806020018281038252601b8152602001807f4475706c696361746564207365727669636520696e7374616e6365000000000081525060200191505060405180910390fd5b600760009054906101000a900473ffffffffffffffffffffffffffffffffffffffff1673ffffffffffffffffffffffffffffffffffffffff1663a5fb2737846040518263ffffffff167c0100000000000000000000000000000000000000000000000000000000028152600401808273ffffffffffffffffffffffffffffffffffffffff1673ffffffffffffffffffffffffffffffffffffffff168152602001915050600060405180830381600087803b158015611d7257600080fd5b505af1158015611d86573d6000803e3d6000fd5b505050506001915050919050565b600c6020528060005260406000206000915054906101000a900460ff1681565b6000600d60000154905090565b60038054600181600116156101000203166002900480601f016020809104026020016040519081016040528092919081815260200182805460018160011615610100020316600290048015611e575780601f10611e2c57610100808354040283529160200191611e57565b820191906000526020600020905b815481529060010190602001808311611e3a57829003601f168201915b505050505081565b6060611e6b600d61518e565b905090565b600560149054906101000a900460ff1681565b6000600960000154905090565b600560009054906101000a900473ffffffffffffffffffffffffffffffffffffffff1673ffffffffffffffffffffffffffffffffffffffff163373ffffffffffffffffffffffffffffffffffffffff16141515611f55576040517f08c379a00000000000000000000000000000000000000000000000000000000081526004018080602001828103825260198152602001807f4f6e6c79206e6577206f776e657220697320616c6c6f7765640000000000000081525060200191505060405180910390fd5b600560009054906101000a900473ffffffffffffffffffffffffffffffffffffffff1673ffffffffffffffffffffffffffffffffffffffff16600460009054906101000a900473ffffffffffffffffffffffffffffffffffffffff1673ffffffffffffffffffffffffffffffffffffffff167f8be0079c531659141344cd1fd0a4f28419497f9722a3daafe3b4186f6b6457e060405160405180910390a3600560009054906101000a900473ffffffffffffffffffffffffffffffffffffffff16600460006101000a81548173ffffffffffffffffffffffffffffffffffffffff021916908373ffffffffffffffffffffffffffffffffffffffff1602179055506000600560006101000a81548173ffffffffffffffffffffffffffffffffffffffff021916908373ffffffffffffffffffffffffffffffffffffffff160217905550565b600460009054906101000a900473ffffffffffffffffffffffffffffffffffffffff1673ffffffffffffffffffffffffffffffffffffffff163373ffffffffffffffffffffffffffffffffffffffff1614151561215f576040517f08c379a00000000000000000000000000000000000000000000000000000000081526004018080602001828103825260158152602001807f4f6e6c79206f776e657220697320616c6c6f776564000000000000000000000081525060200191505060405180910390fd5b612167612df9565b507fcc0e82c1b8fa4695d6ae60217024b293814bde0f381a23cafaa0a1e25973c14b60405160405180910390a1600460009054906101000a900473ffffffffffffffffffffffffffffffffffffffff1673ffffffffffffffffffffffffffffffffffffffff16ff5b60606121db600961518e565b905090565b600460009054906101000a900473ffffffffffffffffffffffffffffffffffffffff1681565b6000600460009054906101000a900473ffffffffffffffffffffffffffffffffffffffff1673ffffffffffffffffffffffffffffffffffffffff163373ffffffffffffffffffffffffffffffffffffffff161415156122cd576040517f08c379a00000000000000000000000000000000000000000000000000000000081526004018080602001828103825260158152602001807f4f6e6c79206f776e657220697320616c6c6f776564000000000000000000000081525060200191505060405180910390fd5b6000600560146101000a81548160ff0219169083151502179055507f62451d457bc659158be6e6247f56ec1df424a5c7597f71c20c2bc44e0965c8f960405160405180910390a16001905090565b600061233182600d6139aa90919063ffffffff16565b9050919050565b600061234e82600961527290919063ffffffff16565b9050919050565b6000806000806000600560159054906101000a900460ff1615156123d4573373ffffffffffffffffffffffffffffffffffffffff16600460009054906101000a900473ffffffffffffffffffffffffffffffffffffffff1673ffffffffffffffffffffffffffffffffffffffff161415156123cf57600080fd5b6123f1565b600560149054906101000a900460ff161515156123f057600080fd5b5b600760009054906101000a900473ffffffffffffffffffffffffffffffffffffffff1673ffffffffffffffffffffffffffffffffffffffff1663cd6deb4c336040518263ffffffff167c0100000000000000000000000000000000000000000000000000000000028152600401808273ffffffffffffffffffffffffffffffffffffffff1673ffffffffffffffffffffffffffffffffffffffff168152602001915050602060405180830381600087803b1580156124ae57600080fd5b505af11580156124c2573d6000803e3d6000fd5b505050506040513d60208110156124d857600080fd5b8101908080519060200190929190505050151561255d576040517f08c379a000000000000000000000000000000000000000000000000000000000815260040180806020018281038252600d8152602001807f4163636573732064656e6965640000000000000000000000000000000000000081525060200191505060405180910390fd5b600760009054906101000a900473ffffffffffffffffffffffffffffffffffffffff1673ffffffffffffffffffffffffffffffffffffffff16630d312770886040518263ffffffff167c010000000000000000000000000000000000000000000000000000000002815260040180828152602001915050606060405180830381600087803b1580156125ee57600080fd5b505af1158015612602573d6000803e3d6000fd5b505050506040513d606081101561261857600080fd5b81019080805190602001909291908051906020019092919080519060200190929190505050935093509350600860009054906101000a900473ffffffffffffffffffffffffffffffffffffffff1673ffffffffffffffffffffffffffffffffffffffff16635de9ea69878573ffffffffffffffffffffffffffffffffffffffff1663e102e5e36040518163ffffffff167c0100000000000000000000000000000000000000000000000000000000028152600401602060405180830381600087803b1580156126e657600080fd5b505af11580156126fa573d6000803e3d6000fd5b505050506040513d602081101561271057600080fd5b8101908080519060200190929190505050600860009054906101000a900473ffffffffffffffffffffffffffffffffffffffff1673ffffffffffffffffffffffffffffffffffffffff1663e102e5e36040518163ffffffff167c0100000000000000000000000000000000000000000000000000000000028152600401602060405180830381600087803b1580156127a757600080fd5b505af11580156127bb573d6000803e3d6000fd5b505050506040513d60208110156127d157600080fd5b81019080805190602001909291905050506040518463ffffffff167c0100000000000000000000000000000000000000000000000000000000028152600401808481526020018361ffff1661ffff1681526020018261ffff1661ffff1681526020019350505050602060405180830381600087803b15801561285257600080fd5b505af1158015612866573d6000803e3d6000fd5b505050506040513d602081101561287c57600080fd5b81019080805190602001909291905050509050600860009054906101000a900473ffffffffffffffffffffffffffffffffffffffff1673ffffffffffffffffffffffffffffffffffffffff166323b872dd3330846040518463ffffffff167c0100000000000000000000000000000000000000000000000000000000028152600401808473ffffffffffffffffffffffffffffffffffffffff1673ffffffffffffffffffffffffffffffffffffffff1681526020018373ffffffffffffffffffffffffffffffffffffffff1673ffffffffffffffffffffffffffffffffffffffff1681526020018281526020019350505050602060405180830381600087803b15801561298857600080fd5b505af115801561299c573d6000803e3d6000fd5b505050506040513d60208110156129b257600080fd5b8101908080519060200190929190505050506129d88360096139aa90919063ffffffff16565b15612bf8578273ffffffffffffffffffffffffffffffffffffffff1663a9059cbb83886040518363ffffffff167c0100000000000000000000000000000000000000000000000000000000028152600401808373ffffffffffffffffffffffffffffffffffffffff1673ffffffffffffffffffffffffffffffffffffffff16815260200182815260200192505050602060405180830381600087803b158015612a8057600080fd5b505af1158015612a94573d6000803e3d6000fd5b505050506040513d6020811015612aaa57600080fd5b8101908080519060200190929190505050508273ffffffffffffffffffffffffffffffffffffffff1663e1da6cd18a848b8b8b6040518663ffffffff167c0100000000000000000000000000000000000000000000000000000000028152600401808673ffffffffffffffffffffffffffffffffffffffff1673ffffffffffffffffffffffffffffffffffffffff1681526020018573ffffffffffffffffffffffffffffffffffffffff1673ffffffffffffffffffffffffffffffffffffffff168152602001848152602001838152602001828152602001806020018281038252600081526020016020019650505050505050602060405180830381600087803b158015612bb757600080fd5b505af1158015612bcb573d6000803e3d6000fd5b505050506040513d6020811015612be157600080fd5b810190808051906020019092919050505050612de9565b600860009054906101000a900473ffffffffffffffffffffffffffffffffffffffff1673ffffffffffffffffffffffffffffffffffffffff1663d73dd62385836040518363ffffffff167c0100000000000000000000000000000000000000000000000000000000028152600401808373ffffffffffffffffffffffffffffffffffffffff1673ffffffffffffffffffffffffffffffffffffffff16815260200182815260200192505050602060405180830381600087803b158015612cbd57600080fd5b505af1158015612cd1573d6000803e3d6000fd5b505050506040513d6020811015612ce757600080fd5b8101908080519060200190929190505050508373ffffffffffffffffffffffffffffffffffffffff1663b6510bb38a8a8a8a6040518563ffffffff167c0100000000000000000000000000000000000000000000000000000000028152600401808573ffffffffffffffffffffffffffffffffffffffff1673ffffffffffffffffffffffffffffffffffffffff168152602001848152602001838152602001828152602001945050505050602060405180830381600087803b158015612dac57600080fd5b505af1158015612dc0573d6000803e3d6000fd5b505050506040513d6020811015612dd657600080fd5b8101908080519060200190929190505050505b6001945050505050949350505050565b6000600460009054906101000a900473ffffffffffffffffffffffffffffffffffffffff1673ffffffffffffffffffffffffffffffffffffffff163373ffffffffffffffffffffffffffffffffffffffff16141515612ec0576040517f08c379a00000000000000000000000000000000000000000000000000000000081526004018080602001828103825260158152602001807f4f6e6c79206f776e657220697320616c6c6f776564000000000000000000000081525060200191505060405180910390fd5b6001600560146101000a81548160ff0219169083151502179055507f7acc84e34091ae817647a4c49116f5cc07f319078ba80f8f5fde37ea7e25cbd660405160405180910390a16001905090565b6000806000600460009054906101000a900473ffffffffffffffffffffffffffffffffffffffff1673ffffffffffffffffffffffffffffffffffffffff163373ffffffffffffffffffffffffffffffffffffffff16141515612fd8576040517f08c379a00000000000000000000000000000000000000000000000000000000081526004018080602001828103825260158152602001807f4f6e6c79206f776e657220697320616c6c6f776564000000000000000000000081525060200191505060405180910390fd5b612fec846009613a0390919063ffffffff16565b1561318e578391508173ffffffffffffffffffffffffffffffffffffffff16635232a5586040518163ffffffff167c0100000000000000000000000000000000000000000000000000000000028152600401602060405180830381600087803b15801561305857600080fd5b505af115801561306c573d6000803e3d6000fd5b505050506040513d602081101561308257600080fd5b81019080805190602001909291905050509050600c600082815260200190815260200160002060006101000a81549060ff0219169055600760009054906101000a900473ffffffffffffffffffffffffffffffffffffffff1673ffffffffffffffffffffffffffffffffffffffff1663592b3d8a856040518263ffffffff167c0100000000000000000000000000000000000000000000000000000000028152600401808273ffffffffffffffffffffffffffffffffffffffff1673ffffffffffffffffffffffffffffffffffffffff168152602001915050600060405180830381600087803b15801561317557600080fd5b505af1158015613189573d6000803e3d6000fd5b505050505b600192505050919050565b60028054600181600116156101000203166002900480601f01602080910402602001604051908101604052809291908181526020018280546001816001161561010002031660029004801561322f5780601f106132045761010080835404028352916020019161322f565b820191906000526020600020905b81548152906001019060200180831161321257829003601f168201915b505050505081565b600560009054906101000a900473ffffffffffffffffffffffffffffffffffffffff1681565b60008054600181600116156101000203166002900480601f0160208091040260200160405190810160405280929190818152602001828054600181600116156101000203166002900480156132f35780601f106132c8576101008083540402835291602001916132f3565b820191906000526020600020905b8154815290600101906020018083116132d657829003601f168201915b505050505081565b600560159054906101000a900460ff1681565b600660009054906101000a900473ffffffffffffffffffffffffffffffffffffffff1681565b6000806000600460009054906101000a900473ffffffffffffffffffffffffffffffffffffffff1673ffffffffffffffffffffffffffffffffffffffff163373ffffffffffffffffffffffffffffffffffffffff161415156133fe576040517f08c379a00000000000000000000000000000000000000000000000000000000081526004018080602001828103825260158152602001807f4f6e6c79206f776e657220697320616c6c6f776564000000000000000000000081525060200191505060405180910390fd5b8373ffffffffffffffffffffffffffffffffffffffff16600073ffffffffffffffffffffffffffffffffffffffff16141515156134a3576040517f08c379a00000000000000000000000000000000000000000000000000000000081526004018080602001828103825260188152602001807f4163636f756e74206164647265737320697320656d707479000000000000000081525060200191505060405180910390fd5b8391508173ffffffffffffffffffffffffffffffffffffffff16635232a5586040518163ffffffff167c0100000000000000000000000000000000000000000000000000000000028152600401602060405180830381600087803b15801561350a57600080fd5b505af115801561351e573d6000803e3d6000fd5b505050506040513d602081101561353457600080fd5b810190808051906020019092919050505090508173ffffffffffffffffffffffffffffffffffffffff1663e4b203ef6040518163ffffffff167c0100000000000000000000000000000000000000000000000000000000028152600401602060405180830381600087803b1580156135ab57600080fd5b505af11580156135bf573d6000803e3d6000fd5b505050506040513d60208110156135d557600080fd5b8101908080519060200190929190505050151561365a576040517f08c379a000000000000000000000000000000000000000000000000000000000815260040180806020018281038252601e8152602001807f4163636f756e7420696e7374616e6365206973206e6f74207365616c6564000081525060200191505060405180910390fd5b600c600082815260200190815260200160002060009054906101000a900460ff161515156136f0576040517f08c379a000000000000000000000000000000000000000000000000000000000815260040180806020018281038252601c8152602001807f4475706c696361746564206163636f756e742042494e2072616e67650000000081525060200191505060405180910390fd5b613704846009614cc190919063ffffffff16565b1515613778576040517f08c379a000000000000000000000000000000000000000000000000000000000815260040180806020018281038252601b8152602001807f4475706c696361746564206163636f756e7420696e7374616e6365000000000081525060200191505060405180910390fd5b6001600c600083815260200190815260200160002060006101000a81548160ff021916908315150217905550600760009054906101000a900473ffffffffffffffffffffffffffffffffffffffff1673ffffffffffffffffffffffffffffffffffffffff16631d94250e856040518263ffffffff167c0100000000000000000000000000000000000000000000000000000000028152600401808273ffffffffffffffffffffffffffffffffffffffff1673ffffffffffffffffffffffffffffffffffffffff168152602001915050600060405180830381600087803b15801561386157600080fd5b505af1158015613875573d6000803e3d6000fd5b50505050600192505050919050565b600460009054906101000a900473ffffffffffffffffffffffffffffffffffffffff1673ffffffffffffffffffffffffffffffffffffffff163373ffffffffffffffffffffffffffffffffffffffff16141515613949576040517f08c379a00000000000000000000000000000000000000000000000000000000081526004018080602001828103825260158152602001807f4f6e6c79206f776e657220697320616c6c6f776564000000000000000000000081525060200191505060405180910390fd5b80600560006101000a81548173ffffffffffffffffffffffffffffffffffffffff021916908373ffffffffffffffffffffffffffffffffffffffff16021790555050565b60006139a382600d61527290919063ffffffff16565b9050919050565b60008260010160008373ffffffffffffffffffffffffffffffffffffffff1673ffffffffffffffffffffffffffffffffffffffff16815260200190815260200160002060009054906101000a900460ff16905092915050565b60008260010160008373ffffffffffffffffffffffffffffffffffffffff1673ffffffffffffffffffffffffffffffffffffffff16815260200190815260200160002060009054906101000a900460ff1615613ecb578260020160008373ffffffffffffffffffffffffffffffffffffffff1673ffffffffffffffffffffffffffffffffffffffff16815260200190815260200160002060008015151515815260200190815260200160002060009054906101000a900473ffffffffffffffffffffffffffffffffffffffff168360020160008560020160008673ffffffffffffffffffffffffffffffffffffffff1673ffffffffffffffffffffffffffffffffffffffff1681526020019081526020016000206000600115151515815260200190815260200160002060009054906101000a900473ffffffffffffffffffffffffffffffffffffffff1673ffffffffffffffffffffffffffffffffffffffff1673ffffffffffffffffffffffffffffffffffffffff16815260200190815260200160002060008015151515815260200190815260200160002060006101000a81548173ffffffffffffffffffffffffffffffffffffffff021916908373ffffffffffffffffffffffffffffffffffffffff1602179055508260020160008373ffffffffffffffffffffffffffffffffffffffff1673ffffffffffffffffffffffffffffffffffffffff1681526020019081526020016000206000600115151515815260200190815260200160002060009054906101000a900473ffffffffffffffffffffffffffffffffffffffff168360020160008560020160008673ffffffffffffffffffffffffffffffffffffffff1673ffffffffffffffffffffffffffffffffffffffff16815260200190815260200160002060008015151515815260200190815260200160002060009054906101000a900473ffffffffffffffffffffffffffffffffffffffff1673ffffffffffffffffffffffffffffffffffffffff1673ffffffffffffffffffffffffffffffffffffffff1681526020019081526020016000206000600115151515815260200190815260200160002060006101000a81548173ffffffffffffffffffffffffffffffffffffffff021916908373ffffffffffffffffffffffffffffffffffffffff1602179055508260020160008373ffffffffffffffffffffffffffffffffffffffff1673ffffffffffffffffffffffffffffffffffffffff1681526020019081526020016000206000600115151515815260200190815260200160002060006101000a81549073ffffffffffffffffffffffffffffffffffffffff02191690558260020160008373ffffffffffffffffffffffffffffffffffffffff1673ffffffffffffffffffffffffffffffffffffffff16815260200190815260200160002060008015151515815260200190815260200160002060006101000a81549073ffffffffffffffffffffffffffffffffffffffff02191690558260010160008373ffffffffffffffffffffffffffffffffffffffff1673ffffffffffffffffffffffffffffffffffffffff16815260200190815260200160002060006101000a81549060ff0219169055613eba600184600001546152f490919063ffffffff16565b836000018190555060019050613ed0565b600090505b92915050565b60008260001080613ee75750816000105b156144a257600860009054906101000a900473ffffffffffffffffffffffffffffffffffffffff1673ffffffffffffffffffffffffffffffffffffffff16635de9ea69848773ffffffffffffffffffffffffffffffffffffffff1663e102e5e36040518163ffffffff167c0100000000000000000000000000000000000000000000000000000000028152600401602060405180830381600087803b158015613f8f57600080fd5b505af1158015613fa3573d6000803e3d6000fd5b505050506040513d6020811015613fb957600080fd5b8101908080519060200190929190505050600860009054906101000a900473ffffffffffffffffffffffffffffffffffffffff1673ffffffffffffffffffffffffffffffffffffffff1663e102e5e36040518163ffffffff167c0100000000000000000000000000000000000000000000000000000000028152600401602060405180830381600087803b15801561405057600080fd5b505af1158015614064573d6000803e3d6000fd5b505050506040513d602081101561407a57600080fd5b81019080805190602001909291905050506040518463ffffffff167c0100000000000000000000000000000000000000000000000000000000028152600401808481526020018361ffff1661ffff1681526020018261ffff1661ffff1681526020019350505050602060405180830381600087803b1580156140fb57600080fd5b505af115801561410f573d6000803e3d6000fd5b505050506040513d602081101561412557600080fd5b8101908080519060200190929190505050905081600010156143a05761439d600860009054906101000a900473ffffffffffffffffffffffffffffffffffffffff1673ffffffffffffffffffffffffffffffffffffffff16635de9ea69848773ffffffffffffffffffffffffffffffffffffffff1663e102e5e36040518163ffffffff167c0100000000000000000000000000000000000000000000000000000000028152600401602060405180830381600087803b1580156141e757600080fd5b505af11580156141fb573d6000803e3d6000fd5b505050506040513d602081101561421157600080fd5b8101908080519060200190929190505050600860009054906101000a900473ffffffffffffffffffffffffffffffffffffffff1673ffffffffffffffffffffffffffffffffffffffff1663e102e5e36040518163ffffffff167c0100000000000000000000000000000000000000000000000000000000028152600401602060405180830381600087803b1580156142a857600080fd5b505af11580156142bc573d6000803e3d6000fd5b505050506040513d60208110156142d257600080fd5b81019080805190602001909291905050506040518463ffffffff167c0100000000000000000000000000000000000000000000000000000000028152600401808481526020018361ffff1661ffff1681526020018261ffff1661ffff1681526020019350505050602060405180830381600087803b15801561435357600080fd5b505af1158015614367573d6000803e3d6000fd5b505050506040513d602081101561437d57600080fd5b81019080805190602001909291905050508261537990919063ffffffff16565b90505b600860009054906101000a900473ffffffffffffffffffffffffffffffffffffffff1673ffffffffffffffffffffffffffffffffffffffff1663a9059cbb33836040518363ffffffff167c0100000000000000000000000000000000000000000000000000000000028152600401808373ffffffffffffffffffffffffffffffffffffffff1673ffffffffffffffffffffffffffffffffffffffff16815260200182815260200192505050602060405180830381600087803b15801561446557600080fd5b505af1158015614479573d6000803e3d6000fd5b505050506040513d602081101561448f57600080fd5b8101908080519060200190929190505050505b5050505050565b6000806000806000600760009054906101000a900473ffffffffffffffffffffffffffffffffffffffff1673ffffffffffffffffffffffffffffffffffffffff16630d3127708c6040518263ffffffff167c010000000000000000000000000000000000000000000000000000000002815260040180828152602001915050606060405180830381600087803b15801561454257600080fd5b505af1158015614556573d6000803e3d6000fd5b505050506040513d606081101561456c57600080fd5b810190808051906020019092919080519060200190929190805190602001909291905050509450945050600760009054906101000a900473ffffffffffffffffffffffffffffffffffffffff1673ffffffffffffffffffffffffffffffffffffffff16630d3127708b6040518263ffffffff167c010000000000000000000000000000000000000000000000000000000002815260040180828152602001915050606060405180830381600087803b15801561462757600080fd5b505af115801561463b573d6000803e3d6000fd5b505050506040513d606081101561465157600080fd5b8101908080519060200190929190805190602001909291908051906020019092919050505050915091508373ffffffffffffffffffffffffffffffffffffffff1663121a8d0f8a886040518363ffffffff167c01000000000000000000000000000000000000000000000000000000000281526004018083815260200182815260200192505050602060405180830381600087803b1580156146f257600080fd5b505af1158015614706573d6000803e3d6000fd5b505050506040513d602081101561471c57600080fd5b810190808051906020019092919050505094508373ffffffffffffffffffffffffffffffffffffffff166323b872dd84306147608c8a61537990919063ffffffff16565b6040518463ffffffff167c0100000000000000000000000000000000000000000000000000000000028152600401808473ffffffffffffffffffffffffffffffffffffffff1673ffffffffffffffffffffffffffffffffffffffff1681526020018373ffffffffffffffffffffffffffffffffffffffff1673ffffffffffffffffffffffffffffffffffffffff1681526020018281526020019350505050602060405180830381600087803b15801561481857600080fd5b505af115801561482c573d6000803e3d6000fd5b505050506040513d602081101561484257600080fd5b810190808051906020019092919050505050600860009054906101000a900473ffffffffffffffffffffffffffffffffffffffff1673ffffffffffffffffffffffffffffffffffffffff1663d73dd62383600860009054906101000a900473ffffffffffffffffffffffffffffffffffffffff1673ffffffffffffffffffffffffffffffffffffffff16635de9ea696148e48c8f6152f490919063ffffffff16565b8673ffffffffffffffffffffffffffffffffffffffff1663e102e5e36040518163ffffffff167c0100000000000000000000000000000000000000000000000000000000028152600401602060405180830381600087803b15801561494857600080fd5b505af115801561495c573d6000803e3d6000fd5b505050506040513d602081101561497257600080fd5b8101908080519060200190929190505050600860009054906101000a900473ffffffffffffffffffffffffffffffffffffffff1673ffffffffffffffffffffffffffffffffffffffff1663e102e5e36040518163ffffffff167c0100000000000000000000000000000000000000000000000000000000028152600401602060405180830381600087803b158015614a0957600080fd5b505af1158015614a1d573d6000803e3d6000fd5b505050506040513d6020811015614a3357600080fd5b81019080805190602001909291905050506040518463ffffffff167c0100000000000000000000000000000000000000000000000000000000028152600401808481526020018361ffff1661ffff1681526020018261ffff1661ffff1681526020019350505050602060405180830381600087803b158015614ab457600080fd5b505af1158015614ac8573d6000803e3d6000fd5b505050506040513d6020811015614ade57600080fd5b81019080805190602001909291905050506040518363ffffffff167c0100000000000000000000000000000000000000000000000000000000028152600401808373ffffffffffffffffffffffffffffffffffffffff1673ffffffffffffffffffffffffffffffffffffffff16815260200182815260200192505050602060405180830381600087803b158015614b7457600080fd5b505af1158015614b88573d6000803e3d6000fd5b505050506040513d6020811015614b9e57600080fd5b8101908080519060200190929190505050508173ffffffffffffffffffffffffffffffffffffffff1663b6510bb3338d8d614be28c8f6152f490919063ffffffff16565b6040518563ffffffff167c0100000000000000000000000000000000000000000000000000000000028152600401808573ffffffffffffffffffffffffffffffffffffffff1673ffffffffffffffffffffffffffffffffffffffff168152602001848152602001838152602001828152602001945050505050602060405180830381600087803b158015614c7557600080fd5b505af1158015614c89573d6000803e3d6000fd5b505050506040513d6020811015614c9f57600080fd5b810190808051906020019092919050505050505050509695505050505050565b565b60008173ffffffffffffffffffffffffffffffffffffffff16600073ffffffffffffffffffffffffffffffffffffffff1614151515614d68576040517f08c379a000000000000000000000000000000000000000000000000000000000815260040180806020018281038252601a8152602001807f5a65726f2061646472657373206973206e6f7420757361626c6500000000000081525060200191505060405180910390fd5b8260010160008373ffffffffffffffffffffffffffffffffffffffff1673ffffffffffffffffffffffffffffffffffffffff16815260200190815260200160002060009054906101000a900460ff1615156151835760008360020160008473ffffffffffffffffffffffffffffffffffffffff1673ffffffffffffffffffffffffffffffffffffffff1681526020019081526020016000206000600115151515815260200190815260200160002060006101000a81548173ffffffffffffffffffffffffffffffffffffffff021916908373ffffffffffffffffffffffffffffffffffffffff1602179055508260020160008073ffffffffffffffffffffffffffffffffffffffff1673ffffffffffffffffffffffffffffffffffffffff16815260200190815260200160002060008015151515815260200190815260200160002060009054906101000a900473ffffffffffffffffffffffffffffffffffffffff168360020160008473ffffffffffffffffffffffffffffffffffffffff1673ffffffffffffffffffffffffffffffffffffffff16815260200190815260200160002060008015151515815260200190815260200160002060006101000a81548173ffffffffffffffffffffffffffffffffffffffff021916908373ffffffffffffffffffffffffffffffffffffffff160217905550818360020160008560020160008073ffffffffffffffffffffffffffffffffffffffff1673ffffffffffffffffffffffffffffffffffffffff16815260200190815260200160002060008015151515815260200190815260200160002060009054906101000a900473ffffffffffffffffffffffffffffffffffffffff1673ffffffffffffffffffffffffffffffffffffffff1673ffffffffffffffffffffffffffffffffffffffff1681526020019081526020016000206000600115151515815260200190815260200160002060006101000a81548173ffffffffffffffffffffffffffffffffffffffff021916908373ffffffffffffffffffffffffffffffffffffffff160217905550818360020160008073ffffffffffffffffffffffffffffffffffffffff1673ffffffffffffffffffffffffffffffffffffffff16815260200190815260200160002060008015151515815260200190815260200160002060006101000a81548173ffffffffffffffffffffffffffffffffffffffff021916908373ffffffffffffffffffffffffffffffffffffffff16021790555060018360010160008473ffffffffffffffffffffffffffffffffffffffff1673ffffffffffffffffffffffffffffffffffffffff16815260200190815260200160002060006101000a81548160ff0219169083151502179055506151726001846000015461537990919063ffffffff16565b836000018190555060019050615188565b600090505b92915050565b606060008083600001546040519080825280602002602001820160405280156151c65781602001602082028038833980820191505090505b5092506151d284615401565b9150600090505b8173ffffffffffffffffffffffffffffffffffffffff16600014151561526b5781838281518110151561520857fe5b9060200190602002019073ffffffffffffffffffffffffffffffffffffffff16908173ffffffffffffffffffffffffffffffffffffffff168152505061524e8483615272565b915061526460018261537990919063ffffffff16565b90506151d9565b5050919050565b60008260020160008373ffffffffffffffffffffffffffffffffffffffff1673ffffffffffffffffffffffffffffffffffffffff1681526020019081526020016000206000600115151515815260200190815260200160002060009054906101000a900473ffffffffffffffffffffffffffffffffffffffff16905092915050565b600082821115151561536e576040517f08c379a00000000000000000000000000000000000000000000000000000000081526004018080602001828103825260158152602001807f5375627472616374696f6e20657863657074696f6e000000000000000000000081525060200191505060405180910390fd5b818303905092915050565b600081830190508281101515156153f8576040517f08c379a00000000000000000000000000000000000000000000000000000000081526004018080602001828103825260118152602001807f4164646974696f6e206563657074696f6e00000000000000000000000000000081525060200191505060405180910390fd5b80905092915050565b60008160020160008073ffffffffffffffffffffffffffffffffffffffff1673ffffffffffffffffffffffffffffffffffffffff1681526020019081526020016000206000600115151515815260200190815260200160002060009054906101000a900473ffffffffffffffffffffffffffffffffffffffff1690509190505600a165627a7a72305820138d60c75755018d1bbaf1076ad2f77a2a27ad1554ca156fee9a40d50e16470c0029",
  "source": "pragma solidity ^0.4.24;\n\nimport \"./Controllable.sol\";\nimport \"./Label.sol\";\nimport \"./SafeMathLib.sol\";\nimport \"./ListLib.sol\";\nimport \"./XCoin.sol\";\nimport \"./Banks.sol\";\nimport \"./BankAccount.sol\";\nimport \"./BankService.sol\";\n\ncontract Bank is Label, Controllable {\n    using SafeMath for uint256;\n    using ListLib for ListLib.AddressList;\n\n    string constant CLASS_CODE = \"BANK\";\n\n    event Destroyed();\n    event AddedAccount(address indexed bankAddress, address accountAddress);\n    event RemovedAccount(address indexed bankAddress, address accountAddress);\n\n    event AddedService(address indexed bankAddress, address serviceAddress);\n    event RemovedService(address indexed bankAddress, address serviceAddress);\n\n    uint16 public countryCode; // ISO 3166-1\n    address public banksAddress;\n    Banks banks;\n\n    // Exchange coin\n    XCoin xCoin;\n\n    // ERC20 Account instance address\n    ListLib.AddressList accountsList;\n\n    // Registered BIN ranges\n    mapping(uint256 => bool) public registeredBINs;\n\n    // Services\n    ListLib.AddressList servicesList;\n\n    constructor (address _banksAddress, string _typeCode, string _label, string _description, uint16 _countryCode) public\n        Label(CLASS_CODE, _typeCode, _label, _description)\n    {\n        require(address(0) != _banksAddress, \"Banks instance address is empty\");\n\n        banksAddress = _banksAddress;\n        countryCode = _countryCode;\n\n        banks = Banks(banksAddress);\n        address xCoinAddress = banks.xCoinAddress();\n        require(address(0) != xCoinAddress, \"XCoin is not available\");\n        xCoin = XCoin(xCoinAddress);\n\n        // CAUTION: SHOULD BE REMOVE FROM PRODUCTION\n        xCoin.faucet(address(this), 900000000000000000000000, \"Faucet: Bank\");\n        // END CAUTION\n    }\n\n    /**\n     * Caller must provide allowance to transfer fund to target PAN\n     *\n     * @param _toPAN The target of PAN\n     * @param _toValue The target of value\n     */\n    function transfer(address _serviceAddress, uint256 _soPAN, uint256 _toPAN, uint256 _toValue) public\n        isUsable\n        returns(bool success)\n    {\n        require(banks.registeredBank(msg.sender), \"Access denied\");\n\n        (Bank tob, BankAccount toa, address toAddress) = banks.getBankAccount(_toPAN);\n\n        // Claim allowance from sender\n        uint256 xcValue = xCoin.getExchangeValue(_toValue, toa.currencyCode(), xCoin.currencyCode());\n        xCoin.transferFrom(msg.sender, address(this), xcValue);\n\n        // Is that on us transfer\n        if (accountsList.addressInUsed(address(toa))) {\n            toa.transfer(toAddress, _toValue);\n            toa.record(_serviceAddress, toAddress, _soPAN, _toPAN, _toValue, \"\");\n        }\n        else {\n            // Transform toValue into xCoin value to target\n            xCoin.increaseApproval(address(tob), xcValue);\n            tob.transfer(_serviceAddress, _soPAN, _toPAN, _toValue);\n        }\n\n        return true;\n    }\n\n    /**\n     * Called by service provider to transfer fund\n     *\n     * @param _soPAN The source of PAN\n     * @param _toPAN The target of PAN\n     * @param _toValue The target of value\n     * @param _soFee The source of fee that pay by sender\n     * @param _toFee The target of fee that pay by receiver\n     * @param _rate The exchage rate\n     */\n    function serviceTransfer(uint256 _soPAN, uint256 _toPAN, uint256 _toValue, uint256 _soFee, uint256 _toFee, uint256 _rate) public\n        isUsable\n        returns (uint256)\n    {\n        // sender must be registered service provider\n        require(servicesList.addressInUsed(msg.sender), \"Access denied\");\n\n        (Bank sob, BankAccount soa, address soAddress) = banks.getBankAccount(_soPAN);\n        (, BankAccount toa, address toAddress) = banks.getBankAccount(_toPAN);\n\n        require(address(sob) == address(this), \"Source of fund is not on us\");\n        require(_rate == soa.getExchangeRate(soa.currencyCode(), toa.currencyCode()), \"Exchange rate mismatched\");\n\n        // Convert fees into xCoin value to pay service provider\n        feesTransfer(soa, toa, _soFee, _toFee);\n\n        if (address(soa) != address(toa))\n            return balancesTransfer(_soPAN, _toPAN, _toValue, _soFee, _toFee, _rate);\n\n        toa.transferFrom(soAddress, toAddress, _toValue);\n        toa.record(msg.sender, toAddress, _soPAN, _toPAN, _toValue, \"\");\n\n        // Claim transaction fee\n        if (0 < _soFee)\n            soa.transferFrom(soAddress, address(this), _soFee);\n\n        return _toValue;\n    }\n\n    /**\n     * Perform fee transfer\n     */\n    function feesTransfer(BankAccount _soa, BankAccount _toa, uint256 _soFee, uint256 _toFee) private\n    {\n        if (0 < _soFee || 0 < _toFee) {\n            uint256 xcValue = xCoin.getExchangeValue(_soFee, _soa.currencyCode(), xCoin.currencyCode());\n\n            if (0 < _toFee)\n                xcValue = xcValue.add(xCoin.getExchangeValue(_toFee, _toa.currencyCode(), xCoin.currencyCode()));\n\n            xCoin.transfer(msg.sender, xcValue);\n        }\n    }\n\n    /**\n     * Perform fund transfer\n     */\n    function balancesTransfer(uint256 _soPAN, uint256 _toPAN, uint256 _toValue, uint256 _soFee, uint256 _toFee, uint256 _rate) private\n        returns (uint256 soValue)\n    {\n        (, BankAccount soa, address soAddress) = banks.getBankAccount(_soPAN);\n        (Bank tob, BankAccount toa,) = banks.getBankAccount(_toPAN);\n\n        // Convert toValue to source currency\n        soValue = soa.getExchangeValueByRate(_toValue, _rate);\n\n        // Claim transfer value and transaction fee\n        soa.transferFrom(soAddress, address(this), soValue.add(_soFee));\n\n        // Transform (toValue - toFee) into xCoin value to target bank\n        xCoin.increaseApproval(address(tob), xCoin.getExchangeValue(_toValue.sub(_toFee), toa.currencyCode(), xCoin.currencyCode()));\n        tob.transfer(msg.sender, _soPAN, _toPAN, _toValue.sub(_toFee));\n    }\n    \n    function addAccount(address _accountAddress) public\n        onlyOwner\n        returns(bool success)\n    {\n        require(address(0) != _accountAddress, \"Account address is empty\");\n        BankAccount account = BankAccount(_accountAddress);\n        uint256 BIN = account.BIN();\n\n        require(account.sealed(), \"Account instance is not sealed\");\n        require(!registeredBINs[BIN], \"Duplicated account BIN range\");\n        require(accountsList.pushAddress(_accountAddress), \"Duplicated account instance\");\n\n        registeredBINs[BIN] = true;\n\n        banks.emitAddedBankAccount(_accountAddress);\n        return true;\n    }\n\n    function removeAccount(address _accountAddress) public\n        onlyOwner\n        returns(bool success)\n    {\n        if (accountsList.removeAddress(_accountAddress)) {\n            BankAccount account = BankAccount(_accountAddress);\n            uint256 BIN = account.BIN();\n\n            delete registeredBINs[BIN];\n\n            banks.emitRemovedBankAccount(_accountAddress);\n        }\n\n        return true;\n    }\n\n    function getAccounts() public view\n        returns (address[])\n    {\n        return accountsList.addressList();\n    }\n\n    function getAccountsCount() public view\n        returns (uint256)\n    {\n        return accountsList.count;\n    }\n\n    function getNextAccount(address _accountAddress) public view\n        returns (address)\n    {\n        return accountsList.nextAddress(_accountAddress);\n    }\n\n    function registeredAccount(address _accountAddress) public view\n        returns (bool)\n    {\n        return accountsList.addressInUsed(_accountAddress);\n    }\n\n    function addService(address _serviceAddress) public\n        onlyOwner\n        returns(bool success)\n    {\n        BankService service = BankService(_serviceAddress);\n\n        require(service.sealed(), \"Service instance is not sealed\");\n        require(servicesList.pushAddress(_serviceAddress), \"Duplicated service instance\");\n\n        banks.emitAddedBankService(_serviceAddress);\n        return true;\n    }\n\n    function removeService(address _serviceAddress) public\n        onlyOwner\n        returns(bool success)\n    {\n        if (servicesList.removeAddress(_serviceAddress))\n            banks.emitRemovedBankService(_serviceAddress);\n        return true;\n    }\n\n    function getServices() public view\n        returns (address[])\n    {\n        return servicesList.addressList();\n    }\n\n    function getServicesCount() public view\n        returns (uint256)\n    {\n        return servicesList.count;\n    }\n\n    function getNextService(address _serviceAddress) public view\n        returns (address)\n    {\n        return servicesList.nextAddress(_serviceAddress);\n    }\n\n    function registeredService(address _serviceAddress) public view\n        returns (bool)\n    {\n        return servicesList.addressInUsed(_serviceAddress);\n    }\n\n    function sealRequirement() private view\n    {\n    }\n\n}\n",
  "sourcePath": "/Users/jeansoonsik/Documents/work/oojibo/demos/proto/backend/contracts/Bank.sol",
  "compiler": {
    "name": "solc",
    "version": "0.4.24+commit.e67f0147.Emscripten.clang"
  },
  "schemaVersion": "2.0.1",
  "updatedAt": "2018-09-17T15:49:50.427Z"
}