{
  "contractName": "BankAccount",
  "abi": [
    {
      "constant": false,
      "inputs": [
        {
          "name": "_spender",
          "type": "address"
        },
        {
          "name": "_value",
          "type": "uint256"
        }
      ],
      "name": "approve",
      "outputs": [
        {
          "name": "",
          "type": "bool"
        }
      ],
      "payable": false,
      "stateMutability": "nonpayable",
      "type": "function"
    },
    {
      "constant": true,
      "inputs": [],
      "name": "typeCode",
      "outputs": [
        {
          "name": "",
          "type": "string"
        }
      ],
      "payable": false,
      "stateMutability": "view",
      "type": "function"
    },
    {
      "constant": true,
      "inputs": [
        {
          "name": "",
          "type": "address"
        },
        {
          "name": "",
          "type": "uint256"
        }
      ],
      "name": "transactions",
      "outputs": [
        {
          "name": "inUsed",
          "type": "bool"
        },
        {
          "name": "service",
          "type": "address"
        },
        {
          "name": "timestamp",
          "type": "uint256"
        },
        {
          "name": "soPAN",
          "type": "uint256"
        },
        {
          "name": "toPAN",
          "type": "uint256"
        },
        {
          "name": "toValue",
          "type": "uint256"
        },
        {
          "name": "metadata",
          "type": "string"
        }
      ],
      "payable": false,
      "stateMutability": "view",
      "type": "function"
    },
    {
      "constant": true,
      "inputs": [],
      "name": "totalSupply",
      "outputs": [
        {
          "name": "",
          "type": "uint256"
        }
      ],
      "payable": false,
      "stateMutability": "view",
      "type": "function"
    },
    {
      "constant": false,
      "inputs": [
        {
          "name": "_from",
          "type": "address"
        },
        {
          "name": "_to",
          "type": "address"
        },
        {
          "name": "_value",
          "type": "uint256"
        }
      ],
      "name": "transferFrom",
      "outputs": [
        {
          "name": "",
          "type": "bool"
        }
      ],
      "payable": false,
      "stateMutability": "nonpayable",
      "type": "function"
    },
    {
      "constant": true,
      "inputs": [
        {
          "name": "",
          "type": "uint256"
        }
      ],
      "name": "registeredPANs",
      "outputs": [
        {
          "name": "",
          "type": "address"
        }
      ],
      "payable": false,
      "stateMutability": "view",
      "type": "function"
    },
    {
      "constant": true,
      "inputs": [],
      "name": "PANSeq",
      "outputs": [
        {
          "name": "",
          "type": "uint256"
        }
      ],
      "payable": false,
      "stateMutability": "view",
      "type": "function"
    },
    {
      "constant": true,
      "inputs": [],
      "name": "decimals",
      "outputs": [
        {
          "name": "",
          "type": "uint8"
        }
      ],
      "payable": false,
      "stateMutability": "view",
      "type": "function"
    },
    {
      "constant": false,
      "inputs": [],
      "name": "seal",
      "outputs": [
        {
          "name": "success",
          "type": "bool"
        }
      ],
      "payable": false,
      "stateMutability": "nonpayable",
      "type": "function"
    },
    {
      "constant": true,
      "inputs": [],
      "name": "BIN",
      "outputs": [
        {
          "name": "",
          "type": "uint256"
        }
      ],
      "payable": false,
      "stateMutability": "view",
      "type": "function"
    },
    {
      "constant": false,
      "inputs": [
        {
          "name": "_spender",
          "type": "address"
        },
        {
          "name": "_subtractedValue",
          "type": "uint256"
        }
      ],
      "name": "decreaseApproval",
      "outputs": [
        {
          "name": "",
          "type": "bool"
        }
      ],
      "payable": false,
      "stateMutability": "nonpayable",
      "type": "function"
    },
    {
      "constant": true,
      "inputs": [
        {
          "name": "_owner",
          "type": "address"
        }
      ],
      "name": "balanceOf",
      "outputs": [
        {
          "name": "balance",
          "type": "uint256"
        }
      ],
      "payable": false,
      "stateMutability": "view",
      "type": "function"
    },
    {
      "constant": true,
      "inputs": [],
      "name": "description",
      "outputs": [
        {
          "name": "",
          "type": "string"
        }
      ],
      "payable": false,
      "stateMutability": "view",
      "type": "function"
    },
    {
      "constant": true,
      "inputs": [],
      "name": "stopped",
      "outputs": [
        {
          "name": "",
          "type": "bool"
        }
      ],
      "payable": false,
      "stateMutability": "view",
      "type": "function"
    },
    {
      "constant": false,
      "inputs": [],
      "name": "acceptOwnership",
      "outputs": [],
      "payable": false,
      "stateMutability": "nonpayable",
      "type": "function"
    },
    {
      "constant": false,
      "inputs": [
        {
          "name": "_to",
          "type": "address[]"
        },
        {
          "name": "_value",
          "type": "uint256"
        }
      ],
      "name": "transferBatch",
      "outputs": [
        {
          "name": "",
          "type": "bool"
        }
      ],
      "payable": false,
      "stateMutability": "nonpayable",
      "type": "function"
    },
    {
      "constant": false,
      "inputs": [],
      "name": "destroy",
      "outputs": [],
      "payable": false,
      "stateMutability": "nonpayable",
      "type": "function"
    },
    {
      "constant": true,
      "inputs": [],
      "name": "owner",
      "outputs": [
        {
          "name": "",
          "type": "address"
        }
      ],
      "payable": false,
      "stateMutability": "view",
      "type": "function"
    },
    {
      "constant": true,
      "inputs": [],
      "name": "symbol",
      "outputs": [
        {
          "name": "",
          "type": "string"
        }
      ],
      "payable": false,
      "stateMutability": "view",
      "type": "function"
    },
    {
      "constant": false,
      "inputs": [],
      "name": "resumeMe",
      "outputs": [
        {
          "name": "success",
          "type": "bool"
        }
      ],
      "payable": false,
      "stateMutability": "nonpayable",
      "type": "function"
    },
    {
      "constant": false,
      "inputs": [
        {
          "name": "_to",
          "type": "address"
        },
        {
          "name": "_value",
          "type": "uint256"
        }
      ],
      "name": "transfer",
      "outputs": [
        {
          "name": "",
          "type": "bool"
        }
      ],
      "payable": false,
      "stateMutability": "nonpayable",
      "type": "function"
    },
    {
      "constant": false,
      "inputs": [],
      "name": "stopMe",
      "outputs": [
        {
          "name": "success",
          "type": "bool"
        }
      ],
      "payable": false,
      "stateMutability": "nonpayable",
      "type": "function"
    },
    {
      "constant": true,
      "inputs": [],
      "name": "label",
      "outputs": [
        {
          "name": "",
          "type": "string"
        }
      ],
      "payable": false,
      "stateMutability": "view",
      "type": "function"
    },
    {
      "constant": true,
      "inputs": [],
      "name": "newOwner",
      "outputs": [
        {
          "name": "",
          "type": "address"
        }
      ],
      "payable": false,
      "stateMutability": "view",
      "type": "function"
    },
    {
      "constant": false,
      "inputs": [
        {
          "name": "_spender",
          "type": "address"
        },
        {
          "name": "_addedValue",
          "type": "uint256"
        }
      ],
      "name": "increaseApproval",
      "outputs": [
        {
          "name": "",
          "type": "bool"
        }
      ],
      "payable": false,
      "stateMutability": "nonpayable",
      "type": "function"
    },
    {
      "constant": true,
      "inputs": [
        {
          "name": "_owner",
          "type": "address"
        },
        {
          "name": "_spender",
          "type": "address"
        }
      ],
      "name": "allowance",
      "outputs": [
        {
          "name": "",
          "type": "uint256"
        }
      ],
      "payable": false,
      "stateMutability": "view",
      "type": "function"
    },
    {
      "constant": true,
      "inputs": [],
      "name": "currencyCode",
      "outputs": [
        {
          "name": "",
          "type": "uint16"
        }
      ],
      "payable": false,
      "stateMutability": "view",
      "type": "function"
    },
    {
      "constant": true,
      "inputs": [],
      "name": "classCode",
      "outputs": [
        {
          "name": "",
          "type": "string"
        }
      ],
      "payable": false,
      "stateMutability": "view",
      "type": "function"
    },
    {
      "constant": true,
      "inputs": [],
      "name": "sealed",
      "outputs": [
        {
          "name": "",
          "type": "bool"
        }
      ],
      "payable": false,
      "stateMutability": "view",
      "type": "function"
    },
    {
      "constant": true,
      "inputs": [
        {
          "name": "",
          "type": "address"
        }
      ],
      "name": "registeredHolders",
      "outputs": [
        {
          "name": "",
          "type": "uint256"
        }
      ],
      "payable": false,
      "stateMutability": "view",
      "type": "function"
    },
    {
      "constant": false,
      "inputs": [
        {
          "name": "_newOwner",
          "type": "address"
        }
      ],
      "name": "transferOwnership",
      "outputs": [],
      "payable": false,
      "stateMutability": "nonpayable",
      "type": "function"
    },
    {
      "inputs": [
        {
          "name": "_bankAddress",
          "type": "address"
        },
        {
          "name": "_typeCode",
          "type": "string"
        },
        {
          "name": "_label",
          "type": "string"
        },
        {
          "name": "_description",
          "type": "string"
        },
        {
          "name": "_symbol",
          "type": "string"
        },
        {
          "name": "_initialSupply",
          "type": "uint256"
        },
        {
          "name": "_decimals",
          "type": "uint8"
        },
        {
          "name": "_currencyCode",
          "type": "uint16"
        },
        {
          "name": "_BIN",
          "type": "uint256"
        },
        {
          "name": "_soCurrencyCodes",
          "type": "uint16[]"
        },
        {
          "name": "_toCurrencyCodes",
          "type": "uint16[]"
        },
        {
          "name": "_rates",
          "type": "uint256[]"
        }
      ],
      "payable": false,
      "stateMutability": "nonpayable",
      "type": "constructor"
    },
    {
      "anonymous": false,
      "inputs": [
        {
          "indexed": true,
          "name": "owner",
          "type": "address"
        },
        {
          "indexed": false,
          "name": "value",
          "type": "uint256"
        },
        {
          "indexed": false,
          "name": "remarks",
          "type": "string"
        }
      ],
      "name": "AddedSupply",
      "type": "event"
    },
    {
      "anonymous": false,
      "inputs": [
        {
          "indexed": true,
          "name": "owner",
          "type": "address"
        },
        {
          "indexed": false,
          "name": "value",
          "type": "uint256"
        },
        {
          "indexed": false,
          "name": "remarks",
          "type": "string"
        }
      ],
      "name": "ReducedSupply",
      "type": "event"
    },
    {
      "anonymous": false,
      "inputs": [
        {
          "indexed": true,
          "name": "holder",
          "type": "address"
        },
        {
          "indexed": true,
          "name": "PAN",
          "type": "uint256"
        }
      ],
      "name": "RegisteredAccount",
      "type": "event"
    },
    {
      "anonymous": false,
      "inputs": [
        {
          "indexed": true,
          "name": "holder",
          "type": "address"
        },
        {
          "indexed": true,
          "name": "PAN",
          "type": "uint256"
        },
        {
          "indexed": true,
          "name": "beneficent",
          "type": "address"
        }
      ],
      "name": "UnregisteredAccount",
      "type": "event"
    },
    {
      "anonymous": false,
      "inputs": [],
      "name": "Stopped",
      "type": "event"
    },
    {
      "anonymous": false,
      "inputs": [],
      "name": "Resumed",
      "type": "event"
    },
    {
      "anonymous": false,
      "inputs": [],
      "name": "Sealed",
      "type": "event"
    },
    {
      "anonymous": false,
      "inputs": [],
      "name": "Destroyed",
      "type": "event"
    },
    {
      "anonymous": false,
      "inputs": [
        {
          "indexed": true,
          "name": "_from",
          "type": "address"
        },
        {
          "indexed": true,
          "name": "_to",
          "type": "address"
        }
      ],
      "name": "OwnershipTransferred",
      "type": "event"
    },
    {
      "anonymous": false,
      "inputs": [
        {
          "indexed": true,
          "name": "owner",
          "type": "address"
        },
        {
          "indexed": true,
          "name": "spender",
          "type": "address"
        },
        {
          "indexed": false,
          "name": "value",
          "type": "uint256"
        }
      ],
      "name": "Approval",
      "type": "event"
    },
    {
      "anonymous": false,
      "inputs": [
        {
          "indexed": true,
          "name": "from",
          "type": "address"
        },
        {
          "indexed": true,
          "name": "to",
          "type": "address"
        },
        {
          "indexed": false,
          "name": "value",
          "type": "uint256"
        }
      ],
      "name": "Transfer",
      "type": "event"
    },
    {
      "constant": false,
      "inputs": [
        {
          "name": "_serviceAddress",
          "type": "address"
        },
        {
          "name": "_allowance",
          "type": "uint256"
        },
        {
          "name": "_calldata",
          "type": "bytes"
        }
      ],
      "name": "transact",
      "outputs": [],
      "payable": false,
      "stateMutability": "nonpayable",
      "type": "function"
    },
    {
      "constant": false,
      "inputs": [
        {
          "name": "_serviceAddress",
          "type": "address"
        },
        {
          "name": "_to",
          "type": "address"
        },
        {
          "name": "_soPAN",
          "type": "uint256"
        },
        {
          "name": "_toPAN",
          "type": "uint256"
        },
        {
          "name": "_toValue",
          "type": "uint256"
        },
        {
          "name": "_metadata",
          "type": "string"
        }
      ],
      "name": "record",
      "outputs": [
        {
          "name": "",
          "type": "uint256"
        }
      ],
      "payable": false,
      "stateMutability": "nonpayable",
      "type": "function"
    },
    {
      "constant": false,
      "inputs": [
        {
          "name": "_toPAN",
          "type": "uint256"
        },
        {
          "name": "_value",
          "type": "uint256"
        },
        {
          "name": "_remarks",
          "type": "string"
        }
      ],
      "name": "faucet",
      "outputs": [
        {
          "name": "transactionId",
          "type": "uint256"
        }
      ],
      "payable": false,
      "stateMutability": "nonpayable",
      "type": "function"
    },
    {
      "constant": false,
      "inputs": [
        {
          "name": "_soCurrencyCodes",
          "type": "uint16[]"
        },
        {
          "name": "_toCurrencyCodes",
          "type": "uint16[]"
        },
        {
          "name": "_rates",
          "type": "uint256[]"
        }
      ],
      "name": "setExchangeRateBatch",
      "outputs": [
        {
          "name": "",
          "type": "bool"
        }
      ],
      "payable": false,
      "stateMutability": "nonpayable",
      "type": "function"
    },
    {
      "constant": false,
      "inputs": [
        {
          "name": "_soCurrencyCode",
          "type": "uint16"
        },
        {
          "name": "_toCurrencyCode",
          "type": "uint16"
        },
        {
          "name": "_rate",
          "type": "uint256"
        }
      ],
      "name": "setExchangeRate",
      "outputs": [
        {
          "name": "",
          "type": "bool"
        }
      ],
      "payable": false,
      "stateMutability": "nonpayable",
      "type": "function"
    },
    {
      "constant": true,
      "inputs": [
        {
          "name": "_soCurrencyCode",
          "type": "uint16"
        },
        {
          "name": "_toCurrencyCode",
          "type": "uint16"
        }
      ],
      "name": "getExchangeRate",
      "outputs": [
        {
          "name": "rate",
          "type": "uint256"
        }
      ],
      "payable": false,
      "stateMutability": "view",
      "type": "function"
    },
    {
      "constant": true,
      "inputs": [
        {
          "name": "_value",
          "type": "uint256"
        },
        {
          "name": "_soCurrencyCode",
          "type": "uint16"
        },
        {
          "name": "_toCurrencyCode",
          "type": "uint16"
        }
      ],
      "name": "getExchangeValue",
      "outputs": [
        {
          "name": "",
          "type": "uint256"
        }
      ],
      "payable": false,
      "stateMutability": "view",
      "type": "function"
    },
    {
      "constant": true,
      "inputs": [
        {
          "name": "_value",
          "type": "uint256"
        },
        {
          "name": "_rate",
          "type": "uint256"
        }
      ],
      "name": "getExchangeValueByRate",
      "outputs": [
        {
          "name": "",
          "type": "uint256"
        }
      ],
      "payable": false,
      "stateMutability": "pure",
      "type": "function"
    },
    {
      "constant": true,
      "inputs": [],
      "name": "bankAddress",
      "outputs": [
        {
          "name": "",
          "type": "address"
        }
      ],
      "payable": false,
      "stateMutability": "view",
      "type": "function"
    },
    {
      "constant": false,
      "inputs": [
        {
          "name": "_holderAddress",
          "type": "address"
        }
      ],
      "name": "registerAccount",
      "outputs": [
        {
          "name": "PAN",
          "type": "uint256"
        }
      ],
      "payable": false,
      "stateMutability": "nonpayable",
      "type": "function"
    },
    {
      "constant": false,
      "inputs": [
        {
          "name": "_holderAddress",
          "type": "address"
        },
        {
          "name": "_beneficentAddress",
          "type": "address"
        }
      ],
      "name": "unregisterAccount",
      "outputs": [
        {
          "name": "PAN",
          "type": "uint256"
        }
      ],
      "payable": false,
      "stateMutability": "nonpayable",
      "type": "function"
    },
    {
      "constant": false,
      "inputs": [
        {
          "name": "_value",
          "type": "uint256"
        },
        {
          "name": "_remarks",
          "type": "string"
        }
      ],
      "name": "addSupply",
      "outputs": [
        {
          "name": "success",
          "type": "bool"
        }
      ],
      "payable": false,
      "stateMutability": "nonpayable",
      "type": "function"
    },
    {
      "constant": false,
      "inputs": [
        {
          "name": "_value",
          "type": "uint256"
        },
        {
          "name": "_remarks",
          "type": "string"
        }
      ],
      "name": "reduceSupply",
      "outputs": [
        {
          "name": "success",
          "type": "bool"
        }
      ],
      "payable": false,
      "stateMutability": "nonpayable",
      "type": "function"
    }
  ],
  "bytecode": "0x60806040523480156200001157600080fd5b5060405162006374380380620063748339810180604052810190808051906020019092919080518201929190602001805182019291906020018051820192919060200180518201929190602001805190602001909291908051906020019092919080519060200190929190805190602001909291908051820192919060200180518201929190602001805182019291905050506040805190810160405280600c81526020017f42414e4b5f4143434f554e5400000000000000000000000000000000000000008152508b8b8b8360009080519060200190620000f592919062000d3a565b5082600190805190602001906200010e92919062000d3a565b5081600290805190602001906200012792919062000d3a565b5080600390805190602001906200014092919062000d3a565b505050505033600460006101000a81548173ffffffffffffffffffffffffffffffffffffffff021916908373ffffffffffffffffffffffffffffffffffffffff1602179055506001600560156101000a81548160ff0219169083151502179055508b73ffffffffffffffffffffffffffffffffffffffff16600073ffffffffffffffffffffffffffffffffffffffff161415151562000247576040517f08c379a000000000000000000000000000000000000000000000000000000000815260040180806020018281038252601e8152602001807f42616e6b20696e7374616e6365206164647265737320697320656d707479000081525060200191505060405180910390fd5b8461ffff16600014151515620002c5576040517f08c379a00000000000000000000000000000000000000000000000000000000081526004018080602001828103825260168152602001807f43757272656e637920636f646520697320656d7074790000000000000000000081525060200191505060405180910390fd5b8b601260006101000a81548173ffffffffffffffffffffffffffffffffffffffff021916908373ffffffffffffffffffffffffffffffffffffffff160217905550601260009054906101000a900473ffffffffffffffffffffffffffffffffffffffff1673ffffffffffffffffffffffffffffffffffffffff1663e79466816040518163ffffffff167c0100000000000000000000000000000000000000000000000000000000028152600401602060405180830381600087803b1580156200038d57600080fd5b505af1158015620003a2573d6000803e3d6000fd5b505050506040513d6020811015620003b957600080fd5b8101908080519060200190929190505050601360006101000a81548173ffffffffffffffffffffffffffffffffffffffff021916908373ffffffffffffffffffffffffffffffffffffffff16021790555087600c90805190602001906200042292919062000d3a565b5085600d60006101000a81548160ff021916908360ff1602179055506200048e876040805190810160405280600e81526020017f496e697469616c20737570706c7900000000000000000000000000000000000081525062000668640100000000026401000000009004565b5084600960006101000a81548161ffff021916908361ffff16021790555083600b819055600a81905550825160001015620004e157620004df8383836200092e640100000000026401000000009004565b505b6200051069be951906eba2aa80000060075462000b2b64010000000002620050ce179091906401000000009004565b6007819055506200058269be951906eba2aa800000600660008f73ffffffffffffffffffffffffffffffffffffffff1673ffffffffffffffffffffffffffffffffffffffff1681526020019081526020016000205462000b2b64010000000002620050ce179091906401000000009004565b600660008e73ffffffffffffffffffffffffffffffffffffffff1673ffffffffffffffffffffffffffffffffffffffff168152602001908152602001600020819055508b73ffffffffffffffffffffffffffffffffffffffff167fe66ec88cb5b7ccbc4c07963c469c0f33758ee58145b78f682a3c8cc7995880b869be951906eba2aa80000060405180828152602001806020018281038252600c8152602001807f4661756365743a2042616e6b00000000000000000000000000000000000000008152506020019250505060405180910390a250505050505050505050505062000de9565b6000600460009054906101000a900473ffffffffffffffffffffffffffffffffffffffff1673ffffffffffffffffffffffffffffffffffffffff163373ffffffffffffffffffffffffffffffffffffffff1614151562000730576040517f08c379a00000000000000000000000000000000000000000000000000000000081526004018080602001828103825260158152602001807f4f6e6c79206f776e657220697320616c6c6f776564000000000000000000000081525060200191505060405180910390fd5b620007558360075462000b2b64010000000002620050ce179091906401000000009004565b600781905550620007df8360066000600460009054906101000a900473ffffffffffffffffffffffffffffffffffffffff1673ffffffffffffffffffffffffffffffffffffffff1673ffffffffffffffffffffffffffffffffffffffff1681526020019081526020016000205462000b2b64010000000002620050ce179091906401000000009004565b60066000600460009054906101000a900473ffffffffffffffffffffffffffffffffffffffff1673ffffffffffffffffffffffffffffffffffffffff1673ffffffffffffffffffffffffffffffffffffffff16815260200190815260200160002081905550600460009054906101000a900473ffffffffffffffffffffffffffffffffffffffff1673ffffffffffffffffffffffffffffffffffffffff167fe66ec88cb5b7ccbc4c07963c469c0f33758ee58145b78f682a3c8cc7995880b884846040518083815260200180602001828103825283818151815260200191508051906020019080838360005b83811015620008e8578082015181840152602081019050620008cb565b50505050905090810190601f168015620009165780820380516001836020036101000a031916815260200191505b50935050505060405180910390a26001905092915050565b600080600460009054906101000a900473ffffffffffffffffffffffffffffffffffffffff1673ffffffffffffffffffffffffffffffffffffffff163373ffffffffffffffffffffffffffffffffffffffff16141515620009f7576040517f08c379a00000000000000000000000000000000000000000000000000000000081526004018080602001828103825260158152602001807f4f6e6c79206f776e657220697320616c6c6f776564000000000000000000000081525060200191505060405180910390fd5b8351855114801562000a0a575082518451145b151562000a7f576040517f08c379a00000000000000000000000000000000000000000000000000000000081526004018080602001828103825260118152602001807f4172726179206f7574206f662073796e6300000000000000000000000000000081525060200191505060405180910390fd5b600090505b808351111562000b1f5762000af2858281518110151562000aa157fe5b90602001906020020151858381518110151562000aba57fe5b90602001906020020151858481518110151562000ad357fe5b9060200190602002015162000bb4640100000000026401000000009004565b5062000b1760018262000b2b64010000000002620050ce179091906401000000009004565b905062000a84565b60019150509392505050565b6000818301905082811015151562000bab576040517f08c379a00000000000000000000000000000000000000000000000000000000081526004018080602001828103825260118152602001807f4164646974696f6e206563657074696f6e00000000000000000000000000000081525060200191505060405180910390fd5b80905092915050565b6000600460009054906101000a900473ffffffffffffffffffffffffffffffffffffffff1673ffffffffffffffffffffffffffffffffffffffff163373ffffffffffffffffffffffffffffffffffffffff1614151562000c7c576040517f08c379a00000000000000000000000000000000000000000000000000000000081526004018080602001828103825260158152602001807f4f6e6c79206f776e657220697320616c6c6f776564000000000000000000000081525060200191505060405180910390fd5b8160001415151562000cf6576040517f08c379a000000000000000000000000000000000000000000000000000000000815260040180806020018281038252601a8152602001807f45786368616e67652072617465206973206e6f742076616c696400000000000081525060200191505060405180910390fd5b81601060008661ffff1661ffff16815260200190815260200160002060008561ffff1661ffff16815260200190815260200160002081905550600190509392505050565b828054600181600116156101000203166002900490600052602060002090601f016020900481019282601f1062000d7d57805160ff191683800117855562000dae565b8280016001018555821562000dae579182015b8281111562000dad57825182559160200191906001019062000d90565b5b50905062000dbd919062000dc1565b5090565b62000de691905b8082111562000de257600081600090555060010162000dc8565b5090565b90565b61557b8062000df96000396000f30060806040526004361061021a576000357c0100000000000000000000000000000000000000000000000000000000900463ffffffff168063095ea7b31461021f5780630f81a38f14610284578063121a8d0f14610314578063145381281461035f57806318160ddd1461047f57806323b872dd146104aa57806327dbb69a1461052f5780632b0102ef1461059c578063313ce567146105c757806335e2e13b146105f85780633fb27b851461068357806346e6e2b5146106b25780634a43a3f3146107b65780635232a558146108475780635de9ea691461087257806366188463146108cf57806370a08231146109345780637284e4161461098b57806375f12b2114610a1b5780637822ed4914610a4a57806379ba509714610aa1578063806e085e14610ab857806383197ef014610b4057806384298f1d14610b575780638da5cb5b14610bb857806395d89b4114610c0f57806397c414df14610c9f5780639886b14414610cf6578063a9059cbb14610d25578063bc699e7514610d8a578063c4627c5d14610db9578063c8f38dc014610e4c578063cb4774c414610e9f578063d4ee1d9014610f2f578063d73dd62314610f86578063dd62ed3e14610feb578063ded6b20014611062578063e05e2477146110ed578063e102e5e314611164578063e1da6cd114611197578063e24ff74414611272578063e4b203ef14611302578063e7ed70f614611331578063f2fde38b14611388575b600080fd5b34801561022b57600080fd5b5061026a600480360381019080803573ffffffffffffffffffffffffffffffffffffffff169060200190929190803590602001909291905050506113cb565b604051808215151515815260200191505060405180910390f35b34801561029057600080fd5b50610299611551565b6040518080602001828103825283818151815260200191508051906020019080838360005b838110156102d95780820151818401526020810190506102be565b50505050905090810190601f1680156103065780820380516001836020036101000a031916815260200191505b509250505060405180910390f35b34801561032057600080fd5b5061034960048036038101908080359060200190929190803590602001909291905050506115ef565b6040518082815260200191505060405180910390f35b34801561036b57600080fd5b506103aa600480360381019080803573ffffffffffffffffffffffffffffffffffffffff16906020019092919080359060200190929190505050611646565b60405180881515151581526020018773ffffffffffffffffffffffffffffffffffffffff1673ffffffffffffffffffffffffffffffffffffffff16815260200186815260200185815260200184815260200183815260200180602001828103825283818151815260200191508051906020019080838360005b8381101561043e578082015181840152602081019050610423565b50505050905090810190601f16801561046b5780820380516001836020036101000a031916815260200191505b509850505050505050505060405180910390f35b34801561048b57600080fd5b5061049461175a565b6040518082815260200191505060405180910390f35b3480156104b657600080fd5b50610515600480360381019080803573ffffffffffffffffffffffffffffffffffffffff169060200190929190803573ffffffffffffffffffffffffffffffffffffffff1690602001909291908035906020019092919050505061177f565b604051808215151515815260200191505060405180910390f35b34801561053b57600080fd5b5061055a60048036038101908080359060200190929190505050611d0e565b604051808273ffffffffffffffffffffffffffffffffffffffff1673ffffffffffffffffffffffffffffffffffffffff16815260200191505060405180910390f35b3480156105a857600080fd5b506105b1611d41565b6040518082815260200191505060405180910390f35b3480156105d357600080fd5b506105dc611d47565b604051808260ff1660ff16815260200191505060405180910390f35b34801561060457600080fd5b5061066960048036038101908080359060200190929190803590602001908201803590602001908080601f0160208091040260200160405190810160405280939291908181526020018383808284378201915050505050509192919290505050611d5a565b604051808215151515815260200191505060405180910390f35b34801561068f57600080fd5b50610698612091565b604051808215151515815260200191505060405180910390f35b3480156106be57600080fd5b5061079c600480360381019080803590602001908201803590602001908080602002602001604051908101604052809392919081815260200183836020028082843782019150505050505091929192908035906020019082018035906020019080806020026020016040519081016040528093929190818152602001838360200280828437820191505050505050919291929080359060200190820180359060200190808060200260200160405190810160405280939291908181526020018383602002808284378201915050505050509192919290505050612290565b604051808215151515815260200191505060405180910390f35b3480156107c257600080fd5b506108316004803603810190808035906020019092919080359060200190929190803590602001908201803590602001908080601f0160208091040260200160405190810160405280939291908181526020018383808284378201915050505050509192919290505050612464565b6040518082815260200191505060405180910390f35b34801561085357600080fd5b5061085c61280b565b6040518082815260200191505060405180910390f35b34801561087e57600080fd5b506108b960048036038101908080359060200190929190803561ffff169060200190929190803561ffff169060200190929190505050612811565b6040518082815260200191505060405180910390f35b3480156108db57600080fd5b5061091a600480360381019080803573ffffffffffffffffffffffffffffffffffffffff16906020019092919080359060200190929190505050612877565b604051808215151515815260200191505060405180910390f35b34801561094057600080fd5b50610975600480360381019080803573ffffffffffffffffffffffffffffffffffffffff169060200190929190505050612b9c565b6040518082815260200191505060405180910390f35b34801561099757600080fd5b506109a0612c00565b6040518080602001828103825283818151815260200191508051906020019080838360005b838110156109e05780820151818401526020810190506109c5565b50505050905090810190601f168015610a0d5780820380516001836020036101000a031916815260200191505b509250505060405180910390f35b348015610a2757600080fd5b50610a30612c9e565b604051808215151515815260200191505060405180910390f35b348015610a5657600080fd5b50610a5f612cb1565b604051808273ffffffffffffffffffffffffffffffffffffffff1673ffffffffffffffffffffffffffffffffffffffff16815260200191505060405180910390f35b348015610aad57600080fd5b50610ab6612cdb565b005b348015610ac457600080fd5b50610b266004803603810190808035906020019082018035906020019080806020026020016040519081016040528093929190818152602001838360200280828437820191505050505050919291929080359060200190929190505050612ee5565b604051808215151515815260200191505060405180910390f35b348015610b4c57600080fd5b50610b55612fd2565b005b348015610b6357600080fd5b50610b9e600480360381019080803561ffff169060200190929190803561ffff16906020019092919080359060200190929190505050613107565b604051808215151515815260200191505060405180910390f35b348015610bc457600080fd5b50610bcd61328b565b604051808273ffffffffffffffffffffffffffffffffffffffff1673ffffffffffffffffffffffffffffffffffffffff16815260200191505060405180910390f35b348015610c1b57600080fd5b50610c246132b1565b6040518080602001828103825283818151815260200191508051906020019080838360005b83811015610c64578082015181840152602081019050610c49565b50505050905090810190601f168015610c915780820380516001836020036101000a031916815260200191505b509250505060405180910390f35b348015610cab57600080fd5b50610ce0600480360381019080803573ffffffffffffffffffffffffffffffffffffffff16906020019092919050505061334f565b6040518082815260200191505060405180910390f35b348015610d0257600080fd5b50610d0b613685565b604051808215151515815260200191505060405180910390f35b348015610d3157600080fd5b50610d70600480360381019080803573ffffffffffffffffffffffffffffffffffffffff1690602001909291908035906020019092919050505061379a565b604051808215151515815260200191505060405180910390f35b348015610d9657600080fd5b50610d9f613b25565b604051808215151515815260200191505060405180910390f35b348015610dc557600080fd5b50610e4a600480360381019080803573ffffffffffffffffffffffffffffffffffffffff16906020019092919080359060200190929190803590602001908201803590602001908080601f0160208091040260200160405190810160405280939291908181526020018383808284378201915050505050509192919290505050613c3a565b005b348015610e5857600080fd5b50610e89600480360381019080803561ffff169060200190929190803561ffff169060200190929190505050613fa5565b6040518082815260200191505060405180910390f35b348015610eab57600080fd5b50610eb4614086565b6040518080602001828103825283818151815260200191508051906020019080838360005b83811015610ef4578082015181840152602081019050610ed9565b50505050905090810190601f168015610f215780820380516001836020036101000a031916815260200191505b509250505060405180910390f35b348015610f3b57600080fd5b50610f44614124565b604051808273ffffffffffffffffffffffffffffffffffffffff1673ffffffffffffffffffffffffffffffffffffffff16815260200191505060405180910390f35b348015610f9257600080fd5b50610fd1600480360381019080803573ffffffffffffffffffffffffffffffffffffffff1690602001909291908035906020019092919050505061414a565b604051808215151515815260200191505060405180910390f35b348015610ff757600080fd5b5061104c600480360381019080803573ffffffffffffffffffffffffffffffffffffffff169060200190929190803573ffffffffffffffffffffffffffffffffffffffff1690602001909291905050506143da565b6040518082815260200191505060405180910390f35b34801561106e57600080fd5b506110d360048036038101908080359060200190929190803590602001908201803590602001908080601f016020809104026020016040519081016040528093929190818152602001838380828437820191505050505050919291929050505061447c565b604051808215151515815260200191505060405180910390f35b3480156110f957600080fd5b5061114e600480360381019080803573ffffffffffffffffffffffffffffffffffffffff169060200190929190803573ffffffffffffffffffffffffffffffffffffffff16906020019092919050505061471e565b6040518082815260200191505060405180910390f35b34801561117057600080fd5b50611179614c34565b604051808261ffff1661ffff16815260200191505060405180910390f35b3480156111a357600080fd5b5061125c600480360381019080803573ffffffffffffffffffffffffffffffffffffffff169060200190929190803573ffffffffffffffffffffffffffffffffffffffff169060200190929190803590602001909291908035906020019092919080359060200190929190803590602001908201803590602001908080601f0160208091040260200160405190810160405280939291908181526020018383808284378201915050505050509192919290505050614c48565b6040518082815260200191505060405180910390f35b34801561127e57600080fd5b50611287614dbd565b6040518080602001828103825283818151815260200191508051906020019080838360005b838110156112c75780820151818401526020810190506112ac565b50505050905090810190601f1680156112f45780820380516001836020036101000a031916815260200191505b509250505060405180910390f35b34801561130e57600080fd5b50611317614e5b565b604051808215151515815260200191505060405180910390f35b34801561133d57600080fd5b50611372600480360381019080803573ffffffffffffffffffffffffffffffffffffffff169060200190929190505050614e6e565b6040518082815260200191505060405180910390f35b34801561139457600080fd5b506113c9600480360381019080803573ffffffffffffffffffffffffffffffffffffffff169060200190929190505050614e86565b005b6000600560159054906101000a900460ff161515611444573373ffffffffffffffffffffffffffffffffffffffff16600460009054906101000a900473ffffffffffffffffffffffffffffffffffffffff1673ffffffffffffffffffffffffffffffffffffffff1614151561143f57600080fd5b611461565b600560149054906101000a900460ff1615151561146057600080fd5b5b81600860003373ffffffffffffffffffffffffffffffffffffffff1673ffffffffffffffffffffffffffffffffffffffff16815260200190815260200160002060008573ffffffffffffffffffffffffffffffffffffffff1673ffffffffffffffffffffffffffffffffffffffff168152602001908152602001600020819055508273ffffffffffffffffffffffffffffffffffffffff163373ffffffffffffffffffffffffffffffffffffffff167f8c5be1e5ebec7d5bd14f71427d1e84f3dd0314c0f7b2291e5b200ac8c7c3b925846040518082815260200191505060405180910390a36001905092915050565b60018054600181600116156101000203166002900480601f0160208091040260200160405190810160405280929190818152602001828054600181600116156101000203166002900480156115e75780601f106115bc576101008083540402835291602001916115e7565b820191906000526020600020905b8154815290600101906020018083116115ca57829003601f168201915b505050505081565b600082600014156116035760009050611640565b61162a6103e861161c8486614f8f90919063ffffffff16565b61503390919063ffffffff16565b92508260001061163b57600161163d565b825b90505b92915050565b6011602052816000526040600020602052806000526040600020600091509150508060000160009054906101000a900460ff16908060000160019054906101000a900473ffffffffffffffffffffffffffffffffffffffff1690806001015490806002015490806003015490806004015490806005018054600181600116156101000203166002900480601f0160208091040260200160405190810160405280929190818152602001828054600181600116156101000203166002900480156117505780601f1061172557610100808354040283529160200191611750565b820191906000526020600020905b81548152906001019060200180831161173357829003601f168201915b5050505050905087565b6000600560159054906101000a900460ff16151561177757600080fd5b600754905090565b6000600560159054906101000a900460ff1615156117f8573373ffffffffffffffffffffffffffffffffffffffff16600460009054906101000a900473ffffffffffffffffffffffffffffffffffffffff1673ffffffffffffffffffffffffffffffffffffffff161415156117f357600080fd5b611815565b600560149054906101000a900460ff1615151561181457600080fd5b5b600073ffffffffffffffffffffffffffffffffffffffff168373ffffffffffffffffffffffffffffffffffffffff16141515156118ba576040517f08c379a00000000000000000000000000000000000000000000000000000000081526004018080602001828103825260178152602001807f546172676574206164647265737320697320656d70747900000000000000000081525060200191505060405180910390fd5b600660008573ffffffffffffffffffffffffffffffffffffffff1673ffffffffffffffffffffffffffffffffffffffff168152602001908152602001600020548211151515611971576040517f08c379a00000000000000000000000000000000000000000000000000000000081526004018080602001828103825260118152602001807f496e73756666696369656e742066756e6400000000000000000000000000000081525060200191505060405180910390fd5b600860008573ffffffffffffffffffffffffffffffffffffffff1673ffffffffffffffffffffffffffffffffffffffff16815260200190815260200160002060003373ffffffffffffffffffffffffffffffffffffffff1673ffffffffffffffffffffffffffffffffffffffff168152602001908152602001600020548211151515611a65576040517f08c379a00000000000000000000000000000000000000000000000000000000081526004018080602001828103825260168152602001807f496e73756666696369656e7420616c6c6f77616e63650000000000000000000081525060200191505060405180910390fd5b611ab782600660008773ffffffffffffffffffffffffffffffffffffffff1673ffffffffffffffffffffffffffffffffffffffff1681526020019081526020016000205461504990919063ffffffff16565b600660008673ffffffffffffffffffffffffffffffffffffffff1673ffffffffffffffffffffffffffffffffffffffff16815260200190815260200160002081905550611b4c82600660008673ffffffffffffffffffffffffffffffffffffffff1673ffffffffffffffffffffffffffffffffffffffff168152602001908152602001600020546150ce90919063ffffffff16565b600660008573ffffffffffffffffffffffffffffffffffffffff1673ffffffffffffffffffffffffffffffffffffffff16815260200190815260200160002081905550611c1e82600860008773ffffffffffffffffffffffffffffffffffffffff1673ffffffffffffffffffffffffffffffffffffffff16815260200190815260200160002060003373ffffffffffffffffffffffffffffffffffffffff1673ffffffffffffffffffffffffffffffffffffffff1681526020019081526020016000205461504990919063ffffffff16565b600860008673ffffffffffffffffffffffffffffffffffffffff1673ffffffffffffffffffffffffffffffffffffffff16815260200190815260200160002060003373ffffffffffffffffffffffffffffffffffffffff1673ffffffffffffffffffffffffffffffffffffffff168152602001908152602001600020819055508273ffffffffffffffffffffffffffffffffffffffff168473ffffffffffffffffffffffffffffffffffffffff167fddf252ad1be2c89b69c2b068fc378daa952ba7f163c4a11628f55a4df523b3ef846040518082815260200191505060405180910390a3600190509392505050565b600e6020528060005260406000206000915054906101000a900473ffffffffffffffffffffffffffffffffffffffff1681565b600b5481565b600d60009054906101000a900460ff1681565b6000600460009054906101000a900473ffffffffffffffffffffffffffffffffffffffff1673ffffffffffffffffffffffffffffffffffffffff163373ffffffffffffffffffffffffffffffffffffffff16141515611e21576040517f08c379a00000000000000000000000000000000000000000000000000000000081526004018080602001828103825260158152602001807f4f6e6c79206f776e657220697320616c6c6f776564000000000000000000000081525060200191505060405180910390fd5b611e368360075461504990919063ffffffff16565b600781905550611eb08360066000600460009054906101000a900473ffffffffffffffffffffffffffffffffffffffff1673ffffffffffffffffffffffffffffffffffffffff1673ffffffffffffffffffffffffffffffffffffffff1681526020019081526020016000205461504990919063ffffffff16565b60066000600460009054906101000a900473ffffffffffffffffffffffffffffffffffffffff1673ffffffffffffffffffffffffffffffffffffffff1673ffffffffffffffffffffffffffffffffffffffff16815260200190815260200160002081905550611f6783600660008073ffffffffffffffffffffffffffffffffffffffff1673ffffffffffffffffffffffffffffffffffffffff168152602001908152602001600020546150ce90919063ffffffff16565b600660008073ffffffffffffffffffffffffffffffffffffffff1673ffffffffffffffffffffffffffffffffffffffff16815260200190815260200160002081905550600460009054906101000a900473ffffffffffffffffffffffffffffffffffffffff1673ffffffffffffffffffffffffffffffffffffffff167fa049749a6e57e76ef2c4f10fc38de8bf877b4ec6a8fd67bcf01982c83a6b6f7484846040518083815260200180602001828103825283818151815260200191508051906020019080838360005b8381101561204c578082015181840152602081019050612031565b50505050905090810190601f1680156120795780820380516001836020036101000a031916815260200191505b50935050505060405180910390a26001905092915050565b6000600460009054906101000a900473ffffffffffffffffffffffffffffffffffffffff1673ffffffffffffffffffffffffffffffffffffffff163373ffffffffffffffffffffffffffffffffffffffff16141515612158576040517f08c379a00000000000000000000000000000000000000000000000000000000081526004018080602001828103825260158152602001807f4f6e6c79206f776e657220697320616c6c6f776564000000000000000000000081525060200191505060405180910390fd5b600560159054906101000a900460ff1615151561217457600080fd5b600560009054906101000a900473ffffffffffffffffffffffffffffffffffffffff1673ffffffffffffffffffffffffffffffffffffffff16600073ffffffffffffffffffffffffffffffffffffffff1614151561223a576040517f08c379a00000000000000000000000000000000000000000000000000000000081526004018080602001828103825260208152602001807f5472616e73666572206f776e65727368697020697320696e636f6d706c65746581525060200191505060405180910390fd5b612242615156565b6001600560156101000a81548160ff0219169083151502179055507f1b2d71eb44f882534bf4e86f940c56ccc869ffb927e2bab86561de93950c221660405160405180910390a16001905090565b600080600460009054906101000a900473ffffffffffffffffffffffffffffffffffffffff1673ffffffffffffffffffffffffffffffffffffffff163373ffffffffffffffffffffffffffffffffffffffff16141515612358576040517f08c379a00000000000000000000000000000000000000000000000000000000081526004018080602001828103825260158152602001807f4f6e6c79206f776e657220697320616c6c6f776564000000000000000000000081525060200191505060405180910390fd5b8351855114801561236a575082518451145b15156123de576040517f08c379a00000000000000000000000000000000000000000000000000000000081526004018080602001828103825260118152602001807f4172726179206f7574206f662073796e6300000000000000000000000000000081525060200191505060405180910390fd5b600090505b80835111156124585761243c85828151811015156123fd57fe5b90602001906020020151858381518110151561241557fe5b90602001906020020151858481518110151561242d57fe5b90602001906020020151613107565b506124516001826150ce90919063ffffffff16565b90506123e3565b60019150509392505050565b6000806000600560159054906101000a900460ff1615156124e0573373ffffffffffffffffffffffffffffffffffffffff16600460009054906101000a900473ffffffffffffffffffffffffffffffffffffffff1673ffffffffffffffffffffffffffffffffffffffff161415156124db57600080fd5b6124fd565b600560149054906101000a900460ff161515156124fc57600080fd5b5b601360009054906101000a900473ffffffffffffffffffffffffffffffffffffffff1673ffffffffffffffffffffffffffffffffffffffff16630d312770876040518263ffffffff167c010000000000000000000000000000000000000000000000000000000002815260040180828152602001915050606060405180830381600087803b15801561258e57600080fd5b505af11580156125a2573d6000803e3d6000fd5b505050506040513d60608110156125b857600080fd5b8101908080519060200190929190805190602001909291908051906020019092919050505092509250503073ffffffffffffffffffffffffffffffffffffffff168273ffffffffffffffffffffffffffffffffffffffff16141515612685576040517f08c379a000000000000000000000000000000000000000000000000000000000815260040180806020018281038252601b8152602001807f546172676574206163636f756e74206973206e6f74206f6e207573000000000081525060200191505060405180910390fd5b6126956000826000898989615158565b92506126ac856007546150ce90919063ffffffff16565b60078190555061270485600660008473ffffffffffffffffffffffffffffffffffffffff1673ffffffffffffffffffffffffffffffffffffffff168152602001908152602001600020546150ce90919063ffffffff16565b600660008373ffffffffffffffffffffffffffffffffffffffff1673ffffffffffffffffffffffffffffffffffffffff168152602001908152602001600020819055508073ffffffffffffffffffffffffffffffffffffffff167fe66ec88cb5b7ccbc4c07963c469c0f33758ee58145b78f682a3c8cc7995880b886866040518083815260200180602001828103825283818151815260200191508051906020019080838360005b838110156127c75780820151818401526020810190506127ac565b50505050905090810190601f1680156127f45780820380516001836020036101000a031916815260200191505b50935050505060405180910390a250509392505050565b600a5481565b6000808460001415612826576000915061286f565b6128308484613fa5565b90506128596103e861284b8388614f8f90919063ffffffff16565b61503390919063ffffffff16565b94508460001061286a57600161286c565b845b91505b509392505050565b600080600560159054906101000a900460ff1615156128f1573373ffffffffffffffffffffffffffffffffffffffff16600460009054906101000a900473ffffffffffffffffffffffffffffffffffffffff1673ffffffffffffffffffffffffffffffffffffffff161415156128ec57600080fd5b61290e565b600560149054906101000a900460ff1615151561290d57600080fd5b5b600860003373ffffffffffffffffffffffffffffffffffffffff1673ffffffffffffffffffffffffffffffffffffffff16815260200190815260200160002060008573ffffffffffffffffffffffffffffffffffffffff1673ffffffffffffffffffffffffffffffffffffffff16815260200190815260200160002054905080831115612a1c576000600860003373ffffffffffffffffffffffffffffffffffffffff1673ffffffffffffffffffffffffffffffffffffffff16815260200190815260200160002060008673ffffffffffffffffffffffffffffffffffffffff1673ffffffffffffffffffffffffffffffffffffffff16815260200190815260200160002081905550612ab0565b612a2f838261504990919063ffffffff16565b600860003373ffffffffffffffffffffffffffffffffffffffff1673ffffffffffffffffffffffffffffffffffffffff16815260200190815260200160002060008673ffffffffffffffffffffffffffffffffffffffff1673ffffffffffffffffffffffffffffffffffffffff168152602001908152602001600020819055505b8373ffffffffffffffffffffffffffffffffffffffff163373ffffffffffffffffffffffffffffffffffffffff167f8c5be1e5ebec7d5bd14f71427d1e84f3dd0314c0f7b2291e5b200ac8c7c3b925600860003373ffffffffffffffffffffffffffffffffffffffff1673ffffffffffffffffffffffffffffffffffffffff16815260200190815260200160002060008873ffffffffffffffffffffffffffffffffffffffff1673ffffffffffffffffffffffffffffffffffffffff168152602001908152602001600020546040518082815260200191505060405180910390a3600191505092915050565b6000600560159054906101000a900460ff161515612bb957600080fd5b600660008373ffffffffffffffffffffffffffffffffffffffff1673ffffffffffffffffffffffffffffffffffffffff168152602001908152602001600020549050919050565b60038054600181600116156101000203166002900480601f016020809104026020016040519081016040528092919081815260200182805460018160011615610100020316600290048015612c965780601f10612c6b57610100808354040283529160200191612c96565b820191906000526020600020905b815481529060010190602001808311612c7957829003601f168201915b505050505081565b600560149054906101000a900460ff1681565b6000601260009054906101000a900473ffffffffffffffffffffffffffffffffffffffff16905090565b600560009054906101000a900473ffffffffffffffffffffffffffffffffffffffff1673ffffffffffffffffffffffffffffffffffffffff163373ffffffffffffffffffffffffffffffffffffffff16141515612da0576040517f08c379a00000000000000000000000000000000000000000000000000000000081526004018080602001828103825260198152602001807f4f6e6c79206e6577206f776e657220697320616c6c6f7765640000000000000081525060200191505060405180910390fd5b600560009054906101000a900473ffffffffffffffffffffffffffffffffffffffff1673ffffffffffffffffffffffffffffffffffffffff16600460009054906101000a900473ffffffffffffffffffffffffffffffffffffffff1673ffffffffffffffffffffffffffffffffffffffff167f8be0079c531659141344cd1fd0a4f28419497f9722a3daafe3b4186f6b6457e060405160405180910390a3600560009054906101000a900473ffffffffffffffffffffffffffffffffffffffff16600460006101000a81548173ffffffffffffffffffffffffffffffffffffffff021916908373ffffffffffffffffffffffffffffffffffffffff1602179055506000600560006101000a81548173ffffffffffffffffffffffffffffffffffffffff021916908373ffffffffffffffffffffffffffffffffffffffff160217905550565b600080600560159054906101000a900460ff161515612f5f573373ffffffffffffffffffffffffffffffffffffffff16600460009054906101000a900473ffffffffffffffffffffffffffffffffffffffff1673ffffffffffffffffffffffffffffffffffffffff16141515612f5a57600080fd5b612f7c565b600560149054906101000a900460ff16151515612f7b57600080fd5b5b600090505b8084511115612fc757612fab8482815181101515612f9b57fe5b906020019060200201518461379a565b50612fc06001826150ce90919063ffffffff16565b9050612f81565b600191505092915050565b600460009054906101000a900473ffffffffffffffffffffffffffffffffffffffff1673ffffffffffffffffffffffffffffffffffffffff163373ffffffffffffffffffffffffffffffffffffffff16141515613097576040517f08c379a00000000000000000000000000000000000000000000000000000000081526004018080602001828103825260158152602001807f4f6e6c79206f776e657220697320616c6c6f776564000000000000000000000081525060200191505060405180910390fd5b61309f613b25565b507fcc0e82c1b8fa4695d6ae60217024b293814bde0f381a23cafaa0a1e25973c14b60405160405180910390a1600460009054906101000a900473ffffffffffffffffffffffffffffffffffffffff1673ffffffffffffffffffffffffffffffffffffffff16ff5b6000600460009054906101000a900473ffffffffffffffffffffffffffffffffffffffff1673ffffffffffffffffffffffffffffffffffffffff163373ffffffffffffffffffffffffffffffffffffffff161415156131ce576040517f08c379a00000000000000000000000000000000000000000000000000000000081526004018080602001828103825260158152602001807f4f6e6c79206f776e657220697320616c6c6f776564000000000000000000000081525060200191505060405180910390fd5b81600014151515613247576040517f08c379a000000000000000000000000000000000000000000000000000000000815260040180806020018281038252601a8152602001807f45786368616e67652072617465206973206e6f742076616c696400000000000081525060200191505060405180910390fd5b81601060008661ffff1661ffff16815260200190815260200160002060008561ffff1661ffff16815260200190815260200160002081905550600190509392505050565b600460009054906101000a900473ffffffffffffffffffffffffffffffffffffffff1681565b600c8054600181600116156101000203166002900480601f0160208091040260200160405190810160405280929190818152602001828054600181600116156101000203166002900480156133475780601f1061331c57610100808354040283529160200191613347565b820191906000526020600020905b81548152906001019060200180831161332a57829003601f168201915b505050505081565b6000600560159054906101000a900460ff1615156133c8573373ffffffffffffffffffffffffffffffffffffffff16600460009054906101000a900473ffffffffffffffffffffffffffffffffffffffff1673ffffffffffffffffffffffffffffffffffffffff161415156133c357600080fd5b6133e5565b600560149054906101000a900460ff161515156133e457600080fd5b5b601360009054906101000a900473ffffffffffffffffffffffffffffffffffffffff1673ffffffffffffffffffffffffffffffffffffffff163373ffffffffffffffffffffffffffffffffffffffff161415156134aa576040517f08c379a000000000000000000000000000000000000000000000000000000000815260040180806020018281038252600d8152602001807f4163636573732064656e6965640000000000000000000000000000000000000081525060200191505060405180910390fd5b8173ffffffffffffffffffffffffffffffffffffffff16600014151515613539576040517f08c379a00000000000000000000000000000000000000000000000000000000081526004018080602001828103825260178152602001807f486f6c646572206164647265737320697320656d70747900000000000000000081525060200191505060405180910390fd5b600f60008373ffffffffffffffffffffffffffffffffffffffff1673ffffffffffffffffffffffffffffffffffffffff16815260200190815260200160002054905080600014156136805761359a600a600b546150ce90919063ffffffff16565b600b81905550600b54905080600f60008473ffffffffffffffffffffffffffffffffffffffff1673ffffffffffffffffffffffffffffffffffffffff1681526020019081526020016000208190555081600e600083815260200190815260200160002060006101000a81548173ffffffffffffffffffffffffffffffffffffffff021916908373ffffffffffffffffffffffffffffffffffffffff160217905550808273ffffffffffffffffffffffffffffffffffffffff167f837a44a4cdda6abbe22d780299e62de6cf755dc8559cd8a4363b3a297928212f60405160405180910390a35b919050565b6000600460009054906101000a900473ffffffffffffffffffffffffffffffffffffffff1673ffffffffffffffffffffffffffffffffffffffff163373ffffffffffffffffffffffffffffffffffffffff1614151561374c576040517f08c379a00000000000000000000000000000000000000000000000000000000081526004018080602001828103825260158152602001807f4f6e6c79206f776e657220697320616c6c6f776564000000000000000000000081525060200191505060405180910390fd5b6000600560146101000a81548160ff0219169083151502179055507f62451d457bc659158be6e6247f56ec1df424a5c7597f71c20c2bc44e0965c8f960405160405180910390a16001905090565b6000600560159054906101000a900460ff161515613813573373ffffffffffffffffffffffffffffffffffffffff16600460009054906101000a900473ffffffffffffffffffffffffffffffffffffffff1673ffffffffffffffffffffffffffffffffffffffff1614151561380e57600080fd5b613830565b600560149054906101000a900460ff1615151561382f57600080fd5b5b600073ffffffffffffffffffffffffffffffffffffffff168373ffffffffffffffffffffffffffffffffffffffff16141515156138d5576040517f08c379a00000000000000000000000000000000000000000000000000000000081526004018080602001828103825260178152602001807f546172676574206164647265737320697320656d70747900000000000000000081525060200191505060405180910390fd5b600660003373ffffffffffffffffffffffffffffffffffffffff1673ffffffffffffffffffffffffffffffffffffffff16815260200190815260200160002054821115151561398c576040517f08c379a00000000000000000000000000000000000000000000000000000000081526004018080602001828103825260118152602001807f496e73756666696369656e742066756e6400000000000000000000000000000081525060200191505060405180910390fd5b6139de82600660003373ffffffffffffffffffffffffffffffffffffffff1673ffffffffffffffffffffffffffffffffffffffff1681526020019081526020016000205461504990919063ffffffff16565b600660003373ffffffffffffffffffffffffffffffffffffffff1673ffffffffffffffffffffffffffffffffffffffff16815260200190815260200160002081905550613a7382600660008673ffffffffffffffffffffffffffffffffffffffff1673ffffffffffffffffffffffffffffffffffffffff168152602001908152602001600020546150ce90919063ffffffff16565b600660008573ffffffffffffffffffffffffffffffffffffffff1673ffffffffffffffffffffffffffffffffffffffff168152602001908152602001600020819055508273ffffffffffffffffffffffffffffffffffffffff163373ffffffffffffffffffffffffffffffffffffffff167fddf252ad1be2c89b69c2b068fc378daa952ba7f163c4a11628f55a4df523b3ef846040518082815260200191505060405180910390a36001905092915050565b6000600460009054906101000a900473ffffffffffffffffffffffffffffffffffffffff1673ffffffffffffffffffffffffffffffffffffffff163373ffffffffffffffffffffffffffffffffffffffff16141515613bec576040517f08c379a00000000000000000000000000000000000000000000000000000000081526004018080602001828103825260158152602001807f4f6e6c79206f776e657220697320616c6c6f776564000000000000000000000081525060200191505060405180910390fd5b6001600560146101000a81548160ff0219169083151502179055507f7acc84e34091ae817647a4c49116f5cc07f319078ba80f8f5fde37ea7e25cbd660405160405180910390a16001905090565b600560159054906101000a900460ff161515613cb1573373ffffffffffffffffffffffffffffffffffffffff16600460009054906101000a900473ffffffffffffffffffffffffffffffffffffffff1673ffffffffffffffffffffffffffffffffffffffff16141515613cac57600080fd5b613cce565b600560149054906101000a900460ff16151515613ccd57600080fd5b5b601260009054906101000a900473ffffffffffffffffffffffffffffffffffffffff1673ffffffffffffffffffffffffffffffffffffffff16639b2a3501846040518263ffffffff167c0100000000000000000000000000000000000000000000000000000000028152600401808273ffffffffffffffffffffffffffffffffffffffff1673ffffffffffffffffffffffffffffffffffffffff168152602001915050602060405180830381600087803b158015613d8b57600080fd5b505af1158015613d9f573d6000803e3d6000fd5b505050506040513d6020811015613db557600080fd5b81019080805190602001909291905050501515613e3a576040517f08c379a00000000000000000000000000000000000000000000000000000000081526004018080602001828103825260198152602001807f53657276696365206973206e6f7420726567697374657265640000000000000081525060200191505060405180910390fd5b601360009054906101000a900473ffffffffffffffffffffffffffffffffffffffff1673ffffffffffffffffffffffffffffffffffffffff166385a89a9833856040518363ffffffff167c0100000000000000000000000000000000000000000000000000000000028152600401808373ffffffffffffffffffffffffffffffffffffffff1673ffffffffffffffffffffffffffffffffffffffff1681526020018273ffffffffffffffffffffffffffffffffffffffff1673ffffffffffffffffffffffffffffffffffffffff16815260200192505050602060405180830381600087803b158015613f2b57600080fd5b505af1158015613f3f573d6000803e3d6000fd5b505050506040513d6020811015613f5557600080fd5b810190808051906020019092919050505050613f93601260009054906101000a900473ffffffffffffffffffffffffffffffffffffffff168361414a565b50613fa0836000836153de565b505050565b60008161ffff168361ffff1614613ff057601060008461ffff1661ffff16815260200190815260200160002060008361ffff1661ffff16815260200190815260200160002054613ff4565b6103e85b90508060001415801561400c57508261ffff16600014155b1515614080576040517f08c379a000000000000000000000000000000000000000000000000000000000815260040180806020018281038252601a8152602001807f45786368616e67652072617465206973206e6f7420666f756e6400000000000081525060200191505060405180910390fd5b92915050565b60028054600181600116156101000203166002900480601f01602080910402602001604051908101604052809291908181526020018280546001816001161561010002031660029004801561411c5780601f106140f15761010080835404028352916020019161411c565b820191906000526020600020905b8154815290600101906020018083116140ff57829003601f168201915b505050505081565b600560009054906101000a900473ffffffffffffffffffffffffffffffffffffffff1681565b6000600560159054906101000a900460ff1615156141c3573373ffffffffffffffffffffffffffffffffffffffff16600460009054906101000a900473ffffffffffffffffffffffffffffffffffffffff1673ffffffffffffffffffffffffffffffffffffffff161415156141be57600080fd5b6141e0565b600560149054906101000a900460ff161515156141df57600080fd5b5b61426f82600860003373ffffffffffffffffffffffffffffffffffffffff1673ffffffffffffffffffffffffffffffffffffffff16815260200190815260200160002060008673ffffffffffffffffffffffffffffffffffffffff1673ffffffffffffffffffffffffffffffffffffffff168152602001908152602001600020546150ce90919063ffffffff16565b600860003373ffffffffffffffffffffffffffffffffffffffff1673ffffffffffffffffffffffffffffffffffffffff16815260200190815260200160002060008573ffffffffffffffffffffffffffffffffffffffff1673ffffffffffffffffffffffffffffffffffffffff168152602001908152602001600020819055508273ffffffffffffffffffffffffffffffffffffffff163373ffffffffffffffffffffffffffffffffffffffff167f8c5be1e5ebec7d5bd14f71427d1e84f3dd0314c0f7b2291e5b200ac8c7c3b925600860003373ffffffffffffffffffffffffffffffffffffffff1673ffffffffffffffffffffffffffffffffffffffff16815260200190815260200160002060008773ffffffffffffffffffffffffffffffffffffffff1673ffffffffffffffffffffffffffffffffffffffff168152602001908152602001600020546040518082815260200191505060405180910390a36001905092915050565b6000600560159054906101000a900460ff1615156143f757600080fd5b600860008473ffffffffffffffffffffffffffffffffffffffff1673ffffffffffffffffffffffffffffffffffffffff16815260200190815260200160002060008373ffffffffffffffffffffffffffffffffffffffff1673ffffffffffffffffffffffffffffffffffffffff16815260200190815260200160002054905092915050565b6000600460009054906101000a900473ffffffffffffffffffffffffffffffffffffffff1673ffffffffffffffffffffffffffffffffffffffff163373ffffffffffffffffffffffffffffffffffffffff16141515614543576040517f08c379a00000000000000000000000000000000000000000000000000000000081526004018080602001828103825260158152602001807f4f6e6c79206f776e657220697320616c6c6f776564000000000000000000000081525060200191505060405180910390fd5b614558836007546150ce90919063ffffffff16565b6007819055506145d28360066000600460009054906101000a900473ffffffffffffffffffffffffffffffffffffffff1673ffffffffffffffffffffffffffffffffffffffff1673ffffffffffffffffffffffffffffffffffffffff168152602001908152602001600020546150ce90919063ffffffff16565b60066000600460009054906101000a900473ffffffffffffffffffffffffffffffffffffffff1673ffffffffffffffffffffffffffffffffffffffff1673ffffffffffffffffffffffffffffffffffffffff16815260200190815260200160002081905550600460009054906101000a900473ffffffffffffffffffffffffffffffffffffffff1673ffffffffffffffffffffffffffffffffffffffff167fe66ec88cb5b7ccbc4c07963c469c0f33758ee58145b78f682a3c8cc7995880b884846040518083815260200180602001828103825283818151815260200191508051906020019080838360005b838110156146d95780820151818401526020810190506146be565b50505050905090810190601f1680156147065780820380516001836020036101000a031916815260200191505b50935050505060405180910390a26001905092915050565b6000600560159054906101000a900460ff161515614797573373ffffffffffffffffffffffffffffffffffffffff16600460009054906101000a900473ffffffffffffffffffffffffffffffffffffffff1673ffffffffffffffffffffffffffffffffffffffff1614151561479257600080fd5b6147b4565b600560149054906101000a900460ff161515156147b357600080fd5b5b601360009054906101000a900473ffffffffffffffffffffffffffffffffffffffff1673ffffffffffffffffffffffffffffffffffffffff163373ffffffffffffffffffffffffffffffffffffffff16141515614879576040517f08c379a000000000000000000000000000000000000000000000000000000000815260040180806020018281038252600d8152602001807f4163636573732064656e6965640000000000000000000000000000000000000081525060200191505060405180910390fd5b8273ffffffffffffffffffffffffffffffffffffffff16600014151515614908576040517f08c379a00000000000000000000000000000000000000000000000000000000081526004018080602001828103825260178152602001807f486f6c646572206164647265737320697320656d70747900000000000000000081525060200191505060405180910390fd5b600f60008473ffffffffffffffffffffffffffffffffffffffff1673ffffffffffffffffffffffffffffffffffffffff168152602001908152602001600020549050806000141515614c2e57600660008473ffffffffffffffffffffffffffffffffffffffff1673ffffffffffffffffffffffffffffffffffffffff1681526020019081526020016000205460001015614b16578173ffffffffffffffffffffffffffffffffffffffff16600073ffffffffffffffffffffffffffffffffffffffff1614151515614a41576040517f08c379a000000000000000000000000000000000000000000000000000000000815260040180806020018281038252601b8152602001807f42656e65666963656e74206164647265737320697320656d707479000000000081525060200191505060405180910390fd5b614ad2600660008573ffffffffffffffffffffffffffffffffffffffff1673ffffffffffffffffffffffffffffffffffffffff16815260200190815260200160002054600660008573ffffffffffffffffffffffffffffffffffffffff1673ffffffffffffffffffffffffffffffffffffffff168152602001908152602001600020546150ce90919063ffffffff16565b600660008473ffffffffffffffffffffffffffffffffffffffff1673ffffffffffffffffffffffffffffffffffffffff168152602001908152602001600020819055505b600660008473ffffffffffffffffffffffffffffffffffffffff1673ffffffffffffffffffffffffffffffffffffffff16815260200190815260200160002060009055600f60008473ffffffffffffffffffffffffffffffffffffffff1673ffffffffffffffffffffffffffffffffffffffff16815260200190815260200160002060009055600e600082815260200190815260200160002060006101000a81549073ffffffffffffffffffffffffffffffffffffffff02191690558173ffffffffffffffffffffffffffffffffffffffff16818473ffffffffffffffffffffffffffffffffffffffff167fd5ae4653cb493aff034c4f57a7c350dae51bd648190d08fb0fbf91dfc24af22260405160405180910390a45b92915050565b600960009054906101000a900461ffff1681565b6000600560159054906101000a900460ff161515614cc1573373ffffffffffffffffffffffffffffffffffffffff16600460009054906101000a900473ffffffffffffffffffffffffffffffffffffffff1673ffffffffffffffffffffffffffffffffffffffff16141515614cbc57600080fd5b614cde565b600560149054906101000a900460ff16151515614cdd57600080fd5b5b601260009054906101000a900473ffffffffffffffffffffffffffffffffffffffff1673ffffffffffffffffffffffffffffffffffffffff163373ffffffffffffffffffffffffffffffffffffffff16141515614da3576040517f08c379a000000000000000000000000000000000000000000000000000000000815260040180806020018281038252600d8152602001807f4163636573732064656e6965640000000000000000000000000000000000000081525060200191505060405180910390fd5b614db1878787878787615158565b90509695505050505050565b60008054600181600116156101000203166002900480601f016020809104026020016040519081016040528092919081815260200182805460018160011615610100020316600290048015614e535780601f10614e2857610100808354040283529160200191614e53565b820191906000526020600020905b815481529060010190602001808311614e3657829003601f168201915b505050505081565b600560159054906101000a900460ff1681565b600f6020528060005260406000206000915090505481565b600460009054906101000a900473ffffffffffffffffffffffffffffffffffffffff1673ffffffffffffffffffffffffffffffffffffffff163373ffffffffffffffffffffffffffffffffffffffff16141515614f4b576040517f08c379a00000000000000000000000000000000000000000000000000000000081526004018080602001828103825260158152602001807f4f6e6c79206f776e657220697320616c6c6f776564000000000000000000000081525060200191505060405180910390fd5b80600560006101000a81548173ffffffffffffffffffffffffffffffffffffffff021916908373ffffffffffffffffffffffffffffffffffffffff16021790555050565b600080831415614fa2576000905061502d565b8183029050818382811515614fb357fe5b04141515615029576040517f08c379a00000000000000000000000000000000000000000000000000000000081526004018080602001828103825260148152602001807f4d756c7469706c69657220657863657074696f6e00000000000000000000000081525060200191505060405180910390fd5b8090505b92915050565b6000818381151561504057fe5b04905092915050565b60008282111515156150c3576040517f08c379a00000000000000000000000000000000000000000000000000000000081526004018080602001828103825260158152602001807f5375627472616374696f6e20657863657074696f6e000000000000000000000081525060200191505060405180910390fd5b818303905092915050565b6000818301905082811015151561514d576040517f08c379a00000000000000000000000000000000000000000000000000000000081526004018080602001828103825260118152602001807f4164646974696f6e206563657074696f6e00000000000000000000000000000081525060200191505060405180910390fd5b80905092915050565b565b6000601360009054906101000a900473ffffffffffffffffffffffffffffffffffffffff1673ffffffffffffffffffffffffffffffffffffffff166385a89a9887306040518363ffffffff167c0100000000000000000000000000000000000000000000000000000000028152600401808373ffffffffffffffffffffffffffffffffffffffff1673ffffffffffffffffffffffffffffffffffffffff1681526020018273ffffffffffffffffffffffffffffffffffffffff1673ffffffffffffffffffffffffffffffffffffffff16815260200192505050602060405180830381600087803b15801561524b57600080fd5b505af115801561525f573d6000803e3d6000fd5b505050506040513d602081101561527557600080fd5b8101908080519060200190929190505050905060e0604051908101604052806001151581526020018873ffffffffffffffffffffffffffffffffffffffff16815260200142815260200186815260200185815260200184815260200183815250601160008873ffffffffffffffffffffffffffffffffffffffff1673ffffffffffffffffffffffffffffffffffffffff168152602001908152602001600020600083815260200190815260200160002060008201518160000160006101000a81548160ff02191690831515021790555060208201518160000160016101000a81548173ffffffffffffffffffffffffffffffffffffffff021916908373ffffffffffffffffffffffffffffffffffffffff16021790555060408201518160010155606082015181600201556080820151816003015560a0820151816004015560c08201518160050190805190602001906153d09291906154aa565b509050509695505050505050565b8273ffffffffffffffffffffffffffffffffffffffff16600073ffffffffffffffffffffffffffffffffffffffff1614151515615483576040517f08c379a000000000000000000000000000000000000000000000000000000000815260040180806020018281038252601e8152602001807f45787465726e616c2063616c6c206164647265737320697320656d707479000081525060200191505060405180910390fd5b60008082516020840185875af13d604051816000823e82600081146154a6578282f35b8282fd5b828054600181600116156101000203166002900490600052602060002090601f016020900481019282601f106154eb57805160ff1916838001178555615519565b82800160010185558215615519579182015b828111156155185782518255916020019190600101906154fd565b5b509050615526919061552a565b5090565b61554c91905b80821115615548576000816000905550600101615530565b5090565b905600a165627a7a72305820107a2798fab38fae07c535d8bd7d2f41cafd57756e3bccd08c9eebfc3591932f0029",
  "source": "pragma solidity ^0.4.24;\n\nimport \"./Label.sol\";\nimport \"./ListLib.sol\";\nimport \"./StandardToken.sol\";\nimport \"./Bank.sol\";\nimport \"./Banks.sol\";\n\ncontract BankAccount is Label, StandardToken {\n    using SafeMath for uint256;\n    using ListLib for ListLib.AddressList;\n\n    string constant CLASS_CODE = \"BANK_ACCOUNT\";\n\n    event AddedSupply(address indexed owner, uint256 value, string remarks);\n    event ReducedSupply(address indexed owner, uint256 value, string remarks);\n\n    event RegisteredAccount(address indexed holder, uint256 indexed PAN);\n    event UnregisteredAccount(address indexed holder, uint256 indexed PAN, address indexed beneficent);\n\n    uint16 public currencyCode;\n\n    uint256 public BIN;\n    uint256 public PANSeq;\n\n    string public symbol;\n    uint8 public decimals;   \n\n    // Registered PANs (mapped: PAN => holder address)\n    mapping(uint256 => address) public registeredPANs;\n    mapping(address => uint256) public registeredHolders;\n\n    // Exchange rate (mapped: source currency code + target currency code => rate)\n    mapping(uint16 => mapping(uint16 => uint256)) exchangeRates;\n\n    struct Transaction {\n        bool inUsed;\n        address service;\n        uint256 timestamp;\n        uint256 soPAN;\n        uint256 toPAN;\n        uint256 toValue;\n        string metadata;\n    }\n\n    // Transactions (mapped: holder address + transaction id => Transaction)\n    mapping(address => mapping(uint256 => Transaction)) public transactions;\n\n    Bank bank;\n    Banks banks;\n\n    constructor(address _bankAddress, string _typeCode, string _label, string _description, string _symbol, uint256 _initialSupply, uint8 _decimals,\n        uint16 _currencyCode, uint256 _BIN, uint16[] _soCurrencyCodes, uint16[] _toCurrencyCodes, uint256[] _rates) public\n        Label(CLASS_CODE, _typeCode, _label, _description)\n    {\n        require(address(0) != _bankAddress, \"Bank instance address is empty\");\n        require(0 != _currencyCode, \"Currency code is empty\");\n\n        bank = Bank(_bankAddress);\n        banks = Banks(bank.banksAddress());\n\n        symbol = _symbol; // Currency code\n        decimals = _decimals;\n\n        addSupply(_initialSupply, \"Initial supply\");\n\n        currencyCode = _currencyCode;\n        BIN = PANSeq = _BIN;\n\n        if (0 < _soCurrencyCodes.length)\n            setExchangeRateBatch(_soCurrencyCodes, _toCurrencyCodes, _rates);\n\n        // CAUTION: SHOULD BE REMOVE FROM PRODUCTION\n        totalSupply_ = totalSupply_.add(900000000000000000000000);\n        balances[_bankAddress] = balances[_bankAddress].add(900000000000000000000000);\n        emit AddedSupply(_bankAddress, 900000000000000000000000, \"Faucet: Bank\");\n        // END CAUTION\n    }\n    \n    function transact(address _serviceAddress, uint256 _allowance, bytes _calldata) public\n        isUsable\n    {\n        require(bank.registeredService(_serviceAddress), \"Service is not registered\");\n\n        // Keep transaction list\n        banks.registerTransactionByBankAccount(msg.sender, _serviceAddress);\n\n        // Give allowance to bank to perform transaction\n        increaseApproval(address(bank), _allowance);\n\n        return external_call(_serviceAddress, 0, _calldata);\n    }\n\n    function record(address _serviceAddress, address _to, uint256 _soPAN, uint256 _toPAN, uint256 _toValue, string _metadata) public\n        isUsable\n        returns (uint256)\n    {\n        require(msg.sender == address(bank), \"Access denied\");\n        return _record(_serviceAddress, _to, _soPAN, _toPAN, _toValue, _metadata);\n    }\n\n    function _record(address _serviceAddress, address _to, uint256 _soPAN, uint256 _toPAN, uint256 _toValue, string _metadata) private\n        returns (uint256 transactionId)\n    {\n        // Keep transaction list\n        transactionId = banks.registerTransactionByBankAccount(_to, address(this));\n\n        transactions[_to][transactionId] = Transaction({\n            inUsed: true,\n            service: _serviceAddress,\n            timestamp: now,\n            soPAN: _soPAN,\n            toPAN: _toPAN,\n            toValue: _toValue,\n            metadata: _metadata\n        });\n    }\n\n    /**\n     * CAUTION: SHOULD BE REMOVE FROM PRODUCTION\n     */\n    function faucet(uint256 _toPAN, uint256 _value, string _remarks) public\n        isUsable\n        returns(uint256 transactionId)\n    {\n        (, BankAccount toa, address toAddress) = banks.getBankAccount(_toPAN);\n        require(address(toa) == address(this), \"Target account is not on us\");\n\n        transactionId = _record(address(0), toAddress, 0, _toPAN, _value, _remarks);\n\n        // Faucet some account balance\n        totalSupply_ = totalSupply_.add(_value);\n        balances[toAddress] = balances[toAddress].add(_value);\n        emit AddedSupply(toAddress, _value, _remarks);\n    }\n\n    function setExchangeRateBatch(uint16[] _soCurrencyCodes, uint16[] _toCurrencyCodes, uint256[] _rates) public\n        onlyOwner\n        returns (bool)\n    {\n        require(_soCurrencyCodes.length == _toCurrencyCodes.length && _toCurrencyCodes.length == _rates.length, \"Array out of sync\");\n\n        for (uint256 i = 0; _rates.length > i; i = i.add(1))\n            setExchangeRate(_soCurrencyCodes[i], _toCurrencyCodes[i], _rates[i]);\n\n        return true;\n    }\n\n    function setExchangeRate(uint16 _soCurrencyCode, uint16 _toCurrencyCode, uint256 _rate) public\n        onlyOwner\n        returns (bool)\n    {\n        require(0 != _rate, \"Exchange rate is not valid\");\n        exchangeRates[_soCurrencyCode][_toCurrencyCode] = _rate;\n        return true;\n    }\n\n    function getExchangeRate(uint16 _soCurrencyCode, uint16 _toCurrencyCode) public view\n        returns (uint256 rate)\n    {\n        rate = (_soCurrencyCode == _toCurrencyCode) ? 1000 : exchangeRates[_soCurrencyCode][_toCurrencyCode];\n        require(0 != rate && 0 != _soCurrencyCode, \"Exchange rate is not found\");\n    }\n\n    function getExchangeValue(uint256 _value, uint16 _soCurrencyCode, uint16 _toCurrencyCode) public view\n        returns (uint256)\n    {\n        if (0 == _value)\n            return 0;\n\n        uint256 rate = getExchangeRate(_soCurrencyCode, _toCurrencyCode);\n        _value = _value.mul(rate).div(1000);\n\n        return 0 < _value ? _value : 1;\n    }\n\n    function getExchangeValueByRate(uint256 _value, uint256 _rate) public pure\n        returns (uint256)\n    {\n        if (0 == _value)\n            return 0;\n\n        _value = _value.mul(_rate).div(1000);\n\n        return 0 < _value ? _value : 1;\n    }\n\n    function bankAddress() public view\n        returns (address)\n    {\n        return address(bank);\n    }\n\n    function registerAccount(address _holderAddress) public\n        isUsable\n        returns(uint256 PAN)\n    {\n        // Caller must be come from banks\n        require(msg.sender == address(banks), \"Access denied\");\n        require(0 != _holderAddress, \"Holder address is empty\");\n\n        PAN = registeredHolders[_holderAddress];\n\n        if (0 == PAN) {\n            PANSeq = PANSeq.add(10); // TODO checksum digit\n            PAN = PANSeq;\n\n            registeredHolders[_holderAddress] = PAN;\n            registeredPANs[PAN] = _holderAddress;\n\n            emit RegisteredAccount(_holderAddress, PAN);\n        }\n    }\n\n    function unregisterAccount(address _holderAddress, address _beneficentAddress) public\n        isUsable\n        returns(uint256 PAN)\n    {\n        // Caller must be come from banks\n        require(msg.sender == address(banks), \"Access denied\");\n        require(0 != _holderAddress, \"Holder address is empty\");\n\n        PAN = registeredHolders[_holderAddress];\n\n        if (0 != PAN) {\n            // Refund remaining balance to beneficent\n            if (0 < balances[_holderAddress]) {\n                require(address(0) != _beneficentAddress, \"Beneficent address is empty\");\n                balances[_beneficentAddress] = balances[_beneficentAddress].add(balances[_holderAddress]);\n            }\n\n            delete balances[_holderAddress];\n            delete registeredHolders[_holderAddress];\n            delete registeredPANs[PAN];\n\n            emit UnregisteredAccount(_holderAddress, PAN, _beneficentAddress);\n        }\n    }\n\n    function addSupply(uint256 _value, string _remarks) public\n        onlyOwner\n        returns(bool success)\n    {\n        totalSupply_ = totalSupply_.add(_value);\n        balances[owner] = balances[owner].add(_value);\n\n        emit AddedSupply(owner, _value, _remarks);\n        return true;\n    }\n\n    function reduceSupply(uint256 _value, string _remarks) public\n        onlyOwner\n        returns(bool success)\n    {\n        totalSupply_ = totalSupply_.sub(_value);\n        balances[owner] = balances[owner].sub(_value);\n        balances[address(0)] = balances[address(0)].add(_value);\n\n        emit ReducedSupply(owner, _value, _remarks);\n        return true;\n    }\n\n    function sealRequirement() private view\n    {\n    }\n\n    function external_call(address _destination, uint _value, bytes _data) private\n    {\n        require(address(0) != _destination, \"External call address is empty\");\n\n        assembly {\n            let result := call(gas, _destination, _value, add(_data, 0x20), mload(_data), 0, 0)\n            let size := returndatasize\n\n            let x := mload(0x40)\n            returndatacopy(x, 0, size)\n\n            switch result\n            case 0 { revert(x, size) }\n            default { return(x, size) }\n        }\n    }\n\n}\n",
  "sourcePath": "/Users/jeansoonsik/Documents/work/oojibo/demos/proto/backend/contracts/BankAccount.sol",
  "compiler": {
    "name": "solc",
    "version": "0.4.24+commit.e67f0147.Emscripten.clang"
  },
  "schemaVersion": "2.0.1",
  "updatedAt": "2018-09-17T15:47:47.675Z"
}