{
  "contractName": "Banks",
  "abi": [
    {
      "constant": true,
      "inputs": [],
      "name": "typeCode",
      "outputs": [
        {
          "name": "",
          "type": "string"
        }
      ],
      "payable": false,
      "stateMutability": "view",
      "type": "function"
    },
    {
      "constant": true,
      "inputs": [
        {
          "name": "",
          "type": "address"
        },
        {
          "name": "",
          "type": "uint256"
        }
      ],
      "name": "transactions",
      "outputs": [
        {
          "name": "source",
          "type": "address"
        }
      ],
      "payable": false,
      "stateMutability": "view",
      "type": "function"
    },
    {
      "constant": true,
      "inputs": [
        {
          "name": "",
          "type": "uint256"
        }
      ],
      "name": "registeredPANs",
      "outputs": [
        {
          "name": "account",
          "type": "address"
        },
        {
          "name": "holder",
          "type": "address"
        }
      ],
      "payable": false,
      "stateMutability": "view",
      "type": "function"
    },
    {
      "constant": false,
      "inputs": [],
      "name": "seal",
      "outputs": [
        {
          "name": "success",
          "type": "bool"
        }
      ],
      "payable": false,
      "stateMutability": "nonpayable",
      "type": "function"
    },
    {
      "constant": true,
      "inputs": [
        {
          "name": "",
          "type": "address"
        }
      ],
      "name": "transactionsCount",
      "outputs": [
        {
          "name": "",
          "type": "uint256"
        }
      ],
      "payable": false,
      "stateMutability": "view",
      "type": "function"
    },
    {
      "constant": true,
      "inputs": [],
      "name": "description",
      "outputs": [
        {
          "name": "",
          "type": "string"
        }
      ],
      "payable": false,
      "stateMutability": "view",
      "type": "function"
    },
    {
      "constant": true,
      "inputs": [],
      "name": "stopped",
      "outputs": [
        {
          "name": "",
          "type": "bool"
        }
      ],
      "payable": false,
      "stateMutability": "view",
      "type": "function"
    },
    {
      "constant": false,
      "inputs": [],
      "name": "acceptOwnership",
      "outputs": [],
      "payable": false,
      "stateMutability": "nonpayable",
      "type": "function"
    },
    {
      "constant": false,
      "inputs": [],
      "name": "destroy",
      "outputs": [],
      "payable": false,
      "stateMutability": "nonpayable",
      "type": "function"
    },
    {
      "constant": true,
      "inputs": [],
      "name": "owner",
      "outputs": [
        {
          "name": "",
          "type": "address"
        }
      ],
      "payable": false,
      "stateMutability": "view",
      "type": "function"
    },
    {
      "constant": false,
      "inputs": [],
      "name": "resumeMe",
      "outputs": [
        {
          "name": "success",
          "type": "bool"
        }
      ],
      "payable": false,
      "stateMutability": "nonpayable",
      "type": "function"
    },
    {
      "constant": true,
      "inputs": [],
      "name": "registeredPANsCount",
      "outputs": [
        {
          "name": "",
          "type": "uint256"
        }
      ],
      "payable": false,
      "stateMutability": "view",
      "type": "function"
    },
    {
      "constant": false,
      "inputs": [],
      "name": "stopMe",
      "outputs": [
        {
          "name": "success",
          "type": "bool"
        }
      ],
      "payable": false,
      "stateMutability": "nonpayable",
      "type": "function"
    },
    {
      "constant": true,
      "inputs": [],
      "name": "label",
      "outputs": [
        {
          "name": "",
          "type": "string"
        }
      ],
      "payable": false,
      "stateMutability": "view",
      "type": "function"
    },
    {
      "constant": true,
      "inputs": [],
      "name": "newOwner",
      "outputs": [
        {
          "name": "",
          "type": "address"
        }
      ],
      "payable": false,
      "stateMutability": "view",
      "type": "function"
    },
    {
      "constant": true,
      "inputs": [],
      "name": "classCode",
      "outputs": [
        {
          "name": "",
          "type": "string"
        }
      ],
      "payable": false,
      "stateMutability": "view",
      "type": "function"
    },
    {
      "constant": true,
      "inputs": [],
      "name": "sealed",
      "outputs": [
        {
          "name": "",
          "type": "bool"
        }
      ],
      "payable": false,
      "stateMutability": "view",
      "type": "function"
    },
    {
      "constant": false,
      "inputs": [
        {
          "name": "_newOwner",
          "type": "address"
        }
      ],
      "name": "transferOwnership",
      "outputs": [],
      "payable": false,
      "stateMutability": "nonpayable",
      "type": "function"
    },
    {
      "inputs": [
        {
          "name": "_xCoinAddress",
          "type": "address"
        },
        {
          "name": "_typeCode",
          "type": "string"
        },
        {
          "name": "_label",
          "type": "string"
        },
        {
          "name": "_description",
          "type": "string"
        }
      ],
      "payable": false,
      "stateMutability": "nonpayable",
      "type": "constructor"
    },
    {
      "anonymous": false,
      "inputs": [
        {
          "indexed": true,
          "name": "bank",
          "type": "address"
        }
      ],
      "name": "AddedBank",
      "type": "event"
    },
    {
      "anonymous": false,
      "inputs": [
        {
          "indexed": true,
          "name": "bank",
          "type": "address"
        }
      ],
      "name": "RemovedBank",
      "type": "event"
    },
    {
      "anonymous": false,
      "inputs": [
        {
          "indexed": true,
          "name": "bank",
          "type": "address"
        },
        {
          "indexed": false,
          "name": "account",
          "type": "address"
        }
      ],
      "name": "AddedBankAccount",
      "type": "event"
    },
    {
      "anonymous": false,
      "inputs": [
        {
          "indexed": true,
          "name": "bank",
          "type": "address"
        },
        {
          "indexed": false,
          "name": "account",
          "type": "address"
        }
      ],
      "name": "RemovedBankAccount",
      "type": "event"
    },
    {
      "anonymous": false,
      "inputs": [
        {
          "indexed": true,
          "name": "bank",
          "type": "address"
        },
        {
          "indexed": false,
          "name": "service",
          "type": "address"
        }
      ],
      "name": "AddedBankService",
      "type": "event"
    },
    {
      "anonymous": false,
      "inputs": [
        {
          "indexed": true,
          "name": "bank",
          "type": "address"
        },
        {
          "indexed": false,
          "name": "service",
          "type": "address"
        }
      ],
      "name": "RemovedBankService",
      "type": "event"
    },
    {
      "anonymous": false,
      "inputs": [
        {
          "indexed": true,
          "name": "account",
          "type": "address"
        },
        {
          "indexed": true,
          "name": "holder",
          "type": "address"
        },
        {
          "indexed": false,
          "name": "PAN",
          "type": "uint256"
        }
      ],
      "name": "RegisteredAccount",
      "type": "event"
    },
    {
      "anonymous": false,
      "inputs": [
        {
          "indexed": true,
          "name": "account",
          "type": "address"
        },
        {
          "indexed": true,
          "name": "holder",
          "type": "address"
        },
        {
          "indexed": false,
          "name": "PAN",
          "type": "uint256"
        },
        {
          "indexed": false,
          "name": "beneficent",
          "type": "address"
        }
      ],
      "name": "UnregisteredAccount",
      "type": "event"
    },
    {
      "anonymous": false,
      "inputs": [],
      "name": "Stopped",
      "type": "event"
    },
    {
      "anonymous": false,
      "inputs": [],
      "name": "Resumed",
      "type": "event"
    },
    {
      "anonymous": false,
      "inputs": [],
      "name": "Sealed",
      "type": "event"
    },
    {
      "anonymous": false,
      "inputs": [],
      "name": "Destroyed",
      "type": "event"
    },
    {
      "anonymous": false,
      "inputs": [
        {
          "indexed": true,
          "name": "_from",
          "type": "address"
        },
        {
          "indexed": true,
          "name": "_to",
          "type": "address"
        }
      ],
      "name": "OwnershipTransferred",
      "type": "event"
    },
    {
      "constant": true,
      "inputs": [],
      "name": "xCoinAddress",
      "outputs": [
        {
          "name": "",
          "type": "address"
        }
      ],
      "payable": false,
      "stateMutability": "view",
      "type": "function"
    },
    {
      "constant": true,
      "inputs": [
        {
          "name": "_limit",
          "type": "uint256"
        }
      ],
      "name": "getTransactions",
      "outputs": [
        {
          "name": "",
          "type": "address[]"
        },
        {
          "name": "",
          "type": "uint256"
        }
      ],
      "payable": false,
      "stateMutability": "view",
      "type": "function"
    },
    {
      "constant": true,
      "inputs": [
        {
          "name": "_sender",
          "type": "address"
        },
        {
          "name": "_limit",
          "type": "uint256"
        }
      ],
      "name": "getTransactionsByAddress",
      "outputs": [
        {
          "name": "sources",
          "type": "address[]"
        },
        {
          "name": "transactionId",
          "type": "uint256"
        }
      ],
      "payable": false,
      "stateMutability": "view",
      "type": "function"
    },
    {
      "constant": true,
      "inputs": [],
      "name": "getTransactionId",
      "outputs": [
        {
          "name": "",
          "type": "uint256"
        }
      ],
      "payable": false,
      "stateMutability": "view",
      "type": "function"
    },
    {
      "constant": true,
      "inputs": [
        {
          "name": "_sender",
          "type": "address"
        }
      ],
      "name": "getTransactionIdByAddress",
      "outputs": [
        {
          "name": "",
          "type": "uint256"
        }
      ],
      "payable": false,
      "stateMutability": "view",
      "type": "function"
    },
    {
      "constant": false,
      "inputs": [
        {
          "name": "_sender",
          "type": "address"
        },
        {
          "name": "_sourceAddress",
          "type": "address"
        }
      ],
      "name": "registerTransactionByBankAccount",
      "outputs": [
        {
          "name": "",
          "type": "uint256"
        }
      ],
      "payable": false,
      "stateMutability": "nonpayable",
      "type": "function"
    },
    {
      "constant": false,
      "inputs": [
        {
          "name": "_sender",
          "type": "address"
        },
        {
          "name": "_sourceAddress",
          "type": "address"
        }
      ],
      "name": "registerTransactionByOwner",
      "outputs": [
        {
          "name": "",
          "type": "uint256"
        }
      ],
      "payable": false,
      "stateMutability": "nonpayable",
      "type": "function"
    },
    {
      "constant": false,
      "inputs": [
        {
          "name": "_accountAddress",
          "type": "address"
        }
      ],
      "name": "registerAccount",
      "outputs": [
        {
          "name": "PAN",
          "type": "uint256"
        }
      ],
      "payable": false,
      "stateMutability": "nonpayable",
      "type": "function"
    },
    {
      "constant": false,
      "inputs": [
        {
          "name": "_senders",
          "type": "address[]"
        },
        {
          "name": "_accountAddress",
          "type": "address"
        }
      ],
      "name": "registerAccountByOwner",
      "outputs": [
        {
          "name": "PANs",
          "type": "uint256[]"
        }
      ],
      "payable": false,
      "stateMutability": "nonpayable",
      "type": "function"
    },
    {
      "constant": false,
      "inputs": [
        {
          "name": "_accountAddress",
          "type": "address"
        },
        {
          "name": "_beneficentAddress",
          "type": "address"
        }
      ],
      "name": "unregisterAccount",
      "outputs": [
        {
          "name": "PAN",
          "type": "uint256"
        }
      ],
      "payable": false,
      "stateMutability": "nonpayable",
      "type": "function"
    },
    {
      "constant": false,
      "inputs": [
        {
          "name": "_senders",
          "type": "address[]"
        },
        {
          "name": "_accountAddress",
          "type": "address"
        },
        {
          "name": "_beneficentAddresses",
          "type": "address[]"
        }
      ],
      "name": "unregisterAccountByOwner",
      "outputs": [
        {
          "name": "PANs",
          "type": "uint256[]"
        }
      ],
      "payable": false,
      "stateMutability": "nonpayable",
      "type": "function"
    },
    {
      "constant": true,
      "inputs": [
        {
          "name": "_accountAddress",
          "type": "address"
        }
      ],
      "name": "registeredBankAccount",
      "outputs": [
        {
          "name": "",
          "type": "bool"
        }
      ],
      "payable": false,
      "stateMutability": "view",
      "type": "function"
    },
    {
      "constant": true,
      "inputs": [
        {
          "name": "_holderAddress",
          "type": "address"
        }
      ],
      "name": "getPANs",
      "outputs": [
        {
          "name": "items",
          "type": "uint256[]"
        }
      ],
      "payable": false,
      "stateMutability": "view",
      "type": "function"
    },
    {
      "constant": true,
      "inputs": [
        {
          "name": "_holderAddress",
          "type": "address"
        }
      ],
      "name": "getPANsCount",
      "outputs": [
        {
          "name": "",
          "type": "uint256"
        }
      ],
      "payable": false,
      "stateMutability": "view",
      "type": "function"
    },
    {
      "constant": true,
      "inputs": [
        {
          "name": "_holderAddress",
          "type": "address"
        },
        {
          "name": "_PAN",
          "type": "uint256"
        }
      ],
      "name": "getNextPAN",
      "outputs": [
        {
          "name": "",
          "type": "uint256"
        }
      ],
      "payable": false,
      "stateMutability": "view",
      "type": "function"
    },
    {
      "constant": true,
      "inputs": [],
      "name": "needSyncPANs",
      "outputs": [
        {
          "name": "",
          "type": "bool"
        }
      ],
      "payable": false,
      "stateMutability": "view",
      "type": "function"
    },
    {
      "constant": false,
      "inputs": [],
      "name": "syncPANs",
      "outputs": [],
      "payable": false,
      "stateMutability": "nonpayable",
      "type": "function"
    },
    {
      "constant": true,
      "inputs": [
        {
          "name": "_PANs",
          "type": "uint256[]"
        }
      ],
      "name": "registeredPANsBatch",
      "outputs": [
        {
          "name": "accounts",
          "type": "address[]"
        },
        {
          "name": "holders",
          "type": "address[]"
        }
      ],
      "payable": false,
      "stateMutability": "view",
      "type": "function"
    },
    {
      "constant": false,
      "inputs": [
        {
          "name": "_bankAddress",
          "type": "address"
        }
      ],
      "name": "addBank",
      "outputs": [
        {
          "name": "success",
          "type": "bool"
        }
      ],
      "payable": false,
      "stateMutability": "nonpayable",
      "type": "function"
    },
    {
      "constant": false,
      "inputs": [
        {
          "name": "_bankAddress",
          "type": "address"
        }
      ],
      "name": "removeBank",
      "outputs": [
        {
          "name": "success",
          "type": "bool"
        }
      ],
      "payable": false,
      "stateMutability": "nonpayable",
      "type": "function"
    },
    {
      "constant": true,
      "inputs": [],
      "name": "getBanks",
      "outputs": [
        {
          "name": "",
          "type": "address[]"
        }
      ],
      "payable": false,
      "stateMutability": "view",
      "type": "function"
    },
    {
      "constant": true,
      "inputs": [],
      "name": "getBanksCount",
      "outputs": [
        {
          "name": "",
          "type": "uint256"
        }
      ],
      "payable": false,
      "stateMutability": "view",
      "type": "function"
    },
    {
      "constant": true,
      "inputs": [
        {
          "name": "_bankAddress",
          "type": "address"
        }
      ],
      "name": "getNextBank",
      "outputs": [
        {
          "name": "",
          "type": "address"
        }
      ],
      "payable": false,
      "stateMutability": "view",
      "type": "function"
    },
    {
      "constant": true,
      "inputs": [
        {
          "name": "_bankAddress",
          "type": "address"
        }
      ],
      "name": "registeredBank",
      "outputs": [
        {
          "name": "",
          "type": "bool"
        }
      ],
      "payable": false,
      "stateMutability": "view",
      "type": "function"
    },
    {
      "constant": true,
      "inputs": [
        {
          "name": "_PAN",
          "type": "uint256"
        }
      ],
      "name": "getBankAccount",
      "outputs": [
        {
          "name": "holderBank",
          "type": "address"
        },
        {
          "name": "holderAccount",
          "type": "address"
        },
        {
          "name": "holderAddress",
          "type": "address"
        }
      ],
      "payable": false,
      "stateMutability": "view",
      "type": "function"
    },
    {
      "constant": false,
      "inputs": [
        {
          "name": "_accountAddress",
          "type": "address"
        }
      ],
      "name": "emitAddedBankAccount",
      "outputs": [],
      "payable": false,
      "stateMutability": "nonpayable",
      "type": "function"
    },
    {
      "constant": false,
      "inputs": [
        {
          "name": "_accountAddress",
          "type": "address"
        }
      ],
      "name": "emitRemovedBankAccount",
      "outputs": [],
      "payable": false,
      "stateMutability": "nonpayable",
      "type": "function"
    },
    {
      "constant": false,
      "inputs": [
        {
          "name": "_serviceAddress",
          "type": "address"
        }
      ],
      "name": "emitAddedBankService",
      "outputs": [],
      "payable": false,
      "stateMutability": "nonpayable",
      "type": "function"
    },
    {
      "constant": false,
      "inputs": [
        {
          "name": "_serviceAddress",
          "type": "address"
        }
      ],
      "name": "emitRemovedBankService",
      "outputs": [],
      "payable": false,
      "stateMutability": "nonpayable",
      "type": "function"
    }
  ],
  "bytecode": "0x60806040523480156200001157600080fd5b50604051620062d9380380620062d9833981018060405281019080805190602001909291908051820192919060200180518201929190602001805182019291905050506040805190810160405280600581526020017f42414e4b530000000000000000000000000000000000000000000000000000008152508383838360009080519060200190620000a592919062000242565b508260019080519060200190620000be92919062000242565b508160029080519060200190620000d792919062000242565b508060039080519060200190620000f092919062000242565b505050505033600460006101000a81548173ffffffffffffffffffffffffffffffffffffffff021916908373ffffffffffffffffffffffffffffffffffffffff1602179055506001600560156101000a81548160ff0219169083151502179055508373ffffffffffffffffffffffffffffffffffffffff16600073ffffffffffffffffffffffffffffffffffffffff1614151515620001f7576040517f08c379a00000000000000000000000000000000000000000000000000000000081526004018080602001828103825260158152602001807f58436f696e206973206e6f742070726f7669646564000000000000000000000081525060200191505060405180910390fd5b83600960006101000a81548173ffffffffffffffffffffffffffffffffffffffff021916908373ffffffffffffffffffffffffffffffffffffffff16021790555050505050620002f1565b828054600181600116156101000203166002900490600052602060002090601f016020900481019282601f106200028557805160ff1916838001178555620002b6565b82800160010185558215620002b6579182015b82811115620002b557825182559160200191906001019062000298565b5b509050620002c59190620002c9565b5090565b620002ee91905b80821115620002ea576000816000905550600101620002d0565b5090565b90565b615fd880620003016000396000f30060806040526004361061023b576000357c0100000000000000000000000000000000000000000000000000000000900463ffffffff168063072f8a27146102405780630d312770146102b75780630f81a38f1461038a5780631206b6881461041a57806314538128146104495780631d94250e146104d657806327dbb69a1461051957806332d414dc146105b95780633fb27b85146105e4578063430569741461061357806343347e0e1461066a578063484e50c0146106d65780635615ea8e146107015780635742177c14610744578063592b3d8a146107cd5780635b5d6e90146108105780636b39414b146108b95780637284e416146109d757806375f12b2114610a675780637630d25114610a9657806379ba509714610af15780637aecf87214610b085780638054487214610b5f57806383197ef014610b7657806385a89a9814610b8d5780638da5cb5b14610c045780639472239714610c5b5780639649650c14610cb657806397c414df14610d115780639886b14414610d68578063a5fb273714610d97578063af688ceb14610dda578063b5a71b7d14610e05578063bc699e7514610e9d578063bd4d8fff14610ecc578063ca2dfd9014610f2d578063cb4774c414611030578063cd6deb4c146110c0578063d4ee1d901461111b578063e05e247714611172578063e092d49d146111e9578063e24ff74414611240578063e4b203ef146112d0578063ea5602ac146112ff578063f2fde38b146113da578063fc2ed4061461141d578063fff0623614611474575b600080fd5b34801561024c57600080fd5b506102a1600480360381019080803573ffffffffffffffffffffffffffffffffffffffff169060200190929190803573ffffffffffffffffffffffffffffffffffffffff1690602001909291905050506114f7565b6040518082815260200191505060405180910390f35b3480156102c357600080fd5b506102e2600480360381019080803590602001909291905050506115d0565b604051808473ffffffffffffffffffffffffffffffffffffffff1673ffffffffffffffffffffffffffffffffffffffff1681526020018373ffffffffffffffffffffffffffffffffffffffff1673ffffffffffffffffffffffffffffffffffffffff1681526020018273ffffffffffffffffffffffffffffffffffffffff1673ffffffffffffffffffffffffffffffffffffffff168152602001935050505060405180910390f35b34801561039657600080fd5b5061039f6119da565b6040518080602001828103825283818151815260200191508051906020019080838360005b838110156103df5780820151818401526020810190506103c4565b50505050905090810190601f16801561040c5780820380516001836020036101000a031916815260200191505b509250505060405180910390f35b34801561042657600080fd5b5061042f611a78565b604051808215151515815260200191505060405180910390f35b34801561045557600080fd5b50610494600480360381019080803573ffffffffffffffffffffffffffffffffffffffff16906020019092919080359060200190929190505050611c99565b604051808273ffffffffffffffffffffffffffffffffffffffff1673ffffffffffffffffffffffffffffffffffffffff16815260200191505060405180910390f35b3480156104e257600080fd5b50610517600480360381019080803573ffffffffffffffffffffffffffffffffffffffff169060200190929190505050611ce4565b005b34801561052557600080fd5b5061054460048036038101908080359060200190929190505050611dde565b604051808373ffffffffffffffffffffffffffffffffffffffff1673ffffffffffffffffffffffffffffffffffffffff1681526020018273ffffffffffffffffffffffffffffffffffffffff1673ffffffffffffffffffffffffffffffffffffffff1681526020019250505060405180910390f35b3480156105c557600080fd5b506105ce611e42565b6040518082815260200191505060405180910390f35b3480156105f057600080fd5b506105f9611e52565b604051808215151515815260200191505060405180910390f35b34801561061f57600080fd5b50610654600480360381019080803573ffffffffffffffffffffffffffffffffffffffff169060200190929190505050612051565b6040518082815260200191505060405180910390f35b34801561067657600080fd5b5061067f612069565b6040518080602001828103825283818151815260200191508051906020019060200280838360005b838110156106c25780820151818401526020810190506106a7565b505050509050019250505060405180910390f35b3480156106e257600080fd5b506106eb61207a565b6040518082815260200191505060405180910390f35b34801561070d57600080fd5b50610742600480360381019080803573ffffffffffffffffffffffffffffffffffffffff169060200190929190505050612087565b005b34801561075057600080fd5b5061076f60048036038101908080359060200190929190505050612181565b6040518080602001838152602001828103825284818151815260200191508051906020019060200280838360005b838110156107b857808201518184015260208101905061079d565b50505050905001935050505060405180910390f35b3480156107d957600080fd5b5061080e600480360381019080803573ffffffffffffffffffffffffffffffffffffffff169060200190929190505050612198565b005b34801561081c57600080fd5b5061085b600480360381019080803573ffffffffffffffffffffffffffffffffffffffff16906020019092919080359060200190929190505050612292565b6040518080602001838152602001828103825284818151815260200191508051906020019060200280838360005b838110156108a4578082015181840152602081019050610889565b50505050905001935050505060405180910390f35b3480156108c557600080fd5b5061098060048036038101908080359060200190820180359060200190808060200260200160405190810160405280939291908181526020018383602002808284378201915050505050509192919290803573ffffffffffffffffffffffffffffffffffffffff16906020019092919080359060200190820180359060200190808060200260200160405190810160405280939291908181526020018383602002808284378201915050505050509192919290505050612428565b6040518080602001828103825283818151815260200191508051906020019060200280838360005b838110156109c35780820151818401526020810190506109a8565b505050509050019250505060405180910390f35b3480156109e357600080fd5b506109ec612623565b6040518080602001828103825283818151815260200191508051906020019080838360005b83811015610a2c578082015181840152602081019050610a11565b50505050905090810190601f168015610a595780820380516001836020036101000a031916815260200191505b509250505060405180910390f35b348015610a7357600080fd5b50610a7c6126c1565b604051808215151515815260200191505060405180910390f35b348015610aa257600080fd5b50610ad7600480360381019080803573ffffffffffffffffffffffffffffffffffffffff1690602001909291905050506126d4565b604051808215151515815260200191505060405180910390f35b348015610afd57600080fd5b50610b0661287e565b005b348015610b1457600080fd5b50610b49600480360381019080803573ffffffffffffffffffffffffffffffffffffffff169060200190929190505050612a88565b6040518082815260200191505060405180910390f35b348015610b6b57600080fd5b50610b74612ae4565b005b348015610b8257600080fd5b50610b8b612d9e565b005b348015610b9957600080fd5b50610bee600480360381019080803573ffffffffffffffffffffffffffffffffffffffff169060200190929190803573ffffffffffffffffffffffffffffffffffffffff169060200190929190505050612ed3565b6040518082815260200191505060405180910390f35b348015610c1057600080fd5b50610c19612f64565b604051808273ffffffffffffffffffffffffffffffffffffffff1673ffffffffffffffffffffffffffffffffffffffff16815260200191505060405180910390f35b348015610c6757600080fd5b50610c9c600480360381019080803573ffffffffffffffffffffffffffffffffffffffff169060200190929190505050612f8a565b604051808215151515815260200191505060405180910390f35b348015610cc257600080fd5b50610cf7600480360381019080803573ffffffffffffffffffffffffffffffffffffffff16906020019092919050505061323d565b604051808215151515815260200191505060405180910390f35b348015610d1d57600080fd5b50610d52600480360381019080803573ffffffffffffffffffffffffffffffffffffffff16906020019092919050505061336a565b6040518082815260200191505060405180910390f35b348015610d7457600080fd5b50610d7d61337d565b604051808215151515815260200191505060405180910390f35b348015610da357600080fd5b50610dd8600480360381019080803573ffffffffffffffffffffffffffffffffffffffff169060200190929190505050613492565b005b348015610de657600080fd5b50610def61358c565b6040518082815260200191505060405180910390f35b348015610e1157600080fd5b50610e46600480360381019080803573ffffffffffffffffffffffffffffffffffffffff169060200190929190505050613592565b6040518080602001828103825283818151815260200191508051906020019060200280838360005b83811015610e89578082015181840152602081019050610e6e565b505050509050019250505060405180910390f35b348015610ea957600080fd5b50610eb26135e8565b604051808215151515815260200191505060405180910390f35b348015610ed857600080fd5b50610f17600480360381019080803573ffffffffffffffffffffffffffffffffffffffff169060200190929190803590602001909291905050506136fd565b6040518082815260200191505060405180910390f35b348015610f3957600080fd5b50610f916004803603810190808035906020019082018035906020019080806020026020016040519081016040528093929190818152602001838360200280828437820191505050505050919291929050505061375d565b604051808060200180602001838103835285818151815260200191508051906020019060200280838360005b83811015610fd8578082015181840152602081019050610fbd565b50505050905001838103825284818151815260200191508051906020019060200280838360005b8381101561101a578082015181840152602081019050610fff565b5050505090500194505050505060405180910390f35b34801561103c57600080fd5b50611045613927565b6040518080602001828103825283818151815260200191508051906020019080838360005b8381101561108557808201518184015260208101905061106a565b50505050905090810190601f1680156110b25780820380516001836020036101000a031916815260200191505b509250505060405180910390f35b3480156110cc57600080fd5b50611101600480360381019080803573ffffffffffffffffffffffffffffffffffffffff1690602001909291905050506139c5565b604051808215151515815260200191505060405180910390f35b34801561112757600080fd5b506111306139e2565b604051808273ffffffffffffffffffffffffffffffffffffffff1673ffffffffffffffffffffffffffffffffffffffff16815260200191505060405180910390f35b34801561117e57600080fd5b506111d3600480360381019080803573ffffffffffffffffffffffffffffffffffffffff169060200190929190803573ffffffffffffffffffffffffffffffffffffffff169060200190929190505050613a08565b6040518082815260200191505060405180910390f35b3480156111f557600080fd5b506111fe613a1d565b604051808273ffffffffffffffffffffffffffffffffffffffff1673ffffffffffffffffffffffffffffffffffffffff16815260200191505060405180910390f35b34801561124c57600080fd5b50611255613a47565b6040518080602001828103825283818151815260200191508051906020019080838360005b8381101561129557808201518184015260208101905061127a565b50505050905090810190601f1680156112c25780820380516001836020036101000a031916815260200191505b509250505060405180910390f35b3480156112dc57600080fd5b506112e5613ae5565b604051808215151515815260200191505060405180910390f35b34801561130b57600080fd5b5061138360048036038101908080359060200190820180359060200190808060200260200160405190810160405280939291908181526020018383602002808284378201915050505050509192919290803573ffffffffffffffffffffffffffffffffffffffff169060200190929190505050613af8565b6040518080602001828103825283818151815260200191508051906020019060200280838360005b838110156113c65780820151818401526020810190506113ab565b505050509050019250505060405180910390f35b3480156113e657600080fd5b5061141b600480360381019080803573ffffffffffffffffffffffffffffffffffffffff169060200190929190505050613c61565b005b34801561142957600080fd5b5061145e600480360381019080803573ffffffffffffffffffffffffffffffffffffffff169060200190929190505050613d6a565b6040518082815260200191505060405180910390f35b34801561148057600080fd5b506114b5600480360381019080803573ffffffffffffffffffffffffffffffffffffffff169060200190929190505050613dbb565b604051808273ffffffffffffffffffffffffffffffffffffffff1673ffffffffffffffffffffffffffffffffffffffff16815260200191505060405180910390f35b6000600460009054906101000a900473ffffffffffffffffffffffffffffffffffffffff1673ffffffffffffffffffffffffffffffffffffffff163373ffffffffffffffffffffffffffffffffffffffff161415156115be576040517f08c379a00000000000000000000000000000000000000000000000000000000081526004018080602001828103825260158152602001807f4f6e6c79206f776e657220697320616c6c6f776564000000000000000000000081525060200191505060405180910390fd5b6115c88383613dd8565b905092915050565b600080600080600b600086815260200190815260200160002090508060000160009054906101000a900473ffffffffffffffffffffffffffffffffffffffff1673ffffffffffffffffffffffffffffffffffffffff16600073ffffffffffffffffffffffffffffffffffffffff161415801561169d57508060010160009054906101000a900473ffffffffffffffffffffffffffffffffffffffff1673ffffffffffffffffffffffffffffffffffffffff16600073ffffffffffffffffffffffffffffffffffffffff1614155b1515611711576040517f08c379a00000000000000000000000000000000000000000000000000000000081526004018080602001828103825260158152602001807f4163636f756e742050414e206e6f742076616c6964000000000000000000000081525060200191505060405180910390fd5b8060000160009054906101000a900473ffffffffffffffffffffffffffffffffffffffff1692508273ffffffffffffffffffffffffffffffffffffffff16637822ed496040518163ffffffff167c0100000000000000000000000000000000000000000000000000000000028152600401602060405180830381600087803b15801561179c57600080fd5b505af11580156117b0573d6000803e3d6000fd5b505050506040513d60208110156117c657600080fd5b810190808051906020019092919050505093508060010160009054906101000a900473ffffffffffffffffffffffffffffffffffffffff16915061181484600661411590919063ffffffff16565b1515611888576040517f08c379a00000000000000000000000000000000000000000000000000000000081526004018080602001828103825260168152602001807f42616e6b206973206e6f7420726567697374657265640000000000000000000081525060200191505060405180910390fd5b8373ffffffffffffffffffffffffffffffffffffffff1663193eef40846040518263ffffffff167c0100000000000000000000000000000000000000000000000000000000028152600401808273ffffffffffffffffffffffffffffffffffffffff1673ffffffffffffffffffffffffffffffffffffffff168152602001915050602060405180830381600087803b15801561192357600080fd5b505af1158015611937573d6000803e3d6000fd5b505050506040513d602081101561194d57600080fd5b810190808051906020019092919050505015156119d2576040517f08c379a000000000000000000000000000000000000000000000000000000000815260040180806020018281038252601e8152602001807f42616e6b206163636f756e74206973206e6f742072656769737465726564000081525060200191505060405180910390fd5b509193909250565b60018054600181600116156101000203166002900480601f016020809104026020016040519081016040528092919081815260200182805460018160011615610100020316600290048015611a705780601f10611a4557610100808354040283529160200191611a70565b820191906000526020600020905b815481529060010190602001808311611a5357829003601f168201915b505050505081565b6000806000806000600560159054906101000a900460ff161515611af7573373ffffffffffffffffffffffffffffffffffffffff16600460009054906101000a900473ffffffffffffffffffffffffffffffffffffffff1673ffffffffffffffffffffffffffffffffffffffff16141515611af257600080fd5b611b14565b600560149054906101000a900460ff16151515611b1357600080fd5b5b600a60003373ffffffffffffffffffffffffffffffffffffffff1673ffffffffffffffffffffffffffffffffffffffff1681526020019081526020016000209350611b6960008561416e90919063ffffffff16565b92505b826000141515611c8d57600b600084815260200190815260200160002060000160009054906101000a900473ffffffffffffffffffffffffffffffffffffffff1691508173ffffffffffffffffffffffffffffffffffffffff16637822ed496040518163ffffffff167c0100000000000000000000000000000000000000000000000000000000028152600401602060405180830381600087803b158015611c1357600080fd5b505af1158015611c27573d6000803e3d6000fd5b505050506040513d6020811015611c3d57600080fd5b81019080805190602001909291905050509050611c6481600661411590919063ffffffff16565b1515611c735760019450611c92565b611c86838561416e90919063ffffffff16565b9250611b6c565b600094505b5050505090565b600d602052816000526040600020602052806000526040600020600091509150508060000160009054906101000a900473ffffffffffffffffffffffffffffffffffffffff16905081565b611ced336139c5565b1515611d61576040517f08c379a000000000000000000000000000000000000000000000000000000000815260040180806020018281038252600d8152602001807f4163636573732064656e6965640000000000000000000000000000000000000081525060200191505060405180910390fd5b3373ffffffffffffffffffffffffffffffffffffffff167f63af8be30e378c365c814226ce70c9b2c25b67388a926980d6f90e2bb73c8de782604051808273ffffffffffffffffffffffffffffffffffffffff1673ffffffffffffffffffffffffffffffffffffffff16815260200191505060405180910390a250565b600b6020528060005260406000206000915090508060000160009054906101000a900473ffffffffffffffffffffffffffffffffffffffff16908060010160009054906101000a900473ffffffffffffffffffffffffffffffffffffffff16905082565b6000611e4d33612a88565b905090565b6000600460009054906101000a900473ffffffffffffffffffffffffffffffffffffffff1673ffffffffffffffffffffffffffffffffffffffff163373ffffffffffffffffffffffffffffffffffffffff16141515611f19576040517f08c379a00000000000000000000000000000000000000000000000000000000081526004018080602001828103825260158152602001807f4f6e6c79206f776e657220697320616c6c6f776564000000000000000000000081525060200191505060405180910390fd5b600560159054906101000a900460ff16151515611f3557600080fd5b600560009054906101000a900473ffffffffffffffffffffffffffffffffffffffff1673ffffffffffffffffffffffffffffffffffffffff16600073ffffffffffffffffffffffffffffffffffffffff16141515611ffb576040517f08c379a00000000000000000000000000000000000000000000000000000000081526004018080602001828103825260208152602001807f5472616e73666572206f776e65727368697020697320696e636f6d706c65746581525060200191505060405180910390fd5b6120036141a4565b6001600560156101000a81548160ff0219169083151502179055507f1b2d71eb44f882534bf4e86f940c56ccc869ffb927e2bab86561de93950c221660405160405180910390a16001905090565b600e6020528060005260406000206000915090505481565b606061207560066141a6565b905090565b6000600660000154905090565b612090336139c5565b1515612104576040517f08c379a000000000000000000000000000000000000000000000000000000000815260040180806020018281038252600d8152602001807f4163636573732064656e6965640000000000000000000000000000000000000081525060200191505060405180910390fd5b3373ffffffffffffffffffffffffffffffffffffffff167f714de93ff7008ecfd958428395c4012c96f57728e2a1305fa47abd6bf4b61d2d82604051808273ffffffffffffffffffffffffffffffffffffffff1673ffffffffffffffffffffffffffffffffffffffff16815260200191505060405180910390a250565b6060600061218f3384612292565b91509150915091565b6121a1336139c5565b1515612215576040517f08c379a000000000000000000000000000000000000000000000000000000000815260040180806020018281038252600d8152602001807f4163636573732064656e6965640000000000000000000000000000000000000081525060200191505060405180910390fd5b3373ffffffffffffffffffffffffffffffffffffffff167f256079ca22f88fc9d791582bd0a01fa3b1b1e51edb1249e8eec3b94873a0bd8a82604051808273ffffffffffffffffffffffffffffffffffffffff1673ffffffffffffffffffffffffffffffffffffffff16815260200191505060405180910390a250565b60606000806000600e60008773ffffffffffffffffffffffffffffffffffffffff1673ffffffffffffffffffffffffffffffffffffffff16815260200190815260200160002054925082905084600014806122ec57508085115b156122f5578094505b846040519080825280602002602001820160405280156123245781602001602082028038833980820191505090505b5093505b8185111561241f57600d60008773ffffffffffffffffffffffffffffffffffffffff1673ffffffffffffffffffffffffffffffffffffffff168152602001908152602001600020600082815260200190815260200160002060000160009054906101000a900473ffffffffffffffffffffffffffffffffffffffff1684838151811015156123b257fe5b9060200190602002019073ffffffffffffffffffffffffffffffffffffffff16908173ffffffffffffffffffffffffffffffffffffffff168152505061240260018261428a90919063ffffffff16565b905061241860018361430f90919063ffffffff16565b9150612328565b50509250929050565b60606000600460009054906101000a900473ffffffffffffffffffffffffffffffffffffffff1673ffffffffffffffffffffffffffffffffffffffff163373ffffffffffffffffffffffffffffffffffffffff161415156124f1576040517f08c379a00000000000000000000000000000000000000000000000000000000081526004018080602001828103825260158152602001807f4f6e6c79206f776e657220697320616c6c6f776564000000000000000000000081525060200191505060405180910390fd5b8251855114151561256a576040517f08c379a000000000000000000000000000000000000000000000000000000000815260040180806020018281038252601d8152602001807f486f6c646572206c697374206973206e6f7420636f6e73697374656e7400000081525060200191505060405180910390fd5b845160405190808252806020026020018201604052801561259a5781602001602082028038833980820191505090505b509150600090505b808551111561261b576125e485828151811015156125bc57fe5b906020019060200201518585848151811015156125d557fe5b90602001906020020151614397565b82828151811015156125f257fe5b906020019060200201818152505061261460018261430f90919063ffffffff16565b90506125a2565b509392505050565b60038054600181600116156101000203166002900480601f0160208091040260200160405190810160405280929190818152602001828054600181600116156101000203166002900480156126b95780601f1061268e576101008083540402835291602001916126b9565b820191906000526020600020905b81548152906001019060200180831161269c57829003601f168201915b505050505081565b600560149054906101000a900460ff1681565b60008060008391508173ffffffffffffffffffffffffffffffffffffffff16637822ed496040518163ffffffff167c0100000000000000000000000000000000000000000000000000000000028152600401602060405180830381600087803b15801561274057600080fd5b505af1158015612754573d6000803e3d6000fd5b505050506040513d602081101561276a57600080fd5b810190808051906020019092919050505090508073ffffffffffffffffffffffffffffffffffffffff1663193eef40856040518263ffffffff167c0100000000000000000000000000000000000000000000000000000000028152600401808273ffffffffffffffffffffffffffffffffffffffff1673ffffffffffffffffffffffffffffffffffffffff168152602001915050602060405180830381600087803b15801561281857600080fd5b505af115801561282c573d6000803e3d6000fd5b505050506040513d602081101561284257600080fd5b810190808051906020019092919050505080156128645750612863816139c5565b5b156128725760019250612877565b600092505b5050919050565b600560009054906101000a900473ffffffffffffffffffffffffffffffffffffffff1673ffffffffffffffffffffffffffffffffffffffff163373ffffffffffffffffffffffffffffffffffffffff16141515612943576040517f08c379a00000000000000000000000000000000000000000000000000000000081526004018080602001828103825260198152602001807f4f6e6c79206e6577206f776e657220697320616c6c6f7765640000000000000081525060200191505060405180910390fd5b600560009054906101000a900473ffffffffffffffffffffffffffffffffffffffff1673ffffffffffffffffffffffffffffffffffffffff16600460009054906101000a900473ffffffffffffffffffffffffffffffffffffffff1673ffffffffffffffffffffffffffffffffffffffff167f8be0079c531659141344cd1fd0a4f28419497f9722a3daafe3b4186f6b6457e060405160405180910390a3600560009054906101000a900473ffffffffffffffffffffffffffffffffffffffff16600460006101000a81548173ffffffffffffffffffffffffffffffffffffffff021916908373ffffffffffffffffffffffffffffffffffffffff1602179055506000600560006101000a81548173ffffffffffffffffffffffffffffffffffffffff021916908373ffffffffffffffffffffffffffffffffffffffff160217905550565b6000612add6001600e60008573ffffffffffffffffffffffffffffffffffffffff1673ffffffffffffffffffffffffffffffffffffffff1681526020019081526020016000205461430f90919063ffffffff16565b9050919050565b6000806000806000600560159054906101000a900460ff161515612b63573373ffffffffffffffffffffffffffffffffffffffff16600460009054906101000a900473ffffffffffffffffffffffffffffffffffffffff1673ffffffffffffffffffffffffffffffffffffffff16141515612b5e57600080fd5b612b80565b600560149054906101000a900460ff16151515612b7f57600080fd5b5b600a60003373ffffffffffffffffffffffffffffffffffffffff1673ffffffffffffffffffffffffffffffffffffffff1681526020019081526020016000209450612bd560008661416e90919063ffffffff16565b92505b826000141515612d9757600b600084815260200190815260200160002060000160009054906101000a900473ffffffffffffffffffffffffffffffffffffffff1691508173ffffffffffffffffffffffffffffffffffffffff16637822ed496040518163ffffffff167c0100000000000000000000000000000000000000000000000000000000028152600401602060405180830381600087803b158015612c7f57600080fd5b505af1158015612c93573d6000803e3d6000fd5b505050506040513d6020811015612ca957600080fd5b81019080805190602001909291905050509050612cd081600661411590919063ffffffff16565b1515612cda578293505b612ced838661416e90919063ffffffff16565b9250836000141515612d9257612d0c848661493b90919063ffffffff16565b50600b6000858152602001908152602001600020600080820160006101000a81549073ffffffffffffffffffffffffffffffffffffffff02191690556001820160006101000a81549073ffffffffffffffffffffffffffffffffffffffff0219169055505060009350612d8b6001600c5461428a90919063ffffffff16565b600c819055505b612bd8565b5050505050565b600460009054906101000a900473ffffffffffffffffffffffffffffffffffffffff1673ffffffffffffffffffffffffffffffffffffffff163373ffffffffffffffffffffffffffffffffffffffff16141515612e63576040517f08c379a00000000000000000000000000000000000000000000000000000000081526004018080602001828103825260158152602001807f4f6e6c79206f776e657220697320616c6c6f776564000000000000000000000081525060200191505060405180910390fd5b612e6b6135e8565b507fcc0e82c1b8fa4695d6ae60217024b293814bde0f381a23cafaa0a1e25973c14b60405160405180910390a1600460009054906101000a900473ffffffffffffffffffffffffffffffffffffffff1673ffffffffffffffffffffffffffffffffffffffff16ff5b6000612ede336126d4565b1515612f52576040517f08c379a000000000000000000000000000000000000000000000000000000000815260040180806020018281038252600d8152602001807f4163636573732064656e6965640000000000000000000000000000000000000081525060200191505060405180910390fd5b612f5c8383613dd8565b905092915050565b600460009054906101000a900473ffffffffffffffffffffffffffffffffffffffff1681565b600080600460009054906101000a900473ffffffffffffffffffffffffffffffffffffffff1673ffffffffffffffffffffffffffffffffffffffff163373ffffffffffffffffffffffffffffffffffffffff16141515613052576040517f08c379a00000000000000000000000000000000000000000000000000000000081526004018080602001828103825260158152602001807f4f6e6c79206f776e657220697320616c6c6f776564000000000000000000000081525060200191505060405180910390fd5b8290508073ffffffffffffffffffffffffffffffffffffffff1663e4b203ef6040518163ffffffff167c0100000000000000000000000000000000000000000000000000000000028152600401602060405180830381600087803b1580156130b957600080fd5b505af11580156130cd573d6000803e3d6000fd5b505050506040513d60208110156130e357600080fd5b81019080805190602001909291905050501515613168576040517f08c379a000000000000000000000000000000000000000000000000000000000815260040180806020018281038252601b8152602001807f42616e6b20696e7374616e6365206973206e6f74207365616c6564000000000081525060200191505060405180910390fd5b61317c836006614b2490919063ffffffff16565b15156131f0576040517f08c379a00000000000000000000000000000000000000000000000000000000081526004018080602001828103825260188152602001807f4475706c6963617465642062616e6b20696e7374616e6365000000000000000081525060200191505060405180910390fd5b8273ffffffffffffffffffffffffffffffffffffffff167ffa546bb3e6c48942f8fd9657657fcf70e6e429beed8a8b7735e24ede5500740260405160405180910390a26001915050919050565b6000600460009054906101000a900473ffffffffffffffffffffffffffffffffffffffff1673ffffffffffffffffffffffffffffffffffffffff163373ffffffffffffffffffffffffffffffffffffffff16141515613304576040517f08c379a00000000000000000000000000000000000000000000000000000000081526004018080602001828103825260158152602001807f4f6e6c79206f776e657220697320616c6c6f776564000000000000000000000081525060200191505060405180910390fd5b613318826006614ff190919063ffffffff16565b15613361578173ffffffffffffffffffffffffffffffffffffffff167f758faa68b8991dd12c7cec92d77ba8c72fe7b1e2c970eca7bbe7eea740ffa4bf60405160405180910390a25b60019050919050565b600061337633836154c4565b9050919050565b6000600460009054906101000a900473ffffffffffffffffffffffffffffffffffffffff1673ffffffffffffffffffffffffffffffffffffffff163373ffffffffffffffffffffffffffffffffffffffff16141515613444576040517f08c379a00000000000000000000000000000000000000000000000000000000081526004018080602001828103825260158152602001807f4f6e6c79206f776e657220697320616c6c6f776564000000000000000000000081525060200191505060405180910390fd5b6000600560146101000a81548160ff0219169083151502179055507f62451d457bc659158be6e6247f56ec1df424a5c7597f71c20c2bc44e0965c8f960405160405180910390a16001905090565b61349b336139c5565b151561350f576040517f08c379a000000000000000000000000000000000000000000000000000000000815260040180806020018281038252600d8152602001807f4163636573732064656e6965640000000000000000000000000000000000000081525060200191505060405180910390fd5b3373ffffffffffffffffffffffffffffffffffffffff167f48cca4e6fc5c567e6209983de079098e224d1a5ec700e96bc952102ca514745d82604051808273ffffffffffffffffffffffffffffffffffffffff1673ffffffffffffffffffffffffffffffffffffffff16815260200191505060405180910390a250565b600c5481565b60606000600a60008473ffffffffffffffffffffffffffffffffffffffff1673ffffffffffffffffffffffffffffffffffffffff16815260200190815260200160002090506135e081615bbb565b915050919050565b6000600460009054906101000a900473ffffffffffffffffffffffffffffffffffffffff1673ffffffffffffffffffffffffffffffffffffffff163373ffffffffffffffffffffffffffffffffffffffff161415156136af576040517f08c379a00000000000000000000000000000000000000000000000000000000081526004018080602001828103825260158152602001807f4f6e6c79206f776e657220697320616c6c6f776564000000000000000000000081525060200191505060405180910390fd5b6001600560146101000a81548160ff0219169083151502179055507f7acc84e34091ae817647a4c49116f5cc07f319078ba80f8f5fde37ea7e25cbd660405160405180910390a16001905090565b600080600a60008573ffffffffffffffffffffffffffffffffffffffff1673ffffffffffffffffffffffffffffffffffffffff1681526020019081526020016000209050613754838261416e90919063ffffffff16565b91505092915050565b606080600083516040519080825280602002602001820160405280156137925781602001602082028038833980820191505090505b50925083516040519080825280602002602001820160405280156137c55781602001602082028038833980820191505090505b509150600090505b808451111561392157600b600085838151811015156137e857fe5b90602001906020020151815260200190815260200160002060000160009054906101000a900473ffffffffffffffffffffffffffffffffffffffff16838281518110151561383257fe5b9060200190602002019073ffffffffffffffffffffffffffffffffffffffff16908173ffffffffffffffffffffffffffffffffffffffff1681525050600b6000858381518110151561388057fe5b90602001906020020151815260200190815260200160002060010160009054906101000a900473ffffffffffffffffffffffffffffffffffffffff1682828151811015156138ca57fe5b9060200190602002019073ffffffffffffffffffffffffffffffffffffffff16908173ffffffffffffffffffffffffffffffffffffffff168152505061391a60018261430f90919063ffffffff16565b90506137cd565b50915091565b60028054600181600116156101000203166002900480601f0160208091040260200160405190810160405280929190818152602001828054600181600116156101000203166002900480156139bd5780601f10613992576101008083540402835291602001916139bd565b820191906000526020600020905b8154815290600101906020018083116139a057829003601f168201915b505050505081565b60006139db82600661411590919063ffffffff16565b9050919050565b600560009054906101000a900473ffffffffffffffffffffffffffffffffffffffff1681565b6000613a15338484614397565b905092915050565b6000600960009054906101000a900473ffffffffffffffffffffffffffffffffffffffff16905090565b60008054600181600116156101000203166002900480601f016020809104026020016040519081016040528092919081815260200182805460018160011615610100020316600290048015613add5780601f10613ab257610100808354040283529160200191613add565b820191906000526020600020905b815481529060010190602001808311613ac057829003601f168201915b505050505081565b600560159054906101000a900460ff1681565b60606000600460009054906101000a900473ffffffffffffffffffffffffffffffffffffffff1673ffffffffffffffffffffffffffffffffffffffff163373ffffffffffffffffffffffffffffffffffffffff16141515613bc1576040517f08c379a00000000000000000000000000000000000000000000000000000000081526004018080602001828103825260158152602001807f4f6e6c79206f776e657220697320616c6c6f776564000000000000000000000081525060200191505060405180910390fd5b8351604051908082528060200260200182016040528015613bf15781602001602082028038833980820191505090505b509150600090505b8084511115613c5a57613c238482815181101515613c1357fe5b90602001906020020151846154c4565b8282815181101515613c3157fe5b9060200190602002018181525050613c5360018261430f90919063ffffffff16565b9050613bf9565b5092915050565b600460009054906101000a900473ffffffffffffffffffffffffffffffffffffffff1673ffffffffffffffffffffffffffffffffffffffff163373ffffffffffffffffffffffffffffffffffffffff16141515613d26576040517f08c379a00000000000000000000000000000000000000000000000000000000081526004018080602001828103825260158152602001807f4f6e6c79206f776e657220697320616c6c6f776564000000000000000000000081525060200191505060405180910390fd5b80600560006101000a81548173ffffffffffffffffffffffffffffffffffffffff021916908373ffffffffffffffffffffffffffffffffffffffff16021790555050565b600080600a60008473ffffffffffffffffffffffffffffffffffffffff1673ffffffffffffffffffffffffffffffffffffffff16815260200190815260200160002090508060000154915050919050565b6000613dd1826006615c5b90919063ffffffff16565b9050919050565b6000600560159054906101000a900460ff161515613e51573373ffffffffffffffffffffffffffffffffffffffff16600460009054906101000a900473ffffffffffffffffffffffffffffffffffffffff1673ffffffffffffffffffffffffffffffffffffffff16141515613e4c57600080fd5b613e6e565b600560149054906101000a900460ff16151515613e6d57600080fd5b5b8273ffffffffffffffffffffffffffffffffffffffff16600073ffffffffffffffffffffffffffffffffffffffff1614151515613f13576040517f08c379a00000000000000000000000000000000000000000000000000000000081526004018080602001828103825260178152602001807f53656e646572206164647265737320697320656d70747900000000000000000081525060200191505060405180910390fd5b8173ffffffffffffffffffffffffffffffffffffffff16600073ffffffffffffffffffffffffffffffffffffffff1614151515613fb8576040517f08c379a00000000000000000000000000000000000000000000000000000000081526004018080602001828103825260178152602001807f536f75726365206164647265737320697320656d70747900000000000000000081525060200191505060405180910390fd5b61400b6001600e60008673ffffffffffffffffffffffffffffffffffffffff1673ffffffffffffffffffffffffffffffffffffffff1681526020019081526020016000205461430f90919063ffffffff16565b600e60008573ffffffffffffffffffffffffffffffffffffffff1673ffffffffffffffffffffffffffffffffffffffff16815260200190815260200160002081905590506020604051908101604052808373ffffffffffffffffffffffffffffffffffffffff16815250600d60008573ffffffffffffffffffffffffffffffffffffffff1673ffffffffffffffffffffffffffffffffffffffff168152602001908152602001600020600083815260200190815260200160002060008201518160000160006101000a81548173ffffffffffffffffffffffffffffffffffffffff021916908373ffffffffffffffffffffffffffffffffffffffff16021790555090505092915050565b60008260010160008373ffffffffffffffffffffffffffffffffffffffff1673ffffffffffffffffffffffffffffffffffffffff16815260200190815260200160002060009054906101000a900460ff16905092915050565b60008260020160008381526020019081526020016000206000600115151515815260200190815260200160002054905092915050565b565b606060008083600001546040519080825280602002602001820160405280156141de5781602001602082028038833980820191505090505b5092506141ea84615cdd565b9150600090505b8173ffffffffffffffffffffffffffffffffffffffff1660001415156142835781838281518110151561422057fe5b9060200190602002019073ffffffffffffffffffffffffffffffffffffffff16908173ffffffffffffffffffffffffffffffffffffffff16815250506142668483615c5b565b915061427c60018261430f90919063ffffffff16565b90506141f1565b5050919050565b6000828211151515614304576040517f08c379a00000000000000000000000000000000000000000000000000000000081526004018080602001828103825260158152602001807f5375627472616374696f6e20657863657074696f6e000000000000000000000081525060200191505060405180910390fd5b818303905092915050565b6000818301905082811015151561438e576040517f08c379a00000000000000000000000000000000000000000000000000000000081526004018080602001828103825260118152602001807f4164646974696f6e206563657074696f6e00000000000000000000000000000081525060200191505060405180910390fd5b80905092915050565b600080600080600560159054906101000a900460ff161515614414573373ffffffffffffffffffffffffffffffffffffffff16600460009054906101000a900473ffffffffffffffffffffffffffffffffffffffff1673ffffffffffffffffffffffffffffffffffffffff1614151561440f57600080fd5b614431565b600560149054906101000a900460ff1615151561443057600080fd5b5b8592508273ffffffffffffffffffffffffffffffffffffffff16637822ed496040518163ffffffff167c0100000000000000000000000000000000000000000000000000000000028152600401602060405180830381600087803b15801561449857600080fd5b505af11580156144ac573d6000803e3d6000fd5b505050506040513d60208110156144c257600080fd5b810190808051906020019092919050505091506144e982600661411590919063ffffffff16565b151561455d576040517f08c379a000000000000000000000000000000000000000000000000000000000815260040180806020018281038252601a8152602001807f42616e6b20696e7374616e6365206973206e6f742076616c696400000000000081525060200191505060405180910390fd5b8173ffffffffffffffffffffffffffffffffffffffff1663193eef40876040518263ffffffff167c0100000000000000000000000000000000000000000000000000000000028152600401808273ffffffffffffffffffffffffffffffffffffffff1673ffffffffffffffffffffffffffffffffffffffff168152602001915050602060405180830381600087803b1580156145f857600080fd5b505af115801561460c573d6000803e3d6000fd5b505050506040513d602081101561462257600080fd5b810190808051906020019092919050505015156146a7576040517f08c379a000000000000000000000000000000000000000000000000000000000815260040180806020018281038252601d8152602001807f4163636f756e7420696e7374616e6365206973206e6f742076616c696400000081525060200191505060405180910390fd5b8273ffffffffffffffffffffffffffffffffffffffff1663e05e247788876040518363ffffffff167c0100000000000000000000000000000000000000000000000000000000028152600401808373ffffffffffffffffffffffffffffffffffffffff1673ffffffffffffffffffffffffffffffffffffffff1681526020018273ffffffffffffffffffffffffffffffffffffffff1673ffffffffffffffffffffffffffffffffffffffff16815260200192505050602060405180830381600087803b15801561477657600080fd5b505af115801561478a573d6000803e3d6000fd5b505050506040513d60208110156147a057600080fd5b8101908080519060200190929190505050935083600014151561493157600a60008873ffffffffffffffffffffffffffffffffffffffff1673ffffffffffffffffffffffffffffffffffffffff1681526020019081526020016000209050614811848261493b90919063ffffffff16565b156148cc5761482c6001600c5461428a90919063ffffffff16565b600c819055508673ffffffffffffffffffffffffffffffffffffffff168673ffffffffffffffffffffffffffffffffffffffff167f5d2e8ab7c183c166fdd7b86535be3d91ab78a57ac57181e640e23555456941788688604051808381526020018273ffffffffffffffffffffffffffffffffffffffff1673ffffffffffffffffffffffffffffffffffffffff1681526020019250505060405180910390a35b600b6000858152602001908152602001600020600080820160006101000a81549073ffffffffffffffffffffffffffffffffffffffff02191690556001820160006101000a81549073ffffffffffffffffffffffffffffffffffffffff021916905550505b5050509392505050565b600082600101600083815260200190815260200160002060009054906101000a900460ff1615614b19578260020160008381526020019081526020016000206000801515151581526020019081526020016000205483600201600085600201600086815260200190815260200160002060006001151515158152602001908152602001600020548152602001908152602001600020600080151515158152602001908152602001600020819055508260020160008381526020019081526020016000206000600115151515815260200190815260200160002054836002016000856002016000868152602001908152602001600020600080151515158152602001908152602001600020548152602001908152602001600020600060011515151581526020019081526020016000208190555082600201600083815260200190815260200160002060006001151515158152602001908152602001600020600090558260020160008381526020019081526020016000206000801515151581526020019081526020016000206000905582600101600083815260200190815260200160002060006101000a81549060ff0219169055614b086001846000015461428a90919063ffffffff16565b836000018190555060019050614b1e565b600090505b92915050565b60008173ffffffffffffffffffffffffffffffffffffffff16600073ffffffffffffffffffffffffffffffffffffffff1614151515614bcb576040517f08c379a000000000000000000000000000000000000000000000000000000000815260040180806020018281038252601a8152602001807f5a65726f2061646472657373206973206e6f7420757361626c6500000000000081525060200191505060405180910390fd5b8260010160008373ffffffffffffffffffffffffffffffffffffffff1673ffffffffffffffffffffffffffffffffffffffff16815260200190815260200160002060009054906101000a900460ff161515614fe65760008360020160008473ffffffffffffffffffffffffffffffffffffffff1673ffffffffffffffffffffffffffffffffffffffff1681526020019081526020016000206000600115151515815260200190815260200160002060006101000a81548173ffffffffffffffffffffffffffffffffffffffff021916908373ffffffffffffffffffffffffffffffffffffffff1602179055508260020160008073ffffffffffffffffffffffffffffffffffffffff1673ffffffffffffffffffffffffffffffffffffffff16815260200190815260200160002060008015151515815260200190815260200160002060009054906101000a900473ffffffffffffffffffffffffffffffffffffffff168360020160008473ffffffffffffffffffffffffffffffffffffffff1673ffffffffffffffffffffffffffffffffffffffff16815260200190815260200160002060008015151515815260200190815260200160002060006101000a81548173ffffffffffffffffffffffffffffffffffffffff021916908373ffffffffffffffffffffffffffffffffffffffff160217905550818360020160008560020160008073ffffffffffffffffffffffffffffffffffffffff1673ffffffffffffffffffffffffffffffffffffffff16815260200190815260200160002060008015151515815260200190815260200160002060009054906101000a900473ffffffffffffffffffffffffffffffffffffffff1673ffffffffffffffffffffffffffffffffffffffff1673ffffffffffffffffffffffffffffffffffffffff1681526020019081526020016000206000600115151515815260200190815260200160002060006101000a81548173ffffffffffffffffffffffffffffffffffffffff021916908373ffffffffffffffffffffffffffffffffffffffff160217905550818360020160008073ffffffffffffffffffffffffffffffffffffffff1673ffffffffffffffffffffffffffffffffffffffff16815260200190815260200160002060008015151515815260200190815260200160002060006101000a81548173ffffffffffffffffffffffffffffffffffffffff021916908373ffffffffffffffffffffffffffffffffffffffff16021790555060018360010160008473ffffffffffffffffffffffffffffffffffffffff1673ffffffffffffffffffffffffffffffffffffffff16815260200190815260200160002060006101000a81548160ff021916908315150217905550614fd56001846000015461430f90919063ffffffff16565b836000018190555060019050614feb565b600090505b92915050565b60008260010160008373ffffffffffffffffffffffffffffffffffffffff1673ffffffffffffffffffffffffffffffffffffffff16815260200190815260200160002060009054906101000a900460ff16156154b9578260020160008373ffffffffffffffffffffffffffffffffffffffff1673ffffffffffffffffffffffffffffffffffffffff16815260200190815260200160002060008015151515815260200190815260200160002060009054906101000a900473ffffffffffffffffffffffffffffffffffffffff168360020160008560020160008673ffffffffffffffffffffffffffffffffffffffff1673ffffffffffffffffffffffffffffffffffffffff1681526020019081526020016000206000600115151515815260200190815260200160002060009054906101000a900473ffffffffffffffffffffffffffffffffffffffff1673ffffffffffffffffffffffffffffffffffffffff1673ffffffffffffffffffffffffffffffffffffffff16815260200190815260200160002060008015151515815260200190815260200160002060006101000a81548173ffffffffffffffffffffffffffffffffffffffff021916908373ffffffffffffffffffffffffffffffffffffffff1602179055508260020160008373ffffffffffffffffffffffffffffffffffffffff1673ffffffffffffffffffffffffffffffffffffffff1681526020019081526020016000206000600115151515815260200190815260200160002060009054906101000a900473ffffffffffffffffffffffffffffffffffffffff168360020160008560020160008673ffffffffffffffffffffffffffffffffffffffff1673ffffffffffffffffffffffffffffffffffffffff16815260200190815260200160002060008015151515815260200190815260200160002060009054906101000a900473ffffffffffffffffffffffffffffffffffffffff1673ffffffffffffffffffffffffffffffffffffffff1673ffffffffffffffffffffffffffffffffffffffff1681526020019081526020016000206000600115151515815260200190815260200160002060006101000a81548173ffffffffffffffffffffffffffffffffffffffff021916908373ffffffffffffffffffffffffffffffffffffffff1602179055508260020160008373ffffffffffffffffffffffffffffffffffffffff1673ffffffffffffffffffffffffffffffffffffffff1681526020019081526020016000206000600115151515815260200190815260200160002060006101000a81549073ffffffffffffffffffffffffffffffffffffffff02191690558260020160008373ffffffffffffffffffffffffffffffffffffffff1673ffffffffffffffffffffffffffffffffffffffff16815260200190815260200160002060008015151515815260200190815260200160002060006101000a81549073ffffffffffffffffffffffffffffffffffffffff02191690558260010160008373ffffffffffffffffffffffffffffffffffffffff1673ffffffffffffffffffffffffffffffffffffffff16815260200190815260200160002060006101000a81549060ff02191690556154a86001846000015461428a90919063ffffffff16565b8360000181905550600190506154be565b600090505b92915050565b600080600080600560159054906101000a900460ff161515615541573373ffffffffffffffffffffffffffffffffffffffff16600460009054906101000a900473ffffffffffffffffffffffffffffffffffffffff1673ffffffffffffffffffffffffffffffffffffffff1614151561553c57600080fd5b61555e565b600560149054906101000a900460ff1615151561555d57600080fd5b5b8492508273ffffffffffffffffffffffffffffffffffffffff16637822ed496040518163ffffffff167c0100000000000000000000000000000000000000000000000000000000028152600401602060405180830381600087803b1580156155c557600080fd5b505af11580156155d9573d6000803e3d6000fd5b505050506040513d60208110156155ef57600080fd5b8101908080519060200190929190505050915061561682600661411590919063ffffffff16565b151561568a576040517f08c379a000000000000000000000000000000000000000000000000000000000815260040180806020018281038252601a8152602001807f42616e6b20696e7374616e6365206973206e6f742076616c696400000000000081525060200191505060405180910390fd5b8173ffffffffffffffffffffffffffffffffffffffff1663193eef40866040518263ffffffff167c0100000000000000000000000000000000000000000000000000000000028152600401808273ffffffffffffffffffffffffffffffffffffffff1673ffffffffffffffffffffffffffffffffffffffff168152602001915050602060405180830381600087803b15801561572557600080fd5b505af1158015615739573d6000803e3d6000fd5b505050506040513d602081101561574f57600080fd5b810190808051906020019092919050505015156157d4576040517f08c379a000000000000000000000000000000000000000000000000000000000815260040180806020018281038252601d8152602001807f4163636f756e7420696e7374616e6365206973206e6f742076616c696400000081525060200191505060405180910390fd5b8273ffffffffffffffffffffffffffffffffffffffff166397c414df876040518263ffffffff167c0100000000000000000000000000000000000000000000000000000000028152600401808273ffffffffffffffffffffffffffffffffffffffff1673ffffffffffffffffffffffffffffffffffffffff168152602001915050602060405180830381600087803b15801561586f57600080fd5b505af1158015615883573d6000803e3d6000fd5b505050506040513d602081101561589957600080fd5b81019080805190602001909291905050509350600b600085815260200190815260200160002060010160009054906101000a900473ffffffffffffffffffffffffffffffffffffffff1673ffffffffffffffffffffffffffffffffffffffff16600073ffffffffffffffffffffffffffffffffffffffff161415156159f257600b600085815260200190815260200160002060000160009054906101000a900473ffffffffffffffffffffffffffffffffffffffff1673ffffffffffffffffffffffffffffffffffffffff168573ffffffffffffffffffffffffffffffffffffffff161415156159f1576040517f08c379a000000000000000000000000000000000000000000000000000000000815260040180806020018281038252601f8152602001807f4163636f756e742042494e2072616e676520697320636f6e666c69637465640081525060200191505060405180910390fd5b5b600a60008773ffffffffffffffffffffffffffffffffffffffff1673ffffffffffffffffffffffffffffffffffffffff1681526020019081526020016000209050615a468482615d5e90919063ffffffff16565b15615acd57615a616001600c5461430f90919063ffffffff16565b600c819055508573ffffffffffffffffffffffffffffffffffffffff168573ffffffffffffffffffffffffffffffffffffffff167f6e33e7975494cac67e6a92d39b039da369e351cb3dc17efac3f5694c7a3235ac866040518082815260200191505060405180910390a35b60408051908101604052808673ffffffffffffffffffffffffffffffffffffffff1681526020018773ffffffffffffffffffffffffffffffffffffffff16815250600b600086815260200190815260200160002060008201518160000160006101000a81548173ffffffffffffffffffffffffffffffffffffffff021916908373ffffffffffffffffffffffffffffffffffffffff16021790555060208201518160010160006101000a81548173ffffffffffffffffffffffffffffffffffffffff021916908373ffffffffffffffffffffffffffffffffffffffff16021790555090505050505092915050565b60606000808360000154604051908082528060200260200182016040528015615bf35781602001602082028038833980820191505090505b509250615bff84615f77565b9150600090505b816000141515615c5457818382815181101515615c1f57fe5b9060200190602002018181525050615c37848361416e565b9150615c4d60018261430f90919063ffffffff16565b9050615c06565b5050919050565b60008260020160008373ffffffffffffffffffffffffffffffffffffffff1673ffffffffffffffffffffffffffffffffffffffff1681526020019081526020016000206000600115151515815260200190815260200160002060009054906101000a900473ffffffffffffffffffffffffffffffffffffffff16905092915050565b60008160020160008073ffffffffffffffffffffffffffffffffffffffff1673ffffffffffffffffffffffffffffffffffffffff1681526020019081526020016000206000600115151515815260200190815260200160002060009054906101000a900473ffffffffffffffffffffffffffffffffffffffff169050919050565b600081600014151515615dd9576040517f08c379a00000000000000000000000000000000000000000000000000000000081526004018080602001828103825260188152602001807f5a65726f2076616c7565206973206e6f7420757361626c65000000000000000081525060200191505060405180910390fd5b82600101600083815260200190815260200160002060009054906101000a900460ff161515615f6c576000836002016000848152602001908152602001600020600060011515151581526020019081526020016000208190555082600201600080815260200190815260200160002060008015151515815260200190815260200160002054836002016000848152602001908152602001600020600080151515158152602001908152602001600020819055508183600201600085600201600080815260200190815260200160002060008015151515815260200190815260200160002054815260200190815260200160002060006001151515158152602001908152602001600020819055508183600201600080815260200190815260200160002060008015151515815260200190815260200160002081905550600183600101600084815260200190815260200160002060006101000a81548160ff021916908315150217905550615f5b6001846000015461430f90919063ffffffff16565b836000018190555060019050615f71565b600090505b92915050565b6000816002016000808152602001908152602001600020600060011515151581526020019081526020016000205490509190505600a165627a7a7230582032158ba074180b17f427d6770fda9925b0a51e3e396aa3b5f77e7ca704e423450029",
  "source": "pragma solidity ^0.4.24;\n\nimport \"./Controllable.sol\";\nimport \"./Label.sol\";\nimport \"./SafeMathLib.sol\";\nimport \"./ListLib.sol\";\nimport \"./Bank.sol\";\nimport \"./BankAccount.sol\";\nimport \"./XCoin.sol\";\n\ncontract Banks is Label, Controllable {\n    using SafeMath for uint256;\n    using ListLib for ListLib.AddressList;\n    using ListLib for ListLib.Uint256List;\n\n    string constant CLASS_CODE = \"BANKS\";\n\n    event AddedBank(address indexed bank);\n    event RemovedBank(address indexed bank);\n    event AddedBankAccount(address indexed bank, address account);\n    event RemovedBankAccount(address indexed bank, address account);\n    event AddedBankService(address indexed bank, address service);\n    event RemovedBankService(address indexed bank, address service);\n\n    event RegisteredAccount(address indexed account, address indexed holder, uint256 PAN);\n    event UnregisteredAccount(address indexed account, address indexed holder, uint256 PAN, address beneficent);\n\n    struct AccountLink {\n        address account;\n        address holder;\n    }\n\n    // Banks instance address\n    ListLib.AddressList banksList;\n\n    // Exchange Coin\n    XCoin xCoin;\n\n    // Account holder list (mapped: holder address => PAN list)\n    mapping(address => ListLib.Uint256List) holderPANsList;\n\n    // Registered PAN (mapped: PAN => AccountLink)\n    mapping(uint256 => AccountLink) public registeredPANs;\n    uint256 public registeredPANsCount;\n\n    struct Transaction {\n        address source;\n    }\n\n    // Transactions (mapped: holder address + transaction id => Transaction)\n    mapping(address => mapping(uint256 => Transaction)) public transactions;\n    mapping(address => uint256) public transactionsCount;\n\n    constructor(address _xCoinAddress, string _typeCode, string _label, string _description) public\n        Label(CLASS_CODE, _typeCode, _label, _description)\n    {\n        require(address(0) != _xCoinAddress, \"XCoin is not provided\");\n        xCoin = XCoin(_xCoinAddress);\n    }\n\n    /**\n     * Retrieve xCoin address\n     */\n    function xCoinAddress() public view\n        returns (address)\n    {\n        return address(xCoin);\n    }\n\n    /**\n     * Retrieve transactions\n     */\n    function getTransactions(uint256 _limit) public view\n        returns (address[], uint256)\n    {\n        return getTransactionsByAddress(msg.sender, _limit);\n    }\n\n    /**\n     * Retrieve transactions\n     */\n    function getTransactionsByAddress(address _sender, uint256 _limit) public view\n        returns (address[] sources, uint256 transactionId)\n    {\n        uint256 i;\n        uint256 count = transactionId = transactionsCount[_sender];\n\n        if (0 == _limit || _limit > count)\n            _limit = count;\n\n        sources = new address[](_limit);\n        \n        while (_limit > i) {\n            sources[i] = transactions[_sender][count].source;\n\n            count = count.sub(1);\n            i = i.add(1);\n        }\n    }\n\n    /**\n     * Retrieve transaction id\n     */\n    function getTransactionId() public view\n        returns (uint256)\n    {\n        return getTransactionIdByAddress(msg.sender);\n    }\n\n    /**\n     * Retrieve transaction id by others\n     */\n    function getTransactionIdByAddress(address _sender) public view\n        returns (uint256)\n    {\n        return transactionsCount[_sender].add(1);\n    }\n\n    function registerTransactionByBankAccount(address _sender, address _sourceAddress) public\n        returns (uint256)\n    {\n        // Check msg.sender is registered BankAccount\n        require (registeredBankAccount(msg.sender), \"Access denied\");\n        return _registerTransaction(_sender, _sourceAddress);\n    }\n\n    function registerTransactionByOwner(address _sender, address _sourceAddress) public\n        onlyOwner\n        returns (uint256)\n    {\n        return _registerTransaction(_sender, _sourceAddress);\n    }\n\n    function _registerTransaction(address _sender, address _sourceAddress) private\n        isUsable\n        returns (uint256 transactionId)\n    {\n        require(address(0) != _sender, \"Sender address is empty\");\n        require(address(0) != _sourceAddress, \"Source address is empty\");\n\n        transactionId = transactionsCount[_sender] = transactionsCount[_sender].add(1);\n\n        transactions[_sender][transactionId] = Transaction({\n            source: _sourceAddress\n        });\n    }\n\n    function registerAccount(address _accountAddress) public\n        returns (uint256 PAN)\n    {\n        return _registerAccount(msg.sender, _accountAddress);\n    }\n\n    function registerAccountByOwner(address[] _senders, address _accountAddress) public\n        onlyOwner\n        returns (uint256[] PANs)\n    {\n        PANs = new uint256[](_senders.length);\n\n        for (uint256 i = 0; _senders.length > i; i = i.add(1))\n            PANs[i] = _registerAccount(_senders[i], _accountAddress);\n    }\n\n    function _registerAccount(address _sender, address _accountAddress) private\n        isUsable\n        returns (uint256 PAN)\n    {\n        BankAccount account = BankAccount(_accountAddress);\n        Bank bank = Bank(account.bankAddress());\n\n        require(banksList.addressInUsed(address(bank)), \"Bank instance is not valid\");\n        require(bank.registeredAccount(_accountAddress), \"Account instance is not valid\");\n\n        PAN = account.registerAccount(_sender);\n\n        if (address(0) != registeredPANs[PAN].holder) {\n            // Other BankAccount is using the same BIN range\n            require (_accountAddress == registeredPANs[PAN].account, \"Account BIN range is conflicted\");\n        }\n\n        ListLib.Uint256List storage list = holderPANsList[_sender];\n\n        if (list.pushUint256(PAN)) {\n            registeredPANsCount = registeredPANsCount.add(1);\n            emit RegisteredAccount(_accountAddress, _sender, PAN);\n        }\n\n        registeredPANs[PAN] = AccountLink({\n            account: _accountAddress,\n            holder: _sender\n        });\n    }\n\n    function unregisterAccount(address _accountAddress, address _beneficentAddress) public\n        returns (uint256 PAN)\n    {\n        return _unregisterAccount(msg.sender, _accountAddress, _beneficentAddress);\n    }\n\n    function unregisterAccountByOwner(address[] _senders, address _accountAddress, address[] _beneficentAddresses) public\n        onlyOwner\n        returns (uint256[] PANs)\n    {\n        require(_senders.length == _beneficentAddresses.length, \"Holder list is not consistent\");\n        PANs = new uint256[](_senders.length);\n\n        for (uint256 i = 0; _senders.length > i; i = i.add(1))\n            PANs[i] = _unregisterAccount(_senders[i], _accountAddress, _beneficentAddresses[i]);\n    }\n\n    function _unregisterAccount(address _sender, address _accountAddress, address _beneficentAddress) private\n        isUsable\n        returns (uint256 PAN)\n    {\n        BankAccount account = BankAccount(_accountAddress);\n        Bank bank = Bank(account.bankAddress());\n\n        require(banksList.addressInUsed(address(bank)), \"Bank instance is not valid\");\n        require(bank.registeredAccount(_accountAddress), \"Account instance is not valid\");\n\n        PAN = account.unregisterAccount(_sender, _beneficentAddress);\n\n        if (0 != PAN) {\n            ListLib.Uint256List storage list = holderPANsList[_sender];\n\n            if (list.removeUint256(PAN)) {\n                registeredPANsCount = registeredPANsCount.sub(1);\n                emit UnregisteredAccount(_accountAddress, _sender, PAN, _beneficentAddress);\n            }\n\n            delete registeredPANs[PAN];\n        }\n    }\n\n    function registeredBankAccount(address _accountAddress) public view\n        returns (bool)\n    {\n        BankAccount account = BankAccount(_accountAddress);\n        Bank bank = Bank(account.bankAddress());\n\n        if (bank.registeredAccount(_accountAddress) && registeredBank(address(bank)))\n            return true;\n\n        return false;\n    }\n\n    function getPANs(address _holderAddress) public view\n        returns (uint256[] items)\n    {\n        ListLib.Uint256List storage list = holderPANsList[_holderAddress];\n        return list.uint256List();\n    }\n\n    function getPANsCount(address _holderAddress) public view\n        returns (uint256)\n    {\n        ListLib.Uint256List storage list = holderPANsList[_holderAddress];\n        return list.count;\n    }\n\n    function getNextPAN(address _holderAddress, uint256 _PAN) public view\n        returns (uint256)\n    {\n        ListLib.Uint256List storage list = holderPANsList[_holderAddress];\n        return list.nextUint256(_PAN);\n    }\n\n    function needSyncPANs() public view\n        isUsable\n        returns (bool)\n    {\n        ListLib.Uint256List storage list = holderPANsList[msg.sender];\n\n        uint256 PAN = list.nextUint256(0);\n\n        while (0 != PAN) {\n            // Remove those PAN that bank is not in the list\n            BankAccount account = BankAccount(registeredPANs[PAN].account);\n            address bankAddress = account.bankAddress();\n\n            if (!banksList.addressInUsed(bankAddress))\n                return true;\n\n            PAN = list.nextUint256(PAN);\n        }\n\n        return false;\n    }\n\n    function syncPANs() public\n        isUsable\n    {\n        ListLib.Uint256List storage list = holderPANsList[msg.sender];\n\n        uint256 rPAN;\n        uint256 PAN = list.nextUint256(0);\n\n        while (0 != PAN) {\n            // Remove those PAN that bank is not in the list\n            BankAccount account = BankAccount(registeredPANs[PAN].account);\n            address bankAddress = account.bankAddress();\n\n            if (!banksList.addressInUsed(bankAddress))\n                rPAN = PAN;\n\n            PAN = list.nextUint256(PAN);\n\n            if (0 != rPAN) {\n                list.removeUint256(rPAN);\n                delete registeredPANs[rPAN];\n\n                rPAN = 0;\n                registeredPANsCount = registeredPANsCount.sub(1);\n            }\n        }\n    }\n\n    function registeredPANsBatch(uint256[] _PANs) public view\n        returns (address[] accounts, address[] holders)\n    {\n        accounts = new address[](_PANs.length);\n        holders = new address[](_PANs.length);\n\n        for (uint256 i = 0; _PANs.length > i; i = i.add(1)) {\n            accounts[i] = registeredPANs[_PANs[i]].account;\n            holders[i] = registeredPANs[_PANs[i]].holder;\n        }\n    }\n\n    function addBank(address _bankAddress) public\n        onlyOwner\n        returns(bool success)\n    {\n        Bank bank = Bank(_bankAddress);\n\n        require(bank.sealed(), \"Bank instance is not sealed\");\n        require(banksList.pushAddress(_bankAddress), \"Duplicated bank instance\");\n\n        emit AddedBank(_bankAddress);\n        return true;\n    }\n\n    function removeBank(address _bankAddress) public\n        onlyOwner\n        returns(bool success)\n    {\n        if (banksList.removeAddress(_bankAddress))\n            emit RemovedBank(_bankAddress);\n        return true;\n    }\n\n    function getBanks() public view\n        returns (address[])\n    {\n        return banksList.addressList();\n    }\n\n    function getBanksCount() public view\n        returns (uint256)\n    {\n        return banksList.count;\n    }\n\n    function getNextBank(address _bankAddress) public view\n        returns (address)\n    {\n        return banksList.nextAddress(_bankAddress);\n    }\n\n    function registeredBank(address _bankAddress) public view\n        returns (bool)\n    {\n        return banksList.addressInUsed(_bankAddress);\n    }\n\n    function getBankAccount(uint256 _PAN) public view\n        returns (Bank holderBank, BankAccount holderAccount, address holderAddress)\n    {\n        AccountLink storage accountLink = registeredPANs[_PAN];\n        require(address(0) != accountLink.account && address(0) != accountLink.holder, \"Account PAN not valid\");\n        \n        holderAccount = BankAccount(accountLink.account);\n        holderBank = Bank(holderAccount.bankAddress());\n        holderAddress = accountLink.holder;\n\n        require(banksList.addressInUsed(address(holderBank)), \"Bank is not registered\");\n        require(holderBank.registeredAccount(address(holderAccount)), \"Bank account is not registered\");\n    }\n\n    function emitAddedBankAccount(address _accountAddress) public {\n        require(registeredBank(msg.sender), \"Access denied\");\n        emit AddedBankAccount(msg.sender, _accountAddress);\n    }\n\n    function emitRemovedBankAccount(address _accountAddress) public {\n        require(registeredBank(msg.sender), \"Access denied\");\n        emit RemovedBankAccount(msg.sender, _accountAddress);\n    }\n\n    function emitAddedBankService(address _serviceAddress) public {\n        require(registeredBank(msg.sender), \"Access denied\");\n        emit AddedBankService(msg.sender, _serviceAddress);\n    }\n\n    function emitRemovedBankService(address _serviceAddress) public {\n        require(registeredBank(msg.sender), \"Access denied\");\n        emit RemovedBankService(msg.sender, _serviceAddress);\n    }\n\n    function sealRequirement() private view\n    {\n    }\n\n}\n",
  "sourcePath": "/Users/jeansoonsik/Documents/work/oojibo/demos/proto/backend/contracts/Banks.sol",
  "compiler": {
    "name": "solc",
    "version": "0.4.24+commit.e67f0147.Emscripten.clang"
  },
  "schemaVersion": "2.0.1",
  "updatedAt": "2018-09-17T15:49:57.414Z"
}