{
  "contractName": "BSPayroll",
  "abi": [
    {
      "constant": true,
      "inputs": [],
      "name": "typeCode",
      "outputs": [
        {
          "name": "",
          "type": "string"
        }
      ],
      "payable": false,
      "stateMutability": "view",
      "type": "function"
    },
    {
      "constant": true,
      "inputs": [
        {
          "name": "",
          "type": "address"
        },
        {
          "name": "",
          "type": "uint256"
        }
      ],
      "name": "transactions",
      "outputs": [
        {
          "name": "inUsed",
          "type": "bool"
        },
        {
          "name": "timestamp",
          "type": "uint256"
        },
        {
          "name": "soPAN",
          "type": "uint256"
        },
        {
          "name": "soValues",
          "type": "uint256"
        },
        {
          "name": "toCount",
          "type": "uint256"
        },
        {
          "name": "soFees",
          "type": "uint256"
        },
        {
          "name": "metadata",
          "type": "string"
        }
      ],
      "payable": false,
      "stateMutability": "view",
      "type": "function"
    },
    {
      "constant": false,
      "inputs": [],
      "name": "seal",
      "outputs": [
        {
          "name": "success",
          "type": "bool"
        }
      ],
      "payable": false,
      "stateMutability": "nonpayable",
      "type": "function"
    },
    {
      "constant": true,
      "inputs": [],
      "name": "description",
      "outputs": [
        {
          "name": "",
          "type": "string"
        }
      ],
      "payable": false,
      "stateMutability": "view",
      "type": "function"
    },
    {
      "constant": true,
      "inputs": [],
      "name": "stopped",
      "outputs": [
        {
          "name": "",
          "type": "bool"
        }
      ],
      "payable": false,
      "stateMutability": "view",
      "type": "function"
    },
    {
      "constant": true,
      "inputs": [],
      "name": "bankAddress",
      "outputs": [
        {
          "name": "",
          "type": "address"
        }
      ],
      "payable": false,
      "stateMutability": "view",
      "type": "function"
    },
    {
      "constant": false,
      "inputs": [],
      "name": "acceptOwnership",
      "outputs": [],
      "payable": false,
      "stateMutability": "nonpayable",
      "type": "function"
    },
    {
      "constant": false,
      "inputs": [],
      "name": "destroy",
      "outputs": [],
      "payable": false,
      "stateMutability": "nonpayable",
      "type": "function"
    },
    {
      "constant": true,
      "inputs": [],
      "name": "owner",
      "outputs": [
        {
          "name": "",
          "type": "address"
        }
      ],
      "payable": false,
      "stateMutability": "view",
      "type": "function"
    },
    {
      "constant": false,
      "inputs": [],
      "name": "resumeMe",
      "outputs": [
        {
          "name": "success",
          "type": "bool"
        }
      ],
      "payable": false,
      "stateMutability": "nonpayable",
      "type": "function"
    },
    {
      "constant": false,
      "inputs": [],
      "name": "stopMe",
      "outputs": [
        {
          "name": "success",
          "type": "bool"
        }
      ],
      "payable": false,
      "stateMutability": "nonpayable",
      "type": "function"
    },
    {
      "constant": true,
      "inputs": [],
      "name": "label",
      "outputs": [
        {
          "name": "",
          "type": "string"
        }
      ],
      "payable": false,
      "stateMutability": "view",
      "type": "function"
    },
    {
      "constant": true,
      "inputs": [],
      "name": "newOwner",
      "outputs": [
        {
          "name": "",
          "type": "address"
        }
      ],
      "payable": false,
      "stateMutability": "view",
      "type": "function"
    },
    {
      "constant": true,
      "inputs": [],
      "name": "classCode",
      "outputs": [
        {
          "name": "",
          "type": "string"
        }
      ],
      "payable": false,
      "stateMutability": "view",
      "type": "function"
    },
    {
      "constant": true,
      "inputs": [],
      "name": "sealed",
      "outputs": [
        {
          "name": "",
          "type": "bool"
        }
      ],
      "payable": false,
      "stateMutability": "view",
      "type": "function"
    },
    {
      "constant": false,
      "inputs": [
        {
          "name": "_newOwner",
          "type": "address"
        }
      ],
      "name": "transferOwnership",
      "outputs": [],
      "payable": false,
      "stateMutability": "nonpayable",
      "type": "function"
    },
    {
      "inputs": [
        {
          "name": "_bankAddress",
          "type": "address"
        },
        {
          "name": "_label",
          "type": "string"
        },
        {
          "name": "_description",
          "type": "string"
        }
      ],
      "payable": false,
      "stateMutability": "nonpayable",
      "type": "constructor"
    },
    {
      "anonymous": false,
      "inputs": [
        {
          "indexed": false,
          "name": "transactionId",
          "type": "uint256"
        },
        {
          "indexed": false,
          "name": "timestamp",
          "type": "uint256"
        },
        {
          "indexed": true,
          "name": "soPAN",
          "type": "uint256"
        },
        {
          "indexed": true,
          "name": "toPAN",
          "type": "uint256"
        },
        {
          "indexed": false,
          "name": "soValue",
          "type": "uint256"
        },
        {
          "indexed": false,
          "name": "toValue",
          "type": "uint256"
        },
        {
          "indexed": false,
          "name": "fee",
          "type": "uint256"
        },
        {
          "indexed": false,
          "name": "rate",
          "type": "uint256"
        }
      ],
      "name": "ServiceTransfer",
      "type": "event"
    },
    {
      "anonymous": false,
      "inputs": [
        {
          "indexed": false,
          "name": "transactionId",
          "type": "uint256"
        },
        {
          "indexed": false,
          "name": "timestamp",
          "type": "uint256"
        },
        {
          "indexed": true,
          "name": "soPAN",
          "type": "uint256"
        },
        {
          "indexed": false,
          "name": "soValues",
          "type": "uint256"
        },
        {
          "indexed": false,
          "name": "toCount",
          "type": "uint256"
        },
        {
          "indexed": false,
          "name": "soFees",
          "type": "uint256"
        }
      ],
      "name": "ServiceTransaction",
      "type": "event"
    },
    {
      "anonymous": false,
      "inputs": [],
      "name": "Stopped",
      "type": "event"
    },
    {
      "anonymous": false,
      "inputs": [],
      "name": "Resumed",
      "type": "event"
    },
    {
      "anonymous": false,
      "inputs": [],
      "name": "Sealed",
      "type": "event"
    },
    {
      "anonymous": false,
      "inputs": [],
      "name": "Destroyed",
      "type": "event"
    },
    {
      "anonymous": false,
      "inputs": [
        {
          "indexed": true,
          "name": "_from",
          "type": "address"
        },
        {
          "indexed": true,
          "name": "_to",
          "type": "address"
        }
      ],
      "name": "OwnershipTransferred",
      "type": "event"
    },
    {
      "constant": false,
      "inputs": [
        {
          "name": "_sender",
          "type": "address"
        },
        {
          "name": "_metadata",
          "type": "string"
        },
        {
          "name": "_soPAN",
          "type": "uint256"
        },
        {
          "name": "_toPANs",
          "type": "uint256[]"
        },
        {
          "name": "_values",
          "type": "uint256[]"
        },
        {
          "name": "_fees",
          "type": "uint256[]"
        },
        {
          "name": "_rates",
          "type": "uint256[]"
        }
      ],
      "name": "transfer",
      "outputs": [
        {
          "name": "transactionId",
          "type": "uint256"
        }
      ],
      "payable": false,
      "stateMutability": "nonpayable",
      "type": "function"
    },
    {
      "constant": true,
      "inputs": [
        {
          "name": "",
          "type": "address"
        },
        {
          "name": "_soPAN",
          "type": "uint256"
        },
        {
          "name": "_toPANs",
          "type": "uint256[]"
        },
        {
          "name": "_values",
          "type": "uint256[]"
        }
      ],
      "name": "transferInfo",
      "outputs": [
        {
          "name": "fees",
          "type": "uint256[]"
        },
        {
          "name": "rates",
          "type": "uint256[]"
        },
        {
          "name": "soValues",
          "type": "uint256[]"
        }
      ],
      "payable": false,
      "stateMutability": "view",
      "type": "function"
    }
  ],
  "bytecode": "0x60806040523480156200001157600080fd5b5060405162002f3438038062002f34833981018060405281019080805190602001909291908051820192919060200180518201929190505050826040805190810160405280600781526020017f504159524f4c4c0000000000000000000000000000000000000000000000000081525083836000806000806040805190810160405280600c81526020017f42414e4b5f5345525649434500000000000000000000000000000000000000008152508787878360009080519060200190620000da92919062000736565b508260019080519060200190620000f392919062000736565b5081600290805190602001906200010c92919062000736565b5080600390805190602001906200012592919062000736565b505050505033600460006101000a81548173ffffffffffffffffffffffffffffffffffffffff021916908373ffffffffffffffffffffffffffffffffffffffff1602179055506001600560156101000a81548160ff0219169083151502179055508773ffffffffffffffffffffffffffffffffffffffff16600073ffffffffffffffffffffffffffffffffffffffff161415156200053a5787600660006101000a81548173ffffffffffffffffffffffffffffffffffffffff021916908373ffffffffffffffffffffffffffffffffffffffff160217905550600660009054906101000a900473ffffffffffffffffffffffffffffffffffffffff1693508373ffffffffffffffffffffffffffffffffffffffff1663e79466816040518163ffffffff167c0100000000000000000000000000000000000000000000000000000000028152600401602060405180830381600087803b1580156200028857600080fd5b505af11580156200029d573d6000803e3d6000fd5b505050506040513d6020811015620002b457600080fd5b810190808051906020019092919050505092508273ffffffffffffffffffffffffffffffffffffffff1663e092d49d6040518163ffffffff167c0100000000000000000000000000000000000000000000000000000000028152600401602060405180830381600087803b1580156200032c57600080fd5b505af115801562000341573d6000803e3d6000fd5b505050506040513d60208110156200035857600080fd5b810190808051906020019092919050505091508173ffffffffffffffffffffffffffffffffffffffff16600073ffffffffffffffffffffffffffffffffffffffff161415151562000411576040517f08c379a000000000000000000000000000000000000000000000000000000000815260040180806020018281038252601e8152602001807f45786368616e676520636f696e206973206e6f7420617661696c61626c65000081525060200191505060405180910390fd5b8190508073ffffffffffffffffffffffffffffffffffffffff166327918b233069be951906eba2aa8000006040518363ffffffff167c0100000000000000000000000000000000000000000000000000000000028152600401808373ffffffffffffffffffffffffffffffffffffffff1673ffffffffffffffffffffffffffffffffffffffff16815260200182815260200180602001828103825260138152602001807f4661756365743a2042616e6b53657276696365000000000000000000000000008152506020019350505050602060405180830381600087803b158015620004fb57600080fd5b505af115801562000510573d6000803e3d6000fd5b505050506040513d60208110156200052757600080fd5b8101908080519060200190929190505050505b50505050505050508273ffffffffffffffffffffffffffffffffffffffff16600073ffffffffffffffffffffffffffffffffffffffff1614151515620005e8576040517f08c379a00000000000000000000000000000000000000000000000000000000081526004018080602001828103825260158152602001807f42616e6b206164647265737320697320656d707479000000000000000000000081525060200191505060405180910390fd5b82600860006101000a81548173ffffffffffffffffffffffffffffffffffffffff021916908373ffffffffffffffffffffffffffffffffffffffff160217905550600860009054906101000a900473ffffffffffffffffffffffffffffffffffffffff1673ffffffffffffffffffffffffffffffffffffffff1663e79466816040518163ffffffff167c0100000000000000000000000000000000000000000000000000000000028152600401602060405180830381600087803b158015620006b057600080fd5b505af1158015620006c5573d6000803e3d6000fd5b505050506040513d6020811015620006dc57600080fd5b8101908080519060200190929190505050600960006101000a81548173ffffffffffffffffffffffffffffffffffffffff021916908373ffffffffffffffffffffffffffffffffffffffff160217905550505050620007e5565b828054600181600116156101000203166002900490600052602060002090601f016020900481019282601f106200077957805160ff1916838001178555620007aa565b82800160010185558215620007aa579182015b82811115620007a95782518255916020019190600101906200078c565b5b509050620007b99190620007bd565b5090565b620007e291905b80821115620007de576000816000905550600101620007c4565b5090565b90565b61273f80620007f56000396000f3006080604052600436106100fc576000357c0100000000000000000000000000000000000000000000000000000000900463ffffffff1680630f81a38f1461010157806314538128146101915780632e79b9f2146102855780633fb27b85146104385780637284e4161461046757806375f12b21146104f75780637822ed491461052657806379ba50971461057d57806383197ef0146105945780638da5cb5b146105ab5780639886b14414610602578063ae8a79be14610631578063bc699e75146107e9578063cb4774c414610818578063d4ee1d90146108a8578063e24ff744146108ff578063e4b203ef1461098f578063f2fde38b146109be575b600080fd5b34801561010d57600080fd5b50610116610a01565b6040518080602001828103825283818151815260200191508051906020019080838360005b8381101561015657808201518184015260208101905061013b565b50505050905090810190601f1680156101835780820380516001836020036101000a031916815260200191505b509250505060405180910390f35b34801561019d57600080fd5b506101dc600480360381019080803573ffffffffffffffffffffffffffffffffffffffff16906020019092919080359060200190929190505050610a9f565b604051808815151515815260200187815260200186815260200185815260200184815260200183815260200180602001828103825283818151815260200191508051906020019080838360005b83811015610244578082015181840152602081019050610229565b50505050905090810190601f1680156102715780820380516001836020036101000a031916815260200191505b509850505050505050505060405180910390f35b34801561029157600080fd5b50610422600480360381019080803573ffffffffffffffffffffffffffffffffffffffff169060200190929190803590602001908201803590602001908080601f01602080910402602001604051908101604052809392919081815260200183838082843782019150505050505091929192908035906020019092919080359060200190820180359060200190808060200260200160405190810160405280939291908181526020018383602002808284378201915050505050509192919290803590602001908201803590602001908080602002602001604051908101604052809392919081815260200183836020028082843782019150505050505091929192908035906020019082018035906020019080806020026020016040519081016040528093929190818152602001838360200280828437820191505050505050919291929080359060200190820180359060200190808060200260200160405190810160405280939291908181526020018383602002808284378201915050505050509192919290505050610b93565b6040518082815260200191505060405180910390f35b34801561044457600080fd5b5061044d611078565b604051808215151515815260200191505060405180910390f35b34801561047357600080fd5b5061047c611277565b6040518080602001828103825283818151815260200191508051906020019080838360005b838110156104bc5780820151818401526020810190506104a1565b50505050905090810190601f1680156104e95780820380516001836020036101000a031916815260200191505b509250505060405180910390f35b34801561050357600080fd5b5061050c611315565b604051808215151515815260200191505060405180910390f35b34801561053257600080fd5b5061053b611328565b604051808273ffffffffffffffffffffffffffffffffffffffff1673ffffffffffffffffffffffffffffffffffffffff16815260200191505060405180910390f35b34801561058957600080fd5b5061059261134e565b005b3480156105a057600080fd5b506105a9611558565b005b3480156105b757600080fd5b506105c061168d565b604051808273ffffffffffffffffffffffffffffffffffffffff1673ffffffffffffffffffffffffffffffffffffffff16815260200191505060405180910390f35b34801561060e57600080fd5b506106176116b3565b604051808215151515815260200191505060405180910390f35b34801561063d57600080fd5b50610702600480360381019080803573ffffffffffffffffffffffffffffffffffffffff1690602001909291908035906020019092919080359060200190820180359060200190808060200260200160405190810160405280939291908181526020018383602002808284378201915050505050509192919290803590602001908201803590602001908080602002602001604051908101604052809392919081815260200183836020028082843782019150505050505091929192905050506117c8565b60405180806020018060200180602001848103845287818151815260200191508051906020019060200280838360005b8381101561074d578082015181840152602081019050610732565b50505050905001848103835286818151815260200191508051906020019060200280838360005b8381101561078f578082015181840152602081019050610774565b50505050905001848103825285818151815260200191508051906020019060200280838360005b838110156107d15780820151818401526020810190506107b6565b50505050905001965050505050505060405180910390f35b3480156107f557600080fd5b506107fe611ebf565b604051808215151515815260200191505060405180910390f35b34801561082457600080fd5b5061082d611fd4565b6040518080602001828103825283818151815260200191508051906020019080838360005b8381101561086d578082015181840152602081019050610852565b50505050905090810190601f16801561089a5780820380516001836020036101000a031916815260200191505b509250505060405180910390f35b3480156108b457600080fd5b506108bd612072565b604051808273ffffffffffffffffffffffffffffffffffffffff1673ffffffffffffffffffffffffffffffffffffffff16815260200191505060405180910390f35b34801561090b57600080fd5b50610914612098565b6040518080602001828103825283818151815260200191508051906020019080838360005b83811015610954578082015181840152602081019050610939565b50505050905090810190601f1680156109815780820380516001836020036101000a031916815260200191505b509250505060405180910390f35b34801561099b57600080fd5b506109a4612136565b604051808215151515815260200191505060405180910390f35b3480156109ca57600080fd5b506109ff600480360381019080803573ffffffffffffffffffffffffffffffffffffffff169060200190929190505050612149565b005b60018054600181600116156101000203166002900480601f016020809104026020016040519081016040528092919081815260200182805460018160011615610100020316600290048015610a975780601f10610a6c57610100808354040283529160200191610a97565b820191906000526020600020905b815481529060010190602001808311610a7a57829003601f168201915b505050505081565b6007602052816000526040600020602052806000526040600020600091509150508060000160009054906101000a900460ff1690806001015490806002015490806003015490806004015490806005015490806006018054600181600116156101000203166002900480601f016020809104026020016040519081016040528092919081815260200182805460018160011615610100020316600290048015610b895780601f10610b5e57610100808354040283529160200191610b89565b820191906000526020600020905b815481529060010190602001808311610b6c57829003601f168201915b5050505050905087565b6000806000806000600560159054906101000a900460ff161515610c12573373ffffffffffffffffffffffffffffffffffffffff16600460009054906101000a900473ffffffffffffffffffffffffffffffffffffffff1673ffffffffffffffffffffffffffffffffffffffff16141515610c0d57600080fd5b610c2f565b600560149054906101000a900460ff16151515610c2e57600080fd5b5b600960009054906101000a900473ffffffffffffffffffffffffffffffffffffffff1673ffffffffffffffffffffffffffffffffffffffff16630d3127708b6040518263ffffffff167c010000000000000000000000000000000000000000000000000000000002815260040180828152602001915050606060405180830381600087803b158015610cc057600080fd5b505af1158015610cd4573d6000803e3d6000fd5b505050506040513d6060811015610cea57600080fd5b810190808051906020019092919080519060200190929190805190602001909291905050509350935093508273ffffffffffffffffffffffffffffffffffffffff163373ffffffffffffffffffffffffffffffffffffffff16148015610d7b57508173ffffffffffffffffffffffffffffffffffffffff168c73ffffffffffffffffffffffffffffffffffffffff16145b1515610def576040517f08c379a000000000000000000000000000000000000000000000000000000000815260040180806020018281038252600d8152602001807f4163636573732064656e6965640000000000000000000000000000000000000081525060200191505060405180910390fd5b600960009054906101000a900473ffffffffffffffffffffffffffffffffffffffff1673ffffffffffffffffffffffffffffffffffffffff1663430569748d6040518263ffffffff167c0100000000000000000000000000000000000000000000000000000000028152600401808273ffffffffffffffffffffffffffffffffffffffff1673ffffffffffffffffffffffffffffffffffffffff168152602001915050602060405180830381600087803b158015610eac57600080fd5b505af1158015610ec0573d6000803e3d6000fd5b505050506040513d6020811015610ed657600080fd5b81019080805190602001909291905050509450600760008d73ffffffffffffffffffffffffffffffffffffffff1673ffffffffffffffffffffffffffffffffffffffff168152602001908152602001600020600086815260200190815260200160002060000160009054906101000a900460ff16151515610fbf576040517f08c379a00000000000000000000000000000000000000000000000000000000081526004018080602001828103825260198152602001807f4475706c696361746564207472616e73616374696f6e2069640000000000000081525060200191505060405180910390fd5b600760008d73ffffffffffffffffffffffffffffffffffffffff1673ffffffffffffffffffffffffffffffffffffffff1681526020019081526020016000206000868152602001908152602001600020905060018160000160006101000a81548160ff0219169083151502179055504281600101819055508981600201819055508a81600601908051906020019061105892919061266e565b506110698186868d8d8d8d8d612252565b50505050979650505050505050565b6000600460009054906101000a900473ffffffffffffffffffffffffffffffffffffffff1673ffffffffffffffffffffffffffffffffffffffff163373ffffffffffffffffffffffffffffffffffffffff1614151561113f576040517f08c379a00000000000000000000000000000000000000000000000000000000081526004018080602001828103825260158152602001807f4f6e6c79206f776e657220697320616c6c6f776564000000000000000000000081525060200191505060405180910390fd5b600560159054906101000a900460ff1615151561115b57600080fd5b600560009054906101000a900473ffffffffffffffffffffffffffffffffffffffff1673ffffffffffffffffffffffffffffffffffffffff16600073ffffffffffffffffffffffffffffffffffffffff16141515611221576040517f08c379a00000000000000000000000000000000000000000000000000000000081526004018080602001828103825260208152602001807f5472616e73666572206f776e65727368697020697320696e636f6d706c65746581525060200191505060405180910390fd5b6112296125e4565b6001600560156101000a81548160ff0219169083151502179055507f1b2d71eb44f882534bf4e86f940c56ccc869ffb927e2bab86561de93950c221660405160405180910390a16001905090565b60038054600181600116156101000203166002900480601f01602080910402602001604051908101604052809291908181526020018280546001816001161561010002031660029004801561130d5780601f106112e25761010080835404028352916020019161130d565b820191906000526020600020905b8154815290600101906020018083116112f057829003601f168201915b505050505081565b600560149054906101000a900460ff1681565b600660009054906101000a900473ffffffffffffffffffffffffffffffffffffffff1681565b600560009054906101000a900473ffffffffffffffffffffffffffffffffffffffff1673ffffffffffffffffffffffffffffffffffffffff163373ffffffffffffffffffffffffffffffffffffffff16141515611413576040517f08c379a00000000000000000000000000000000000000000000000000000000081526004018080602001828103825260198152602001807f4f6e6c79206e6577206f776e657220697320616c6c6f7765640000000000000081525060200191505060405180910390fd5b600560009054906101000a900473ffffffffffffffffffffffffffffffffffffffff1673ffffffffffffffffffffffffffffffffffffffff16600460009054906101000a900473ffffffffffffffffffffffffffffffffffffffff1673ffffffffffffffffffffffffffffffffffffffff167f8be0079c531659141344cd1fd0a4f28419497f9722a3daafe3b4186f6b6457e060405160405180910390a3600560009054906101000a900473ffffffffffffffffffffffffffffffffffffffff16600460006101000a81548173ffffffffffffffffffffffffffffffffffffffff021916908373ffffffffffffffffffffffffffffffffffffffff1602179055506000600560006101000a81548173ffffffffffffffffffffffffffffffffffffffff021916908373ffffffffffffffffffffffffffffffffffffffff160217905550565b600460009054906101000a900473ffffffffffffffffffffffffffffffffffffffff1673ffffffffffffffffffffffffffffffffffffffff163373ffffffffffffffffffffffffffffffffffffffff1614151561161d576040517f08c379a00000000000000000000000000000000000000000000000000000000081526004018080602001828103825260158152602001807f4f6e6c79206f776e657220697320616c6c6f776564000000000000000000000081525060200191505060405180910390fd5b611625611ebf565b507fcc0e82c1b8fa4695d6ae60217024b293814bde0f381a23cafaa0a1e25973c14b60405160405180910390a1600460009054906101000a900473ffffffffffffffffffffffffffffffffffffffff1673ffffffffffffffffffffffffffffffffffffffff16ff5b600460009054906101000a900473ffffffffffffffffffffffffffffffffffffffff1681565b6000600460009054906101000a900473ffffffffffffffffffffffffffffffffffffffff1673ffffffffffffffffffffffffffffffffffffffff163373ffffffffffffffffffffffffffffffffffffffff1614151561177a576040517f08c379a00000000000000000000000000000000000000000000000000000000081526004018080602001828103825260158152602001807f4f6e6c79206f776e657220697320616c6c6f776564000000000000000000000081525060200191505060405180910390fd5b6000600560146101000a81548160ff0219169083151502179055507f62451d457bc659158be6e6247f56ec1df424a5c7597f71c20c2bc44e0965c8f960405160405180910390a16001905090565b6060806060600080600080600560159054906101000a900460ff16151561184a573373ffffffffffffffffffffffffffffffffffffffff16600460009054906101000a900473ffffffffffffffffffffffffffffffffffffffff1673ffffffffffffffffffffffffffffffffffffffff1614151561184557600080fd5b611867565b600560149054906101000a900460ff1615151561186657600080fd5b5b88516040519080825280602002602001820160405280156118975781602001602082028038833980820191505090505b50965088516040519080825280602002602001820160405280156118ca5781602001602082028038833980820191505090505b50955088516040519080825280602002602001820160405280156118fd5781602001602082028038833980820191505090505b509450600960009054906101000a900473ffffffffffffffffffffffffffffffffffffffff1673ffffffffffffffffffffffffffffffffffffffff16630d3127708b6040518263ffffffff167c010000000000000000000000000000000000000000000000000000000002815260040180828152602001915050606060405180830381600087803b15801561199157600080fd5b505af11580156119a5573d6000803e3d6000fd5b505050506040513d60608110156119bb57600080fd5b81019080805190602001909291908051906020019092919080519060200190929190505050509450508373ffffffffffffffffffffffffffffffffffffffff1663e102e5e36040518163ffffffff167c0100000000000000000000000000000000000000000000000000000000028152600401602060405180830381600087803b158015611a4857600080fd5b505af1158015611a5c573d6000803e3d6000fd5b505050506040513d6020811015611a7257600080fd5b81019080805190602001909291905050509250600090505b8089511115611eb157600960009054906101000a900473ffffffffffffffffffffffffffffffffffffffff1673ffffffffffffffffffffffffffffffffffffffff16630d3127708a83815181101515611adf57fe5b906020019060200201516040518263ffffffff167c010000000000000000000000000000000000000000000000000000000002815260040180828152602001915050606060405180830381600087803b158015611b3b57600080fd5b505af1158015611b4f573d6000803e3d6000fd5b505050506040513d6060811015611b6557600080fd5b81019080805190602001909291908051906020019092919080519060200190929190505050909150508092505060648782815181101515611ba257fe5b90602001906020020181815250508373ffffffffffffffffffffffffffffffffffffffff1663c8f38dc0848473ffffffffffffffffffffffffffffffffffffffff1663e102e5e36040518163ffffffff167c0100000000000000000000000000000000000000000000000000000000028152600401602060405180830381600087803b158015611c3157600080fd5b505af1158015611c45573d6000803e3d6000fd5b505050506040513d6020811015611c5b57600080fd5b81019080805190602001909291905050506040518363ffffffff167c0100000000000000000000000000000000000000000000000000000000028152600401808361ffff1661ffff1681526020018261ffff1661ffff16815260200192505050602060405180830381600087803b158015611cd557600080fd5b505af1158015611ce9573d6000803e3d6000fd5b505050506040513d6020811015611cff57600080fd5b81019080805190602001909291905050508682815181101515611d1e57fe5b90602001906020020181815250508173ffffffffffffffffffffffffffffffffffffffff168473ffffffffffffffffffffffffffffffffffffffff161415611d99578781815181101515611d6e57fe5b906020019060200201518582815181101515611d8657fe5b9060200190602002018181525050611e96565b8373ffffffffffffffffffffffffffffffffffffffff1663121a8d0f8983815181101515611dc357fe5b906020019060200201518884815181101515611ddb57fe5b906020019060200201516040518363ffffffff167c01000000000000000000000000000000000000000000000000000000000281526004018083815260200182815260200192505050602060405180830381600087803b158015611e3e57600080fd5b505af1158015611e52573d6000803e3d6000fd5b505050506040513d6020811015611e6857600080fd5b81019080805190602001909291905050508582815181101515611e8757fe5b90602001906020020181815250505b611eaa6001826125e690919063ffffffff16565b9050611a8a565b505050509450945094915050565b6000600460009054906101000a900473ffffffffffffffffffffffffffffffffffffffff1673ffffffffffffffffffffffffffffffffffffffff163373ffffffffffffffffffffffffffffffffffffffff16141515611f86576040517f08c379a00000000000000000000000000000000000000000000000000000000081526004018080602001828103825260158152602001807f4f6e6c79206f776e657220697320616c6c6f776564000000000000000000000081525060200191505060405180910390fd5b6001600560146101000a81548160ff0219169083151502179055507f7acc84e34091ae817647a4c49116f5cc07f319078ba80f8f5fde37ea7e25cbd660405160405180910390a16001905090565b60028054600181600116156101000203166002900480601f01602080910402602001604051908101604052809291908181526020018280546001816001161561010002031660029004801561206a5780601f1061203f5761010080835404028352916020019161206a565b820191906000526020600020905b81548152906001019060200180831161204d57829003601f168201915b505050505081565b600560009054906101000a900473ffffffffffffffffffffffffffffffffffffffff1681565b60008054600181600116156101000203166002900480601f01602080910402602001604051908101604052809291908181526020018280546001816001161561010002031660029004801561212e5780601f106121035761010080835404028352916020019161212e565b820191906000526020600020905b81548152906001019060200180831161211157829003601f168201915b505050505081565b600560159054906101000a900460ff1681565b600460009054906101000a900473ffffffffffffffffffffffffffffffffffffffff1673ffffffffffffffffffffffffffffffffffffffff163373ffffffffffffffffffffffffffffffffffffffff1614151561220e576040517f08c379a00000000000000000000000000000000000000000000000000000000081526004018080602001828103825260158152602001807f4f6e6c79206f776e657220697320616c6c6f776564000000000000000000000081525060200191505060405180910390fd5b80600560006101000a81548173ffffffffffffffffffffffffffffffffffffffff021916908373ffffffffffffffffffffffffffffffffffffffff16021790555050565b600080600090505b808651111561257057838181518110151561227157fe5b9060200190602002015160641415156122f2576040517f08c379a00000000000000000000000000000000000000000000000000000000081526004018080602001828103825260118152602001807f466565206973206d69736d61746368656400000000000000000000000000000081525060200191505060405180910390fd5b8773ffffffffffffffffffffffffffffffffffffffff166336b6b28688888481518110151561231d57fe5b90602001906020020151888581518110151561233557fe5b90602001906020020151888681518110151561234d57fe5b906020019060200201516000898881518110151561236757fe5b906020019060200201516040518763ffffffff167c0100000000000000000000000000000000000000000000000000000000028152600401808781526020018681526020018581526020018481526020018381526020018281526020019650505050505050602060405180830381600087803b1580156123e657600080fd5b505af11580156123fa573d6000803e3d6000fd5b505050506040513d602081101561241057600080fd5b8101908080519060200190929190505050915061243a828b600301546125e690919063ffffffff16565b8a6003018190555061245a60018b600401546125e690919063ffffffff16565b8a60040181905550612490848281518110151561247357fe5b906020019060200201518b600501546125e690919063ffffffff16565b8a6005018190555085818151811015156124a657fe5b90602001906020020151877f8d3ad2834fb3da7e4c4e049f51b15b3c842bd6d030f094bd6c72e3642b2334578b42868a878151811015156124e357fe5b906020019060200201518a888151811015156124fb57fe5b906020019060200201518a8981518110151561251357fe5b9060200190602002015160405180878152602001868152602001858152602001848152602001838152602001828152602001965050505050505060405180910390a36125696001826125e690919063ffffffff16565b905061225a565b867f03ca253c6b9f772efbee6d027ccc43abe3aa814dc2944979f09a7fad265b009e8a8c600101548d600301548e600401548f60050154604051808681526020018581526020018481526020018381526020018281526020019550505050505060405180910390a250505050505050505050565b565b60008183019050828110151515612665576040517f08c379a00000000000000000000000000000000000000000000000000000000081526004018080602001828103825260118152602001807f4164646974696f6e206563657074696f6e00000000000000000000000000000081525060200191505060405180910390fd5b80905092915050565b828054600181600116156101000203166002900490600052602060002090601f016020900481019282601f106126af57805160ff19168380011785556126dd565b828001600101855582156126dd579182015b828111156126dc5782518255916020019190600101906126c1565b5b5090506126ea91906126ee565b5090565b61271091905b8082111561270c5760008160009055506001016126f4565b5090565b905600a165627a7a723058202b635f6811ba1af80ccf7079aa55eb6a79297bf6aef86f85c0fbd0117445541a0029",
  "source": "pragma solidity ^0.4.24;\n\nimport \"./SafeMathLib.sol\";\nimport \"./BankService.sol\";\nimport \"./BankAccount.sol\";\nimport \"./Bank.sol\";\nimport \"./Banks.sol\";\n\ncontract BSPayroll is BankService {\n    using SafeMath for uint256;\n\n    string constant TYPE_CODE = \"PAYROLL\";\n\n    event ServiceTransfer(uint256 transactionId, uint256 timestamp, uint256 indexed soPAN, uint256 indexed toPAN, uint256 soValue, uint256 toValue, uint256 fee, uint256 rate);\n    event ServiceTransaction(uint256 transactionId, uint256 timestamp, uint256 indexed soPAN, uint256 soValues, uint256 toCount, uint256 soFees);\n\n    struct Transaction {\n        bool inUsed;\n        uint256 timestamp;\n        uint256 soPAN;\n        uint256 soValues;\n        uint256 toCount;\n        uint256 soFees;\n        string metadata;\n    }\n\n    // Transactions (mapped: holder address + transaction id => Transaction)\n    mapping(address => mapping(uint256 => Transaction)) public transactions;\n\n    Bank bank;\n    Banks banks;\n\n    constructor(address _bankAddress, string _label, string _description) public\n        BankService(_bankAddress, TYPE_CODE, _label, _description)\n    {\n        require(address(0) != _bankAddress, \"Bank address is empty\");\n        bank = Bank(_bankAddress);\n        banks = Banks(bank.banksAddress());\n    }\n\n    function transfer(address _sender, string _metadata, uint256 _soPAN, uint256[] _toPANs, uint256[] _values, uint256[] _fees, uint256[] _rates) public\n        isUsable\n        returns(uint256 transactionId)\n    {\n\n        (Bank sob, BankAccount soa, address soAddress) = banks.getBankAccount(_soPAN);\n        require(msg.sender == address(soa) && _sender == soAddress, \"Access denied\");\n\n        transactionId = banks.transactionsCount(_sender);\n\n        require(!transactions[_sender][transactionId].inUsed, \"Duplicated transaction id\");\n\n        Transaction storage transaction = transactions[_sender][transactionId];\n\n        transaction.inUsed = true;\n        transaction.timestamp = now;\n        transaction.soPAN = _soPAN;\n        transaction.metadata = _metadata;\n\n        balancesTransfer(transaction, transactionId, sob, _soPAN, _toPANs, _values, _fees, _rates);\n    }\n\n    function balancesTransfer(Transaction storage transaction, uint256 _transactionId, Bank _sob, uint256 _soPAN, uint256[] _toPANs,\n        uint256[] _values, uint256[] _fees, uint256[] _rates) private\n    {\n        uint256 soValue;\n\n        for (uint256 i = 0; _toPANs.length > i; i = i.add(1)) {\n            require(100 == _fees[i], \"Fee is mismatched\");\n\n            // Perform balance transfers\n            soValue = _sob.serviceTransfer(_soPAN, _toPANs[i], _values[i], _fees[i], 0, _rates[i]);\n\n            transaction.soValues = transaction.soValues.add(soValue);\n            transaction.toCount = transaction.toCount.add(1);\n            transaction.soFees = transaction.soFees.add(_fees[i]);\n\n            emit ServiceTransfer(_transactionId, now, _soPAN, _toPANs[i], soValue, _values[i], _fees[i], _rates[i]);\n        }\n\n        emit ServiceTransaction(_transactionId, transaction.timestamp, _soPAN, transaction.soValues, transaction.toCount, transaction.soFees);\n    }\n\n    function transferInfo(address /*_sender*/, uint256 _soPAN, uint256[] _toPANs, uint256[] _values) public view\n        isUsable\n        returns(uint256[] fees /* soFees */, uint256[] rates, uint256[] soValues)\n    {\n        fees = new uint256[](_toPANs.length);\n        rates = new uint256[](_toPANs.length);\n        soValues = new uint256[](_toPANs.length);\n\n        (, BankAccount soa,) = banks.getBankAccount(_soPAN);\n        uint16 soaCurrencyCode = soa.currencyCode();\n\n        BankAccount toa;\n\n        for (uint256 i = 0; _toPANs.length > i; i = i.add(1)) {\n            (, toa,) = banks.getBankAccount(_toPANs[i]);\n\n            fees[i] = 100;\n            rates[i] = soa.getExchangeRate(soaCurrencyCode, toa.currencyCode());\n\n            if (address(soa) == address(toa))\n                soValues[i] = _values[i];\n            else\n                soValues[i] = soa.getExchangeValueByRate(_values[i], rates[i]);\n        }\n    }\n\n    function sealRequirement() private view\n    {\n    }\n\n}\n",
  "sourcePath": "/Users/jeansoonsik/Documents/work/oojibo/demos/proto/backend/contracts/BSPayroll.sol",
  "compiler": {
    "name": "solc",
    "version": "0.4.24+commit.e67f0147.Emscripten.clang"
  },
  "schemaVersion": "2.0.1",
  "updatedAt": "2018-09-17T15:49:50.416Z"
}