{
  "contractName": "BSTravelInsurance",
  "abi": [
    {
      "constant": true,
      "inputs": [],
      "name": "typeCode",
      "outputs": [
        {
          "name": "",
          "type": "string"
        }
      ],
      "payable": false,
      "stateMutability": "view",
      "type": "function"
    },
    {
      "constant": true,
      "inputs": [
        {
          "name": "",
          "type": "address"
        },
        {
          "name": "",
          "type": "uint256"
        }
      ],
      "name": "transactions",
      "outputs": [
        {
          "name": "inUsed",
          "type": "bool"
        },
        {
          "name": "timestamp",
          "type": "uint256"
        },
        {
          "name": "soPAN",
          "type": "uint256"
        },
        {
          "name": "toPAN",
          "type": "uint256"
        },
        {
          "name": "soValue",
          "type": "uint256"
        },
        {
          "name": "toValue",
          "type": "uint256"
        },
        {
          "name": "toFee",
          "type": "uint256"
        },
        {
          "name": "rate",
          "type": "uint256"
        },
        {
          "name": "metadata",
          "type": "string"
        }
      ],
      "payable": false,
      "stateMutability": "view",
      "type": "function"
    },
    {
      "constant": false,
      "inputs": [],
      "name": "seal",
      "outputs": [
        {
          "name": "success",
          "type": "bool"
        }
      ],
      "payable": false,
      "stateMutability": "nonpayable",
      "type": "function"
    },
    {
      "constant": true,
      "inputs": [],
      "name": "description",
      "outputs": [
        {
          "name": "",
          "type": "string"
        }
      ],
      "payable": false,
      "stateMutability": "view",
      "type": "function"
    },
    {
      "constant": true,
      "inputs": [],
      "name": "stopped",
      "outputs": [
        {
          "name": "",
          "type": "bool"
        }
      ],
      "payable": false,
      "stateMutability": "view",
      "type": "function"
    },
    {
      "constant": true,
      "inputs": [],
      "name": "bankAddress",
      "outputs": [
        {
          "name": "",
          "type": "address"
        }
      ],
      "payable": false,
      "stateMutability": "view",
      "type": "function"
    },
    {
      "constant": false,
      "inputs": [],
      "name": "acceptOwnership",
      "outputs": [],
      "payable": false,
      "stateMutability": "nonpayable",
      "type": "function"
    },
    {
      "constant": false,
      "inputs": [],
      "name": "destroy",
      "outputs": [],
      "payable": false,
      "stateMutability": "nonpayable",
      "type": "function"
    },
    {
      "constant": true,
      "inputs": [],
      "name": "owner",
      "outputs": [
        {
          "name": "",
          "type": "address"
        }
      ],
      "payable": false,
      "stateMutability": "view",
      "type": "function"
    },
    {
      "constant": false,
      "inputs": [],
      "name": "resumeMe",
      "outputs": [
        {
          "name": "success",
          "type": "bool"
        }
      ],
      "payable": false,
      "stateMutability": "nonpayable",
      "type": "function"
    },
    {
      "constant": false,
      "inputs": [],
      "name": "stopMe",
      "outputs": [
        {
          "name": "success",
          "type": "bool"
        }
      ],
      "payable": false,
      "stateMutability": "nonpayable",
      "type": "function"
    },
    {
      "constant": true,
      "inputs": [],
      "name": "label",
      "outputs": [
        {
          "name": "",
          "type": "string"
        }
      ],
      "payable": false,
      "stateMutability": "view",
      "type": "function"
    },
    {
      "constant": true,
      "inputs": [],
      "name": "newOwner",
      "outputs": [
        {
          "name": "",
          "type": "address"
        }
      ],
      "payable": false,
      "stateMutability": "view",
      "type": "function"
    },
    {
      "constant": true,
      "inputs": [],
      "name": "classCode",
      "outputs": [
        {
          "name": "",
          "type": "string"
        }
      ],
      "payable": false,
      "stateMutability": "view",
      "type": "function"
    },
    {
      "constant": true,
      "inputs": [],
      "name": "sealed",
      "outputs": [
        {
          "name": "",
          "type": "bool"
        }
      ],
      "payable": false,
      "stateMutability": "view",
      "type": "function"
    },
    {
      "constant": false,
      "inputs": [
        {
          "name": "_newOwner",
          "type": "address"
        }
      ],
      "name": "transferOwnership",
      "outputs": [],
      "payable": false,
      "stateMutability": "nonpayable",
      "type": "function"
    },
    {
      "inputs": [
        {
          "name": "_bankAddress",
          "type": "address"
        },
        {
          "name": "_label",
          "type": "string"
        },
        {
          "name": "_description",
          "type": "string"
        }
      ],
      "payable": false,
      "stateMutability": "nonpayable",
      "type": "constructor"
    },
    {
      "anonymous": false,
      "inputs": [
        {
          "indexed": false,
          "name": "transactionId",
          "type": "uint256"
        },
        {
          "indexed": false,
          "name": "timestamp",
          "type": "uint256"
        },
        {
          "indexed": true,
          "name": "soPAN",
          "type": "uint256"
        },
        {
          "indexed": true,
          "name": "toPAN",
          "type": "uint256"
        },
        {
          "indexed": false,
          "name": "soValue",
          "type": "uint256"
        },
        {
          "indexed": false,
          "name": "toValue",
          "type": "uint256"
        },
        {
          "indexed": false,
          "name": "toFee",
          "type": "uint256"
        },
        {
          "indexed": false,
          "name": "rate",
          "type": "uint256"
        }
      ],
      "name": "ServiceTransaction",
      "type": "event"
    },
    {
      "anonymous": false,
      "inputs": [],
      "name": "Stopped",
      "type": "event"
    },
    {
      "anonymous": false,
      "inputs": [],
      "name": "Resumed",
      "type": "event"
    },
    {
      "anonymous": false,
      "inputs": [],
      "name": "Sealed",
      "type": "event"
    },
    {
      "anonymous": false,
      "inputs": [],
      "name": "Destroyed",
      "type": "event"
    },
    {
      "anonymous": false,
      "inputs": [
        {
          "indexed": true,
          "name": "_from",
          "type": "address"
        },
        {
          "indexed": true,
          "name": "_to",
          "type": "address"
        }
      ],
      "name": "OwnershipTransferred",
      "type": "event"
    },
    {
      "constant": false,
      "inputs": [
        {
          "name": "_sender",
          "type": "address"
        },
        {
          "name": "_metadata",
          "type": "string"
        },
        {
          "name": "_soPAN",
          "type": "uint256"
        },
        {
          "name": "_toPAN",
          "type": "uint256"
        },
        {
          "name": "_toValue",
          "type": "uint256"
        },
        {
          "name": "_toFee",
          "type": "uint256"
        },
        {
          "name": "_rate",
          "type": "uint256"
        }
      ],
      "name": "transfer",
      "outputs": [
        {
          "name": "transactionId",
          "type": "uint256"
        }
      ],
      "payable": false,
      "stateMutability": "nonpayable",
      "type": "function"
    },
    {
      "constant": true,
      "inputs": [
        {
          "name": "",
          "type": "address"
        },
        {
          "name": "_soPAN",
          "type": "uint256"
        },
        {
          "name": "_toPAN",
          "type": "uint256"
        },
        {
          "name": "_toValue",
          "type": "uint256"
        }
      ],
      "name": "transferInfo",
      "outputs": [
        {
          "name": "toFee",
          "type": "uint256"
        },
        {
          "name": "rate",
          "type": "uint256"
        },
        {
          "name": "soValue",
          "type": "uint256"
        }
      ],
      "payable": false,
      "stateMutability": "view",
      "type": "function"
    }
  ],
  "bytecode": "0x60806040523480156200001157600080fd5b50604051620029a8380380620029a8833981018060405281019080805190602001909291908051820192919060200180518201929190505050826040805190810160405280601081526020017f54524156454c5f494e535552414e43450000000000000000000000000000000081525083836000806000806040805190810160405280600c81526020017f42414e4b5f5345525649434500000000000000000000000000000000000000008152508787878360009080519060200190620000da92919062000736565b508260019080519060200190620000f392919062000736565b5081600290805190602001906200010c92919062000736565b5080600390805190602001906200012592919062000736565b505050505033600460006101000a81548173ffffffffffffffffffffffffffffffffffffffff021916908373ffffffffffffffffffffffffffffffffffffffff1602179055506001600560156101000a81548160ff0219169083151502179055508773ffffffffffffffffffffffffffffffffffffffff16600073ffffffffffffffffffffffffffffffffffffffff161415156200053a5787600660006101000a81548173ffffffffffffffffffffffffffffffffffffffff021916908373ffffffffffffffffffffffffffffffffffffffff160217905550600660009054906101000a900473ffffffffffffffffffffffffffffffffffffffff1693508373ffffffffffffffffffffffffffffffffffffffff1663e79466816040518163ffffffff167c0100000000000000000000000000000000000000000000000000000000028152600401602060405180830381600087803b1580156200028857600080fd5b505af11580156200029d573d6000803e3d6000fd5b505050506040513d6020811015620002b457600080fd5b810190808051906020019092919050505092508273ffffffffffffffffffffffffffffffffffffffff1663e092d49d6040518163ffffffff167c0100000000000000000000000000000000000000000000000000000000028152600401602060405180830381600087803b1580156200032c57600080fd5b505af115801562000341573d6000803e3d6000fd5b505050506040513d60208110156200035857600080fd5b810190808051906020019092919050505091508173ffffffffffffffffffffffffffffffffffffffff16600073ffffffffffffffffffffffffffffffffffffffff161415151562000411576040517f08c379a000000000000000000000000000000000000000000000000000000000815260040180806020018281038252601e8152602001807f45786368616e676520636f696e206973206e6f7420617661696c61626c65000081525060200191505060405180910390fd5b8190508073ffffffffffffffffffffffffffffffffffffffff166327918b233069be951906eba2aa8000006040518363ffffffff167c0100000000000000000000000000000000000000000000000000000000028152600401808373ffffffffffffffffffffffffffffffffffffffff1673ffffffffffffffffffffffffffffffffffffffff16815260200182815260200180602001828103825260138152602001807f4661756365743a2042616e6b53657276696365000000000000000000000000008152506020019350505050602060405180830381600087803b158015620004fb57600080fd5b505af115801562000510573d6000803e3d6000fd5b505050506040513d60208110156200052757600080fd5b8101908080519060200190929190505050505b50505050505050508273ffffffffffffffffffffffffffffffffffffffff16600073ffffffffffffffffffffffffffffffffffffffff1614151515620005e8576040517f08c379a00000000000000000000000000000000000000000000000000000000081526004018080602001828103825260158152602001807f42616e6b206164647265737320697320656d707479000000000000000000000081525060200191505060405180910390fd5b82600860006101000a81548173ffffffffffffffffffffffffffffffffffffffff021916908373ffffffffffffffffffffffffffffffffffffffff160217905550600860009054906101000a900473ffffffffffffffffffffffffffffffffffffffff1673ffffffffffffffffffffffffffffffffffffffff1663e79466816040518163ffffffff167c0100000000000000000000000000000000000000000000000000000000028152600401602060405180830381600087803b158015620006b057600080fd5b505af1158015620006c5573d6000803e3d6000fd5b505050506040513d6020811015620006dc57600080fd5b8101908080519060200190929190505050600960006101000a81548173ffffffffffffffffffffffffffffffffffffffff021916908373ffffffffffffffffffffffffffffffffffffffff160217905550505050620007e5565b828054600181600116156101000203166002900490600052602060002090601f016020900481019282601f106200077957805160ff1916838001178555620007aa565b82800160010185558215620007aa579182015b82811115620007a95782518255916020019190600101906200078c565b5b509050620007b99190620007bd565b5090565b620007e291905b80821115620007de576000816000905550600101620007c4565b5090565b90565b6121b380620007f56000396000f3006080604052600436106100fc576000357c0100000000000000000000000000000000000000000000000000000000900463ffffffff1680630f81a38f1461010157806314538128146101915780633fb27b85146102935780637284e416146102c257806375f12b21146103525780637822ed491461038157806379ba5097146103d857806383197ef0146103ef5780638da5cb5b146104065780639886b1441461045d578063bc699e751461048c578063cb4774c4146104bb578063d32cc2981461054b578063d4ee1d901461061a578063e24ff74414610671578063e4b203ef14610701578063f02e80bf14610730578063f2fde38b146107b3575b600080fd5b34801561010d57600080fd5b506101166107f6565b6040518080602001828103825283818151815260200191508051906020019080838360005b8381101561015657808201518184015260208101905061013b565b50505050905090810190601f1680156101835780820380516001836020036101000a031916815260200191505b509250505060405180910390f35b34801561019d57600080fd5b506101dc600480360381019080803573ffffffffffffffffffffffffffffffffffffffff16906020019092919080359060200190929190505050610894565b604051808a15151515815260200189815260200188815260200187815260200186815260200185815260200184815260200183815260200180602001828103825283818151815260200191508051906020019080838360005b83811015610250578082015181840152602081019050610235565b50505050905090810190601f16801561027d5780820380516001836020036101000a031916815260200191505b509a505050505050505050505060405180910390f35b34801561029f57600080fd5b506102a8610994565b604051808215151515815260200191505060405180910390f35b3480156102ce57600080fd5b506102d7610b93565b6040518080602001828103825283818151815260200191508051906020019080838360005b838110156103175780820151818401526020810190506102fc565b50505050905090810190601f1680156103445780820380516001836020036101000a031916815260200191505b509250505060405180910390f35b34801561035e57600080fd5b50610367610c31565b604051808215151515815260200191505060405180910390f35b34801561038d57600080fd5b50610396610c44565b604051808273ffffffffffffffffffffffffffffffffffffffff1673ffffffffffffffffffffffffffffffffffffffff16815260200191505060405180910390f35b3480156103e457600080fd5b506103ed610c6a565b005b3480156103fb57600080fd5b50610404610e74565b005b34801561041257600080fd5b5061041b610fa9565b604051808273ffffffffffffffffffffffffffffffffffffffff1673ffffffffffffffffffffffffffffffffffffffff16815260200191505060405180910390f35b34801561046957600080fd5b50610472610fcf565b604051808215151515815260200191505060405180910390f35b34801561049857600080fd5b506104a16110e4565b604051808215151515815260200191505060405180910390f35b3480156104c757600080fd5b506104d06111f9565b6040518080602001828103825283818151815260200191508051906020019080838360005b838110156105105780820151818401526020810190506104f5565b50505050905090810190601f16801561053d5780820380516001836020036101000a031916815260200191505b509250505060405180910390f35b34801561055757600080fd5b50610604600480360381019080803573ffffffffffffffffffffffffffffffffffffffff169060200190929190803590602001908201803590602001908080601f01602080910402602001604051908101604052809392919081815260200183838082843782019150505050505091929192908035906020019092919080359060200190929190803590602001909291908035906020019092919080359060200190929190505050611297565b6040518082815260200191505060405180910390f35b34801561062657600080fd5b5061062f61199b565b604051808273ffffffffffffffffffffffffffffffffffffffff1673ffffffffffffffffffffffffffffffffffffffff16815260200191505060405180910390f35b34801561067d57600080fd5b506106866119c1565b6040518080602001828103825283818151815260200191508051906020019080838360005b838110156106c65780820151818401526020810190506106ab565b50505050905090810190601f1680156106f35780820380516001836020036101000a031916815260200191505b509250505060405180910390f35b34801561070d57600080fd5b50610716611a5f565b604051808215151515815260200191505060405180910390f35b34801561073c57600080fd5b5061078f600480360381019080803573ffffffffffffffffffffffffffffffffffffffff169060200190929190803590602001909291908035906020019092919080359060200190929190505050611a72565b60405180848152602001838152602001828152602001935050505060405180910390f35b3480156107bf57600080fd5b506107f4600480360381019080803573ffffffffffffffffffffffffffffffffffffffff169060200190929190505050611fd7565b005b60018054600181600116156101000203166002900480601f01602080910402602001604051908101604052809291908181526020018280546001816001161561010002031660029004801561088c5780601f106108615761010080835404028352916020019161088c565b820191906000526020600020905b81548152906001019060200180831161086f57829003601f168201915b505050505081565b6007602052816000526040600020602052806000526040600020600091509150508060000160009054906101000a900460ff1690806001015490806002015490806003015490806004015490806005015490806006015490806007015490806008018054600181600116156101000203166002900480601f01602080910402602001604051908101604052809291908181526020018280546001816001161561010002031660029004801561098a5780601f1061095f5761010080835404028352916020019161098a565b820191906000526020600020905b81548152906001019060200180831161096d57829003601f168201915b5050505050905089565b6000600460009054906101000a900473ffffffffffffffffffffffffffffffffffffffff1673ffffffffffffffffffffffffffffffffffffffff163373ffffffffffffffffffffffffffffffffffffffff16141515610a5b576040517f08c379a00000000000000000000000000000000000000000000000000000000081526004018080602001828103825260158152602001807f4f6e6c79206f776e657220697320616c6c6f776564000000000000000000000081525060200191505060405180910390fd5b600560159054906101000a900460ff16151515610a7757600080fd5b600560009054906101000a900473ffffffffffffffffffffffffffffffffffffffff1673ffffffffffffffffffffffffffffffffffffffff16600073ffffffffffffffffffffffffffffffffffffffff16141515610b3d576040517f08c379a00000000000000000000000000000000000000000000000000000000081526004018080602001828103825260208152602001807f5472616e73666572206f776e65727368697020697320696e636f6d706c65746581525060200191505060405180910390fd5b610b456120e0565b6001600560156101000a81548160ff0219169083151502179055507f1b2d71eb44f882534bf4e86f940c56ccc869ffb927e2bab86561de93950c221660405160405180910390a16001905090565b60038054600181600116156101000203166002900480601f016020809104026020016040519081016040528092919081815260200182805460018160011615610100020316600290048015610c295780601f10610bfe57610100808354040283529160200191610c29565b820191906000526020600020905b815481529060010190602001808311610c0c57829003601f168201915b505050505081565b600560149054906101000a900460ff1681565b600660009054906101000a900473ffffffffffffffffffffffffffffffffffffffff1681565b600560009054906101000a900473ffffffffffffffffffffffffffffffffffffffff1673ffffffffffffffffffffffffffffffffffffffff163373ffffffffffffffffffffffffffffffffffffffff16141515610d2f576040517f08c379a00000000000000000000000000000000000000000000000000000000081526004018080602001828103825260198152602001807f4f6e6c79206e6577206f776e657220697320616c6c6f7765640000000000000081525060200191505060405180910390fd5b600560009054906101000a900473ffffffffffffffffffffffffffffffffffffffff1673ffffffffffffffffffffffffffffffffffffffff16600460009054906101000a900473ffffffffffffffffffffffffffffffffffffffff1673ffffffffffffffffffffffffffffffffffffffff167f8be0079c531659141344cd1fd0a4f28419497f9722a3daafe3b4186f6b6457e060405160405180910390a3600560009054906101000a900473ffffffffffffffffffffffffffffffffffffffff16600460006101000a81548173ffffffffffffffffffffffffffffffffffffffff021916908373ffffffffffffffffffffffffffffffffffffffff1602179055506000600560006101000a81548173ffffffffffffffffffffffffffffffffffffffff021916908373ffffffffffffffffffffffffffffffffffffffff160217905550565b600460009054906101000a900473ffffffffffffffffffffffffffffffffffffffff1673ffffffffffffffffffffffffffffffffffffffff163373ffffffffffffffffffffffffffffffffffffffff16141515610f39576040517f08c379a00000000000000000000000000000000000000000000000000000000081526004018080602001828103825260158152602001807f4f6e6c79206f776e657220697320616c6c6f776564000000000000000000000081525060200191505060405180910390fd5b610f416110e4565b507fcc0e82c1b8fa4695d6ae60217024b293814bde0f381a23cafaa0a1e25973c14b60405160405180910390a1600460009054906101000a900473ffffffffffffffffffffffffffffffffffffffff1673ffffffffffffffffffffffffffffffffffffffff16ff5b600460009054906101000a900473ffffffffffffffffffffffffffffffffffffffff1681565b6000600460009054906101000a900473ffffffffffffffffffffffffffffffffffffffff1673ffffffffffffffffffffffffffffffffffffffff163373ffffffffffffffffffffffffffffffffffffffff16141515611096576040517f08c379a00000000000000000000000000000000000000000000000000000000081526004018080602001828103825260158152602001807f4f6e6c79206f776e657220697320616c6c6f776564000000000000000000000081525060200191505060405180910390fd5b6000600560146101000a81548160ff0219169083151502179055507f62451d457bc659158be6e6247f56ec1df424a5c7597f71c20c2bc44e0965c8f960405160405180910390a16001905090565b6000600460009054906101000a900473ffffffffffffffffffffffffffffffffffffffff1673ffffffffffffffffffffffffffffffffffffffff163373ffffffffffffffffffffffffffffffffffffffff161415156111ab576040517f08c379a00000000000000000000000000000000000000000000000000000000081526004018080602001828103825260158152602001807f4f6e6c79206f776e657220697320616c6c6f776564000000000000000000000081525060200191505060405180910390fd5b6001600560146101000a81548160ff0219169083151502179055507f7acc84e34091ae817647a4c49116f5cc07f319078ba80f8f5fde37ea7e25cbd660405160405180910390a16001905090565b60028054600181600116156101000203166002900480601f01602080910402602001604051908101604052809291908181526020018280546001816001161561010002031660029004801561128f5780601f106112645761010080835404028352916020019161128f565b820191906000526020600020905b81548152906001019060200180831161127257829003601f168201915b505050505081565b6000806000806000600560159054906101000a900460ff161515611316573373ffffffffffffffffffffffffffffffffffffffff16600460009054906101000a900473ffffffffffffffffffffffffffffffffffffffff1673ffffffffffffffffffffffffffffffffffffffff1614151561131157600080fd5b611333565b600560149054906101000a900460ff1615151561133257600080fd5b5b600960009054906101000a900473ffffffffffffffffffffffffffffffffffffffff1673ffffffffffffffffffffffffffffffffffffffff16630d3127708b6040518263ffffffff167c010000000000000000000000000000000000000000000000000000000002815260040180828152602001915050606060405180830381600087803b1580156113c457600080fd5b505af11580156113d8573d6000803e3d6000fd5b505050506040513d60608110156113ee57600080fd5b810190808051906020019092919080519060200190929190805190602001909291905050509350935093508273ffffffffffffffffffffffffffffffffffffffff163373ffffffffffffffffffffffffffffffffffffffff1614801561147f57508173ffffffffffffffffffffffffffffffffffffffff168c73ffffffffffffffffffffffffffffffffffffffff16145b15156114f3576040517f08c379a000000000000000000000000000000000000000000000000000000000815260040180806020018281038252600d8152602001807f4163636573732064656e6965640000000000000000000000000000000000000081525060200191505060405180910390fd5b600960009054906101000a900473ffffffffffffffffffffffffffffffffffffffff1673ffffffffffffffffffffffffffffffffffffffff1663430569748d6040518263ffffffff167c0100000000000000000000000000000000000000000000000000000000028152600401808273ffffffffffffffffffffffffffffffffffffffff1673ffffffffffffffffffffffffffffffffffffffff168152602001915050602060405180830381600087803b1580156115b057600080fd5b505af11580156115c4573d6000803e3d6000fd5b505050506040513d60208110156115da57600080fd5b81019080805190602001909291905050509450866064141515611665576040517f08c379a000000000000000000000000000000000000000000000000000000000815260040180806020018281038252600e8152602001807f466565206d69736d61746368656400000000000000000000000000000000000081525060200191505060405180910390fd5b600760008d73ffffffffffffffffffffffffffffffffffffffff1673ffffffffffffffffffffffffffffffffffffffff168152602001908152602001600020600086815260200190815260200160002060000160009054906101000a900460ff1615151561173b576040517f08c379a00000000000000000000000000000000000000000000000000000000081526004018080602001828103825260198152602001807f4475706c696361746564207472616e73616374696f6e2069640000000000000081525060200191505060405180910390fd5b8373ffffffffffffffffffffffffffffffffffffffff166336b6b2868b8b8b60008c8c6040518763ffffffff167c0100000000000000000000000000000000000000000000000000000000028152600401808781526020018681526020018581526020018481526020018381526020018281526020019650505050505050602060405180830381600087803b1580156117d357600080fd5b505af11580156117e7573d6000803e3d6000fd5b505050506040513d60208110156117fd57600080fd5b81019080805190602001909291905050509050610120604051908101604052806001151581526020014281526020018b81526020018a81526020018281526020018981526020018881526020018781526020018c815250600760008e73ffffffffffffffffffffffffffffffffffffffff1673ffffffffffffffffffffffffffffffffffffffff168152602001908152602001600020600087815260200190815260200160002060008201518160000160006101000a81548160ff0219169083151502179055506020820151816001015560408201518160020155606082015181600301556080820151816004015560a0820151816005015560c0820151816006015560e082015181600701556101008201518160080190805190602001906119279291906120e2565b50905050888a7f21457d1d0801b6c4bca1f670f031fe4a17606ccd64be4616e8ee81c2599b1b268742858d8d8d60405180878152602001868152602001858152602001848152602001838152602001828152602001965050505050505060405180910390a350505050979650505050505050565b600560009054906101000a900473ffffffffffffffffffffffffffffffffffffffff1681565b60008054600181600116156101000203166002900480601f016020809104026020016040519081016040528092919081815260200182805460018160011615610100020316600290048015611a575780601f10611a2c57610100808354040283529160200191611a57565b820191906000526020600020905b815481529060010190602001808311611a3a57829003601f168201915b505050505081565b600560159054906101000a900460ff1681565b6000806000806000600560159054906101000a900460ff161515611af1573373ffffffffffffffffffffffffffffffffffffffff16600460009054906101000a900473ffffffffffffffffffffffffffffffffffffffff1673ffffffffffffffffffffffffffffffffffffffff16141515611aec57600080fd5b611b0e565b600560149054906101000a900460ff16151515611b0d57600080fd5b5b600960009054906101000a900473ffffffffffffffffffffffffffffffffffffffff1673ffffffffffffffffffffffffffffffffffffffff16630d312770896040518263ffffffff167c010000000000000000000000000000000000000000000000000000000002815260040180828152602001915050606060405180830381600087803b158015611b9f57600080fd5b505af1158015611bb3573d6000803e3d6000fd5b505050506040513d6060811015611bc957600080fd5b8101908080519060200190929190805190602001909291908051906020019092919050505050925050600960009054906101000a900473ffffffffffffffffffffffffffffffffffffffff1673ffffffffffffffffffffffffffffffffffffffff16630d312770886040518263ffffffff167c010000000000000000000000000000000000000000000000000000000002815260040180828152602001915050606060405180830381600087803b158015611c8357600080fd5b505af1158015611c97573d6000803e3d6000fd5b505050506040513d6060811015611cad57600080fd5b8101908080519060200190929190805190602001909291908051906020019092919050505050915050606494508173ffffffffffffffffffffffffffffffffffffffff1663c8f38dc08373ffffffffffffffffffffffffffffffffffffffff1663e102e5e36040518163ffffffff167c0100000000000000000000000000000000000000000000000000000000028152600401602060405180830381600087803b158015611d5a57600080fd5b505af1158015611d6e573d6000803e3d6000fd5b505050506040513d6020811015611d8457600080fd5b81019080805190602001909291905050508373ffffffffffffffffffffffffffffffffffffffff1663e102e5e36040518163ffffffff167c0100000000000000000000000000000000000000000000000000000000028152600401602060405180830381600087803b158015611df957600080fd5b505af1158015611e0d573d6000803e3d6000fd5b505050506040513d6020811015611e2357600080fd5b81019080805190602001909291905050506040518363ffffffff167c0100000000000000000000000000000000000000000000000000000000028152600401808361ffff1661ffff1681526020018261ffff1661ffff16815260200192505050602060405180830381600087803b158015611e9d57600080fd5b505af1158015611eb1573d6000803e3d6000fd5b505050506040513d6020811015611ec757600080fd5b810190808051906020019092919050505093508073ffffffffffffffffffffffffffffffffffffffff168273ffffffffffffffffffffffffffffffffffffffff161415611f1657859250611fcb565b8173ffffffffffffffffffffffffffffffffffffffff1663121a8d0f87866040518363ffffffff167c01000000000000000000000000000000000000000000000000000000000281526004018083815260200182815260200192505050602060405180830381600087803b158015611f8d57600080fd5b505af1158015611fa1573d6000803e3d6000fd5b505050506040513d6020811015611fb757600080fd5b810190808051906020019092919050505092505b50509450945094915050565b600460009054906101000a900473ffffffffffffffffffffffffffffffffffffffff1673ffffffffffffffffffffffffffffffffffffffff163373ffffffffffffffffffffffffffffffffffffffff1614151561209c576040517f08c379a00000000000000000000000000000000000000000000000000000000081526004018080602001828103825260158152602001807f4f6e6c79206f776e657220697320616c6c6f776564000000000000000000000081525060200191505060405180910390fd5b80600560006101000a81548173ffffffffffffffffffffffffffffffffffffffff021916908373ffffffffffffffffffffffffffffffffffffffff16021790555050565b565b828054600181600116156101000203166002900490600052602060002090601f016020900481019282601f1061212357805160ff1916838001178555612151565b82800160010185558215612151579182015b82811115612150578251825591602001919060010190612135565b5b50905061215e9190612162565b5090565b61218491905b80821115612180576000816000905550600101612168565b5090565b905600a165627a7a72305820f1eb73679d690fce5c744bee597f348cd59a55ed6f686589b843f1fd61abd9c90029",
  "source": "pragma solidity ^0.4.24;\n\nimport \"./SafeMathLib.sol\";\nimport \"./BankService.sol\";\nimport \"./BankAccount.sol\";\nimport \"./Bank.sol\";\nimport \"./Banks.sol\";\n\ncontract BSTravelInsurance is BankService {\n    using SafeMath for uint256;\n\n    string constant TYPE_CODE = \"TRAVEL_INSURANCE\";\n\n    event ServiceTransaction(uint256 transactionId, uint256 timestamp, uint256 indexed soPAN, uint256 indexed toPAN, uint256 soValue, uint256 toValue, uint256 toFee, uint256 rate);\n\n    struct Transaction {\n        bool inUsed;\n        uint256 timestamp;\n        uint256 soPAN;\n        uint256 toPAN;\n        uint256 soValue;\n        uint256 toValue;\n        uint256 toFee;\n        uint256 rate;\n        string metadata;\n    }\n\n    // Transactions (mapped: holder address + transaction id => Transaction)\n    mapping(address => mapping(uint256 => Transaction)) public transactions;\n\n    Bank bank;\n    Banks banks;\n\n    constructor(address _bankAddress, string _label, string _description) public\n        BankService(_bankAddress, TYPE_CODE, _label, _description)\n    {\n        require(address(0) != _bankAddress, \"Bank address is empty\");\n        bank = Bank(_bankAddress);\n        banks = Banks(bank.banksAddress());\n    }\n\n    function transfer(address _sender, string _metadata, uint256 _soPAN, uint256 _toPAN, uint256 _toValue, uint256 _toFee, uint256 _rate) public\n        isUsable\n        returns(uint256 transactionId)\n    {\n        (Bank sob, BankAccount soa, address soAddress) = banks.getBankAccount(_soPAN);\n        require(msg.sender == address(soa) && _sender == soAddress, \"Access denied\");\n\n        transactionId = banks.transactionsCount(_sender);\n\n        require(100 == _toFee, \"Fee mismatched\");\n        require(!transactions[_sender][transactionId].inUsed, \"Duplicated transaction id\");\n\n        // Perform balance transfers\n        uint256 soValue = sob.serviceTransfer(_soPAN, _toPAN, _toValue, 0, _toFee, _rate);\n\n        transactions[_sender][transactionId] = Transaction({\n            inUsed: true,\n            timestamp: now,\n            soPAN: _soPAN,\n            toPAN: _toPAN,\n            soValue: soValue,\n            toValue: _toValue,\n            toFee: _toFee,\n            rate: _rate,\n            metadata: _metadata\n        });\n\n        emit ServiceTransaction(transactionId, now, _soPAN, _toPAN, soValue, _toValue, _toFee, _rate);\n    }\n\n    function transferInfo(address /*_sender*/, uint256 _soPAN, uint256 _toPAN, uint256 _toValue) public view\n        isUsable\n        returns(uint256 toFee, uint256 rate, uint256 soValue)\n    {\n        (, BankAccount soa,) = banks.getBankAccount(_soPAN);\n        (, BankAccount toa,) = banks.getBankAccount(_toPAN);\n\n        // Calculate transaction fee and rate\n        toFee = 100;\n        rate = soa.getExchangeRate(soa.currencyCode(), toa.currencyCode());\n\n        if (address(soa) == address(toa))\n            soValue = _toValue;\n        else\n            soValue = soa.getExchangeValueByRate(_toValue, rate);\n    }\n\n    function sealRequirement() private view\n    {\n    }\n\n}\n",
  "sourcePath": "/Users/jeansoonsik/Documents/work/oojibo/demos/proto/backend/contracts/BSTravelInsurance.sol",
  "compiler": {
    "name": "solc",
    "version": "0.4.24+commit.e67f0147.Emscripten.clang"
  },
  "schemaVersion": "2.0.1",
  "updatedAt": "2018-09-17T15:49:50.405Z"
}