{
  "contractName": "XCoin",
  "abi": [
    {
      "constant": false,
      "inputs": [
        {
          "name": "_spender",
          "type": "address"
        },
        {
          "name": "_value",
          "type": "uint256"
        }
      ],
      "name": "approve",
      "outputs": [
        {
          "name": "",
          "type": "bool"
        }
      ],
      "payable": false,
      "stateMutability": "nonpayable",
      "type": "function"
    },
    {
      "constant": true,
      "inputs": [],
      "name": "typeCode",
      "outputs": [
        {
          "name": "",
          "type": "string"
        }
      ],
      "payable": false,
      "stateMutability": "view",
      "type": "function"
    },
    {
      "constant": true,
      "inputs": [],
      "name": "totalSupply",
      "outputs": [
        {
          "name": "",
          "type": "uint256"
        }
      ],
      "payable": false,
      "stateMutability": "view",
      "type": "function"
    },
    {
      "constant": false,
      "inputs": [
        {
          "name": "_from",
          "type": "address"
        },
        {
          "name": "_to",
          "type": "address"
        },
        {
          "name": "_value",
          "type": "uint256"
        }
      ],
      "name": "transferFrom",
      "outputs": [
        {
          "name": "",
          "type": "bool"
        }
      ],
      "payable": false,
      "stateMutability": "nonpayable",
      "type": "function"
    },
    {
      "constant": true,
      "inputs": [],
      "name": "decimals",
      "outputs": [
        {
          "name": "",
          "type": "uint8"
        }
      ],
      "payable": false,
      "stateMutability": "view",
      "type": "function"
    },
    {
      "constant": false,
      "inputs": [],
      "name": "seal",
      "outputs": [
        {
          "name": "success",
          "type": "bool"
        }
      ],
      "payable": false,
      "stateMutability": "nonpayable",
      "type": "function"
    },
    {
      "constant": false,
      "inputs": [
        {
          "name": "_spender",
          "type": "address"
        },
        {
          "name": "_subtractedValue",
          "type": "uint256"
        }
      ],
      "name": "decreaseApproval",
      "outputs": [
        {
          "name": "",
          "type": "bool"
        }
      ],
      "payable": false,
      "stateMutability": "nonpayable",
      "type": "function"
    },
    {
      "constant": true,
      "inputs": [
        {
          "name": "_owner",
          "type": "address"
        }
      ],
      "name": "balanceOf",
      "outputs": [
        {
          "name": "balance",
          "type": "uint256"
        }
      ],
      "payable": false,
      "stateMutability": "view",
      "type": "function"
    },
    {
      "constant": true,
      "inputs": [],
      "name": "description",
      "outputs": [
        {
          "name": "",
          "type": "string"
        }
      ],
      "payable": false,
      "stateMutability": "view",
      "type": "function"
    },
    {
      "constant": true,
      "inputs": [],
      "name": "stopped",
      "outputs": [
        {
          "name": "",
          "type": "bool"
        }
      ],
      "payable": false,
      "stateMutability": "view",
      "type": "function"
    },
    {
      "constant": false,
      "inputs": [],
      "name": "acceptOwnership",
      "outputs": [],
      "payable": false,
      "stateMutability": "nonpayable",
      "type": "function"
    },
    {
      "constant": false,
      "inputs": [
        {
          "name": "_to",
          "type": "address[]"
        },
        {
          "name": "_value",
          "type": "uint256"
        }
      ],
      "name": "transferBatch",
      "outputs": [
        {
          "name": "",
          "type": "bool"
        }
      ],
      "payable": false,
      "stateMutability": "nonpayable",
      "type": "function"
    },
    {
      "constant": false,
      "inputs": [],
      "name": "destroy",
      "outputs": [],
      "payable": false,
      "stateMutability": "nonpayable",
      "type": "function"
    },
    {
      "constant": true,
      "inputs": [],
      "name": "owner",
      "outputs": [
        {
          "name": "",
          "type": "address"
        }
      ],
      "payable": false,
      "stateMutability": "view",
      "type": "function"
    },
    {
      "constant": true,
      "inputs": [],
      "name": "symbol",
      "outputs": [
        {
          "name": "",
          "type": "string"
        }
      ],
      "payable": false,
      "stateMutability": "view",
      "type": "function"
    },
    {
      "constant": false,
      "inputs": [],
      "name": "resumeMe",
      "outputs": [
        {
          "name": "success",
          "type": "bool"
        }
      ],
      "payable": false,
      "stateMutability": "nonpayable",
      "type": "function"
    },
    {
      "constant": false,
      "inputs": [
        {
          "name": "_to",
          "type": "address"
        },
        {
          "name": "_value",
          "type": "uint256"
        }
      ],
      "name": "transfer",
      "outputs": [
        {
          "name": "",
          "type": "bool"
        }
      ],
      "payable": false,
      "stateMutability": "nonpayable",
      "type": "function"
    },
    {
      "constant": false,
      "inputs": [],
      "name": "stopMe",
      "outputs": [
        {
          "name": "success",
          "type": "bool"
        }
      ],
      "payable": false,
      "stateMutability": "nonpayable",
      "type": "function"
    },
    {
      "constant": true,
      "inputs": [],
      "name": "label",
      "outputs": [
        {
          "name": "",
          "type": "string"
        }
      ],
      "payable": false,
      "stateMutability": "view",
      "type": "function"
    },
    {
      "constant": true,
      "inputs": [],
      "name": "newOwner",
      "outputs": [
        {
          "name": "",
          "type": "address"
        }
      ],
      "payable": false,
      "stateMutability": "view",
      "type": "function"
    },
    {
      "constant": false,
      "inputs": [
        {
          "name": "_spender",
          "type": "address"
        },
        {
          "name": "_addedValue",
          "type": "uint256"
        }
      ],
      "name": "increaseApproval",
      "outputs": [
        {
          "name": "",
          "type": "bool"
        }
      ],
      "payable": false,
      "stateMutability": "nonpayable",
      "type": "function"
    },
    {
      "constant": true,
      "inputs": [
        {
          "name": "_owner",
          "type": "address"
        },
        {
          "name": "_spender",
          "type": "address"
        }
      ],
      "name": "allowance",
      "outputs": [
        {
          "name": "",
          "type": "uint256"
        }
      ],
      "payable": false,
      "stateMutability": "view",
      "type": "function"
    },
    {
      "constant": true,
      "inputs": [],
      "name": "currencyCode",
      "outputs": [
        {
          "name": "",
          "type": "uint16"
        }
      ],
      "payable": false,
      "stateMutability": "view",
      "type": "function"
    },
    {
      "constant": true,
      "inputs": [],
      "name": "classCode",
      "outputs": [
        {
          "name": "",
          "type": "string"
        }
      ],
      "payable": false,
      "stateMutability": "view",
      "type": "function"
    },
    {
      "constant": true,
      "inputs": [],
      "name": "sealed",
      "outputs": [
        {
          "name": "",
          "type": "bool"
        }
      ],
      "payable": false,
      "stateMutability": "view",
      "type": "function"
    },
    {
      "constant": false,
      "inputs": [
        {
          "name": "_newOwner",
          "type": "address"
        }
      ],
      "name": "transferOwnership",
      "outputs": [],
      "payable": false,
      "stateMutability": "nonpayable",
      "type": "function"
    },
    {
      "inputs": [
        {
          "name": "_typeCode",
          "type": "string"
        },
        {
          "name": "_label",
          "type": "string"
        },
        {
          "name": "_description",
          "type": "string"
        },
        {
          "name": "_symbol",
          "type": "string"
        },
        {
          "name": "_initialSupply",
          "type": "uint256"
        },
        {
          "name": "_decimals",
          "type": "uint8"
        },
        {
          "name": "_currencyCode",
          "type": "uint16"
        },
        {
          "name": "_soCurrencyCodes",
          "type": "uint16[]"
        },
        {
          "name": "_toCurrencyCodes",
          "type": "uint16[]"
        },
        {
          "name": "_rates",
          "type": "uint256[]"
        }
      ],
      "payable": false,
      "stateMutability": "nonpayable",
      "type": "constructor"
    },
    {
      "anonymous": false,
      "inputs": [
        {
          "indexed": true,
          "name": "owner",
          "type": "address"
        },
        {
          "indexed": false,
          "name": "value",
          "type": "uint256"
        },
        {
          "indexed": false,
          "name": "remarks",
          "type": "string"
        }
      ],
      "name": "AddedSupply",
      "type": "event"
    },
    {
      "anonymous": false,
      "inputs": [
        {
          "indexed": true,
          "name": "owner",
          "type": "address"
        },
        {
          "indexed": false,
          "name": "value",
          "type": "uint256"
        },
        {
          "indexed": false,
          "name": "remarks",
          "type": "string"
        }
      ],
      "name": "ReducedSupply",
      "type": "event"
    },
    {
      "anonymous": false,
      "inputs": [],
      "name": "Stopped",
      "type": "event"
    },
    {
      "anonymous": false,
      "inputs": [],
      "name": "Resumed",
      "type": "event"
    },
    {
      "anonymous": false,
      "inputs": [],
      "name": "Sealed",
      "type": "event"
    },
    {
      "anonymous": false,
      "inputs": [],
      "name": "Destroyed",
      "type": "event"
    },
    {
      "anonymous": false,
      "inputs": [
        {
          "indexed": true,
          "name": "_from",
          "type": "address"
        },
        {
          "indexed": true,
          "name": "_to",
          "type": "address"
        }
      ],
      "name": "OwnershipTransferred",
      "type": "event"
    },
    {
      "anonymous": false,
      "inputs": [
        {
          "indexed": true,
          "name": "owner",
          "type": "address"
        },
        {
          "indexed": true,
          "name": "spender",
          "type": "address"
        },
        {
          "indexed": false,
          "name": "value",
          "type": "uint256"
        }
      ],
      "name": "Approval",
      "type": "event"
    },
    {
      "anonymous": false,
      "inputs": [
        {
          "indexed": true,
          "name": "from",
          "type": "address"
        },
        {
          "indexed": true,
          "name": "to",
          "type": "address"
        },
        {
          "indexed": false,
          "name": "value",
          "type": "uint256"
        }
      ],
      "name": "Transfer",
      "type": "event"
    },
    {
      "constant": false,
      "inputs": [
        {
          "name": "_soCurrencyCodes",
          "type": "uint16[]"
        },
        {
          "name": "_toCurrencyCodes",
          "type": "uint16[]"
        },
        {
          "name": "_rates",
          "type": "uint256[]"
        }
      ],
      "name": "setExchangeRateBatch",
      "outputs": [
        {
          "name": "",
          "type": "bool"
        }
      ],
      "payable": false,
      "stateMutability": "nonpayable",
      "type": "function"
    },
    {
      "constant": false,
      "inputs": [
        {
          "name": "_soCurrencyCode",
          "type": "uint16"
        },
        {
          "name": "_toCurrencyCode",
          "type": "uint16"
        },
        {
          "name": "_rate",
          "type": "uint256"
        }
      ],
      "name": "setExchangeRate",
      "outputs": [
        {
          "name": "",
          "type": "bool"
        }
      ],
      "payable": false,
      "stateMutability": "nonpayable",
      "type": "function"
    },
    {
      "constant": true,
      "inputs": [
        {
          "name": "_soCurrencyCode",
          "type": "uint16"
        },
        {
          "name": "_toCurrencyCode",
          "type": "uint16"
        }
      ],
      "name": "getExchangeRate",
      "outputs": [
        {
          "name": "rate",
          "type": "uint256"
        }
      ],
      "payable": false,
      "stateMutability": "view",
      "type": "function"
    },
    {
      "constant": true,
      "inputs": [
        {
          "name": "_value",
          "type": "uint256"
        },
        {
          "name": "_soCurrencyCode",
          "type": "uint16"
        },
        {
          "name": "_toCurrencyCode",
          "type": "uint16"
        }
      ],
      "name": "getExchangeValue",
      "outputs": [
        {
          "name": "",
          "type": "uint256"
        }
      ],
      "payable": false,
      "stateMutability": "view",
      "type": "function"
    },
    {
      "constant": true,
      "inputs": [
        {
          "name": "_value",
          "type": "uint256"
        },
        {
          "name": "_rate",
          "type": "uint256"
        }
      ],
      "name": "getExchangeValueByRate",
      "outputs": [
        {
          "name": "",
          "type": "uint256"
        }
      ],
      "payable": false,
      "stateMutability": "pure",
      "type": "function"
    },
    {
      "constant": false,
      "inputs": [
        {
          "name": "_value",
          "type": "uint256"
        },
        {
          "name": "_remarks",
          "type": "string"
        }
      ],
      "name": "addSupply",
      "outputs": [
        {
          "name": "success",
          "type": "bool"
        }
      ],
      "payable": false,
      "stateMutability": "nonpayable",
      "type": "function"
    },
    {
      "constant": false,
      "inputs": [
        {
          "name": "_value",
          "type": "uint256"
        },
        {
          "name": "_remarks",
          "type": "string"
        }
      ],
      "name": "reduceSupply",
      "outputs": [
        {
          "name": "success",
          "type": "bool"
        }
      ],
      "payable": false,
      "stateMutability": "nonpayable",
      "type": "function"
    },
    {
      "constant": false,
      "inputs": [
        {
          "name": "_to",
          "type": "address"
        },
        {
          "name": "_value",
          "type": "uint256"
        },
        {
          "name": "_remarks",
          "type": "string"
        }
      ],
      "name": "faucet",
      "outputs": [
        {
          "name": "success",
          "type": "bool"
        }
      ],
      "payable": false,
      "stateMutability": "nonpayable",
      "type": "function"
    },
    {
      "constant": false,
      "inputs": [
        {
          "name": "_tos",
          "type": "address[]"
        },
        {
          "name": "_value",
          "type": "uint256"
        },
        {
          "name": "_remarks",
          "type": "string"
        }
      ],
      "name": "faucetBatch",
      "outputs": [
        {
          "name": "success",
          "type": "bool"
        }
      ],
      "payable": false,
      "stateMutability": "nonpayable",
      "type": "function"
    }
  ],
  "bytecode": "0x60806040523480156200001157600080fd5b50604051620049d3380380620049d3833981018060405281019080805182019291906020018051820192919060200180518201929190602001805182019291906020018051906020019092919080519060200190929190805190602001909291908051820192919060200180518201929190602001805182019291905050506040805190810160405280600581526020017f58434f494e0000000000000000000000000000000000000000000000000000008152508a8a8a8360009080519060200190620000e1929190620009b8565b508260019080519060200190620000fa929190620009b8565b50816002908051906020019062000113929190620009b8565b5080600390805190602001906200012c929190620009b8565b505050505033600460006101000a81548173ffffffffffffffffffffffffffffffffffffffff021916908373ffffffffffffffffffffffffffffffffffffffff1602179055506001600560156101000a81548160ff0219169083151502179055508361ffff166000141515156200020b576040517f08c379a00000000000000000000000000000000000000000000000000000000081526004018080602001828103825260168152602001807f43757272656e637920636f646520697320656d7074790000000000000000000081525060200191505060405180910390fd5b86600a908051906020019062000223929190620009b8565b5084600b60006101000a81548160ff021916908360ff1602179055506200028f866040805190810160405280600e81526020017f496e697469616c20737570706c79000000000000000000000000000000000000815250620002e6640100000000026401000000009004565b5083600960006101000a81548161ffff021916908361ffff160217905550825160001015620002d657620002d4838383620005ac640100000000026401000000009004565b505b5050505050505050505062000a67565b6000600460009054906101000a900473ffffffffffffffffffffffffffffffffffffffff1673ffffffffffffffffffffffffffffffffffffffff163373ffffffffffffffffffffffffffffffffffffffff16141515620003ae576040517f08c379a00000000000000000000000000000000000000000000000000000000081526004018080602001828103825260158152602001807f4f6e6c79206f776e657220697320616c6c6f776564000000000000000000000081525060200191505060405180910390fd5b620003d383600754620007a96401000000000262003ea6179091906401000000009004565b6007819055506200045d8360066000600460009054906101000a900473ffffffffffffffffffffffffffffffffffffffff1673ffffffffffffffffffffffffffffffffffffffff1673ffffffffffffffffffffffffffffffffffffffff16815260200190815260200160002054620007a96401000000000262003ea6179091906401000000009004565b60066000600460009054906101000a900473ffffffffffffffffffffffffffffffffffffffff1673ffffffffffffffffffffffffffffffffffffffff1673ffffffffffffffffffffffffffffffffffffffff16815260200190815260200160002081905550600460009054906101000a900473ffffffffffffffffffffffffffffffffffffffff1673ffffffffffffffffffffffffffffffffffffffff167fe66ec88cb5b7ccbc4c07963c469c0f33758ee58145b78f682a3c8cc7995880b884846040518083815260200180602001828103825283818151815260200191508051906020019080838360005b838110156200056657808201518184015260208101905062000549565b50505050905090810190601f168015620005945780820380516001836020036101000a031916815260200191505b50935050505060405180910390a26001905092915050565b600080600460009054906101000a900473ffffffffffffffffffffffffffffffffffffffff1673ffffffffffffffffffffffffffffffffffffffff163373ffffffffffffffffffffffffffffffffffffffff1614151562000675576040517f08c379a00000000000000000000000000000000000000000000000000000000081526004018080602001828103825260158152602001807f4f6e6c79206f776e657220697320616c6c6f776564000000000000000000000081525060200191505060405180910390fd5b8351855114801562000688575082518451145b1515620006fd576040517f08c379a00000000000000000000000000000000000000000000000000000000081526004018080602001828103825260118152602001807f4172726179206f7574206f662073796e6300000000000000000000000000000081525060200191505060405180910390fd5b600090505b80835111156200079d576200077085828151811015156200071f57fe5b9060200190602002015185838151811015156200073857fe5b9060200190602002015185848151811015156200075157fe5b9060200190602002015162000832640100000000026401000000009004565b5062000795600182620007a96401000000000262003ea6179091906401000000009004565b905062000702565b60019150509392505050565b6000818301905082811015151562000829576040517f08c379a00000000000000000000000000000000000000000000000000000000081526004018080602001828103825260118152602001807f4164646974696f6e206563657074696f6e00000000000000000000000000000081525060200191505060405180910390fd5b80905092915050565b6000600460009054906101000a900473ffffffffffffffffffffffffffffffffffffffff1673ffffffffffffffffffffffffffffffffffffffff163373ffffffffffffffffffffffffffffffffffffffff16141515620008fa576040517f08c379a00000000000000000000000000000000000000000000000000000000081526004018080602001828103825260158152602001807f4f6e6c79206f776e657220697320616c6c6f776564000000000000000000000081525060200191505060405180910390fd5b8160001415151562000974576040517f08c379a000000000000000000000000000000000000000000000000000000000815260040180806020018281038252601a8152602001807f45786368616e67652072617465206973206e6f742076616c696400000000000081525060200191505060405180910390fd5b81600c60008661ffff1661ffff16815260200190815260200160002060008561ffff1661ffff16815260200190815260200160002081905550600190509392505050565b828054600181600116156101000203166002900490600052602060002090601f016020900481019282601f10620009fb57805160ff191683800117855562000a2c565b8280016001018555821562000a2c579182015b8281111562000a2b57825182559160200191906001019062000a0e565b5b50905062000a3b919062000a3f565b5090565b62000a6491905b8082111562000a6057600081600090555060010162000a46565b5090565b90565b613f5c8062000a776000396000f3006080604052600436106101b7576000357c0100000000000000000000000000000000000000000000000000000000900463ffffffff168063095ea7b3146101bc5780630f81a38f14610221578063121a8d0f146102b157806318160ddd146102fc57806323b872dd1461032757806327918b23146103ac578063313ce5671461045757806335e2e13b146104885780633fb27b851461051357806346e6e2b5146105425780635314e791146106465780635de9ea6914610714578063661884631461077157806370a08231146107d65780637284e4161461082d57806375f12b21146108bd57806379ba5097146108ec578063806e085e1461090357806383197ef01461098b57806384298f1d146109a25780638da5cb5b14610a0357806395d89b4114610a5a5780639886b14414610aea578063a9059cbb14610b19578063bc699e7514610b7e578063c8f38dc014610bad578063cb4774c414610c00578063d4ee1d9014610c90578063d73dd62314610ce7578063dd62ed3e14610d4c578063ded6b20014610dc3578063e102e5e314610e4e578063e24ff74414610e81578063e4b203ef14610f11578063f2fde38b14610f40575b600080fd5b3480156101c857600080fd5b50610207600480360381019080803573ffffffffffffffffffffffffffffffffffffffff16906020019092919080359060200190929190505050610f83565b604051808215151515815260200191505060405180910390f35b34801561022d57600080fd5b50610236611109565b6040518080602001828103825283818151815260200191508051906020019080838360005b8381101561027657808201518184015260208101905061025b565b50505050905090810190601f1680156102a35780820380516001836020036101000a031916815260200191505b509250505060405180910390f35b3480156102bd57600080fd5b506102e660048036038101908080359060200190929190803590602001909291905050506111a7565b6040518082815260200191505060405180910390f35b34801561030857600080fd5b506103116111fe565b6040518082815260200191505060405180910390f35b34801561033357600080fd5b50610392600480360381019080803573ffffffffffffffffffffffffffffffffffffffff169060200190929190803573ffffffffffffffffffffffffffffffffffffffff16906020019092919080359060200190929190505050611223565b604051808215151515815260200191505060405180910390f35b3480156103b857600080fd5b5061043d600480360381019080803573ffffffffffffffffffffffffffffffffffffffff16906020019092919080359060200190929190803590602001908201803590602001908080601f01602080910402602001604051908101604052809392919081815260200183838082843782019150505050505091929192905050506117b2565b604051808215151515815260200191505060405180910390f35b34801561046357600080fd5b5061046c6119be565b604051808260ff1660ff16815260200191505060405180910390f35b34801561049457600080fd5b506104f960048036038101908080359060200190929190803590602001908201803590602001908080601f01602080910402602001604051908101604052809392919081815260200183838082843782019150505050505091929192905050506119d1565b604051808215151515815260200191505060405180910390f35b34801561051f57600080fd5b50610528611d08565b604051808215151515815260200191505060405180910390f35b34801561054e57600080fd5b5061062c600480360381019080803590602001908201803590602001908080602002602001604051908101604052809392919081815260200183836020028082843782019150505050505091929192908035906020019082018035906020019080806020026020016040519081016040528093929190818152602001838360200280828437820191505050505050919291929080359060200190820180359060200190808060200260200160405190810160405280939291908181526020018383602002808284378201915050505050509192919290505050611f07565b604051808215151515815260200191505060405180910390f35b34801561065257600080fd5b506106fa6004803603810190808035906020019082018035906020019080806020026020016040519081016040528093929190818152602001838360200280828437820191505050505050919291929080359060200190929190803590602001908201803590602001908080601f01602080910402602001604051908101604052809392919081815260200183838082843782019150505050505091929192905050506120db565b604051808215151515815260200191505060405180910390f35b34801561072057600080fd5b5061075b60048036038101908080359060200190929190803561ffff169060200190929190803561ffff169060200190929190505050612357565b6040518082815260200191505060405180910390f35b34801561077d57600080fd5b506107bc600480360381019080803573ffffffffffffffffffffffffffffffffffffffff169060200190929190803590602001909291905050506123bd565b604051808215151515815260200191505060405180910390f35b3480156107e257600080fd5b50610817600480360381019080803573ffffffffffffffffffffffffffffffffffffffff1690602001909291905050506126e2565b6040518082815260200191505060405180910390f35b34801561083957600080fd5b50610842612746565b6040518080602001828103825283818151815260200191508051906020019080838360005b83811015610882578082015181840152602081019050610867565b50505050905090810190601f1680156108af5780820380516001836020036101000a031916815260200191505b509250505060405180910390f35b3480156108c957600080fd5b506108d26127e4565b604051808215151515815260200191505060405180910390f35b3480156108f857600080fd5b506109016127f7565b005b34801561090f57600080fd5b506109716004803603810190808035906020019082018035906020019080806020026020016040519081016040528093929190818152602001838360200280828437820191505050505050919291929080359060200190929190505050612a01565b604051808215151515815260200191505060405180910390f35b34801561099757600080fd5b506109a0612aee565b005b3480156109ae57600080fd5b506109e9600480360381019080803561ffff169060200190929190803561ffff16906020019092919080359060200190929190505050612c23565b604051808215151515815260200191505060405180910390f35b348015610a0f57600080fd5b50610a18612da7565b604051808273ffffffffffffffffffffffffffffffffffffffff1673ffffffffffffffffffffffffffffffffffffffff16815260200191505060405180910390f35b348015610a6657600080fd5b50610a6f612dcd565b6040518080602001828103825283818151815260200191508051906020019080838360005b83811015610aaf578082015181840152602081019050610a94565b50505050905090810190601f168015610adc5780820380516001836020036101000a031916815260200191505b509250505060405180910390f35b348015610af657600080fd5b50610aff612e6b565b604051808215151515815260200191505060405180910390f35b348015610b2557600080fd5b50610b64600480360381019080803573ffffffffffffffffffffffffffffffffffffffff16906020019092919080359060200190929190505050612f80565b604051808215151515815260200191505060405180910390f35b348015610b8a57600080fd5b50610b9361330b565b604051808215151515815260200191505060405180910390f35b348015610bb957600080fd5b50610bea600480360381019080803561ffff169060200190929190803561ffff169060200190929190505050613420565b6040518082815260200191505060405180910390f35b348015610c0c57600080fd5b50610c15613501565b6040518080602001828103825283818151815260200191508051906020019080838360005b83811015610c55578082015181840152602081019050610c3a565b50505050905090810190601f168015610c825780820380516001836020036101000a031916815260200191505b509250505060405180910390f35b348015610c9c57600080fd5b50610ca561359f565b604051808273ffffffffffffffffffffffffffffffffffffffff1673ffffffffffffffffffffffffffffffffffffffff16815260200191505060405180910390f35b348015610cf357600080fd5b50610d32600480360381019080803573ffffffffffffffffffffffffffffffffffffffff169060200190929190803590602001909291905050506135c5565b604051808215151515815260200191505060405180910390f35b348015610d5857600080fd5b50610dad600480360381019080803573ffffffffffffffffffffffffffffffffffffffff169060200190929190803573ffffffffffffffffffffffffffffffffffffffff169060200190929190505050613855565b6040518082815260200191505060405180910390f35b348015610dcf57600080fd5b50610e3460048036038101908080359060200190929190803590602001908201803590602001908080601f01602080910402602001604051908101604052809392919081815260200183838082843782019150505050505091929192905050506138f7565b604051808215151515815260200191505060405180910390f35b348015610e5a57600080fd5b50610e63613b99565b604051808261ffff1661ffff16815260200191505060405180910390f35b348015610e8d57600080fd5b50610e96613bad565b6040518080602001828103825283818151815260200191508051906020019080838360005b83811015610ed6578082015181840152602081019050610ebb565b50505050905090810190601f168015610f035780820380516001836020036101000a031916815260200191505b509250505060405180910390f35b348015610f1d57600080fd5b50610f26613c4b565b604051808215151515815260200191505060405180910390f35b348015610f4c57600080fd5b50610f81600480360381019080803573ffffffffffffffffffffffffffffffffffffffff169060200190929190505050613c5e565b005b6000600560159054906101000a900460ff161515610ffc573373ffffffffffffffffffffffffffffffffffffffff16600460009054906101000a900473ffffffffffffffffffffffffffffffffffffffff1673ffffffffffffffffffffffffffffffffffffffff16141515610ff757600080fd5b611019565b600560149054906101000a900460ff1615151561101857600080fd5b5b81600860003373ffffffffffffffffffffffffffffffffffffffff1673ffffffffffffffffffffffffffffffffffffffff16815260200190815260200160002060008573ffffffffffffffffffffffffffffffffffffffff1673ffffffffffffffffffffffffffffffffffffffff168152602001908152602001600020819055508273ffffffffffffffffffffffffffffffffffffffff163373ffffffffffffffffffffffffffffffffffffffff167f8c5be1e5ebec7d5bd14f71427d1e84f3dd0314c0f7b2291e5b200ac8c7c3b925846040518082815260200191505060405180910390a36001905092915050565b60018054600181600116156101000203166002900480601f01602080910402602001604051908101604052809291908181526020018280546001816001161561010002031660029004801561119f5780601f106111745761010080835404028352916020019161119f565b820191906000526020600020905b81548152906001019060200180831161118257829003601f168201915b505050505081565b600082600014156111bb57600090506111f8565b6111e26103e86111d48486613d6790919063ffffffff16565b613e0b90919063ffffffff16565b9250826000106111f35760016111f5565b825b90505b92915050565b6000600560159054906101000a900460ff16151561121b57600080fd5b600754905090565b6000600560159054906101000a900460ff16151561129c573373ffffffffffffffffffffffffffffffffffffffff16600460009054906101000a900473ffffffffffffffffffffffffffffffffffffffff1673ffffffffffffffffffffffffffffffffffffffff1614151561129757600080fd5b6112b9565b600560149054906101000a900460ff161515156112b857600080fd5b5b600073ffffffffffffffffffffffffffffffffffffffff168373ffffffffffffffffffffffffffffffffffffffff161415151561135e576040517f08c379a00000000000000000000000000000000000000000000000000000000081526004018080602001828103825260178152602001807f546172676574206164647265737320697320656d70747900000000000000000081525060200191505060405180910390fd5b600660008573ffffffffffffffffffffffffffffffffffffffff1673ffffffffffffffffffffffffffffffffffffffff168152602001908152602001600020548211151515611415576040517f08c379a00000000000000000000000000000000000000000000000000000000081526004018080602001828103825260118152602001807f496e73756666696369656e742066756e6400000000000000000000000000000081525060200191505060405180910390fd5b600860008573ffffffffffffffffffffffffffffffffffffffff1673ffffffffffffffffffffffffffffffffffffffff16815260200190815260200160002060003373ffffffffffffffffffffffffffffffffffffffff1673ffffffffffffffffffffffffffffffffffffffff168152602001908152602001600020548211151515611509576040517f08c379a00000000000000000000000000000000000000000000000000000000081526004018080602001828103825260168152602001807f496e73756666696369656e7420616c6c6f77616e63650000000000000000000081525060200191505060405180910390fd5b61155b82600660008773ffffffffffffffffffffffffffffffffffffffff1673ffffffffffffffffffffffffffffffffffffffff16815260200190815260200160002054613e2190919063ffffffff16565b600660008673ffffffffffffffffffffffffffffffffffffffff1673ffffffffffffffffffffffffffffffffffffffff168152602001908152602001600020819055506115f082600660008673ffffffffffffffffffffffffffffffffffffffff1673ffffffffffffffffffffffffffffffffffffffff16815260200190815260200160002054613ea690919063ffffffff16565b600660008573ffffffffffffffffffffffffffffffffffffffff1673ffffffffffffffffffffffffffffffffffffffff168152602001908152602001600020819055506116c282600860008773ffffffffffffffffffffffffffffffffffffffff1673ffffffffffffffffffffffffffffffffffffffff16815260200190815260200160002060003373ffffffffffffffffffffffffffffffffffffffff1673ffffffffffffffffffffffffffffffffffffffff16815260200190815260200160002054613e2190919063ffffffff16565b600860008673ffffffffffffffffffffffffffffffffffffffff1673ffffffffffffffffffffffffffffffffffffffff16815260200190815260200160002060003373ffffffffffffffffffffffffffffffffffffffff1673ffffffffffffffffffffffffffffffffffffffff168152602001908152602001600020819055508273ffffffffffffffffffffffffffffffffffffffff168473ffffffffffffffffffffffffffffffffffffffff167fddf252ad1be2c89b69c2b068fc378daa952ba7f163c4a11628f55a4df523b3ef846040518082815260200191505060405180910390a3600190509392505050565b6000600560159054906101000a900460ff16151561182b573373ffffffffffffffffffffffffffffffffffffffff16600460009054906101000a900473ffffffffffffffffffffffffffffffffffffffff1673ffffffffffffffffffffffffffffffffffffffff1614151561182657600080fd5b611848565b600560149054906101000a900460ff1615151561184757600080fd5b5b61185d83600754613ea690919063ffffffff16565b6007819055506118b583600660008773ffffffffffffffffffffffffffffffffffffffff1673ffffffffffffffffffffffffffffffffffffffff16815260200190815260200160002054613ea690919063ffffffff16565b600660008673ffffffffffffffffffffffffffffffffffffffff1673ffffffffffffffffffffffffffffffffffffffff168152602001908152602001600020819055508373ffffffffffffffffffffffffffffffffffffffff167fe66ec88cb5b7ccbc4c07963c469c0f33758ee58145b78f682a3c8cc7995880b884846040518083815260200180602001828103825283818151815260200191508051906020019080838360005b8381101561197857808201518184015260208101905061195d565b50505050905090810190601f1680156119a55780820380516001836020036101000a031916815260200191505b50935050505060405180910390a2600190509392505050565b600b60009054906101000a900460ff1681565b6000600460009054906101000a900473ffffffffffffffffffffffffffffffffffffffff1673ffffffffffffffffffffffffffffffffffffffff163373ffffffffffffffffffffffffffffffffffffffff16141515611a98576040517f08c379a00000000000000000000000000000000000000000000000000000000081526004018080602001828103825260158152602001807f4f6e6c79206f776e657220697320616c6c6f776564000000000000000000000081525060200191505060405180910390fd5b611aad83600754613e2190919063ffffffff16565b600781905550611b278360066000600460009054906101000a900473ffffffffffffffffffffffffffffffffffffffff1673ffffffffffffffffffffffffffffffffffffffff1673ffffffffffffffffffffffffffffffffffffffff16815260200190815260200160002054613e2190919063ffffffff16565b60066000600460009054906101000a900473ffffffffffffffffffffffffffffffffffffffff1673ffffffffffffffffffffffffffffffffffffffff1673ffffffffffffffffffffffffffffffffffffffff16815260200190815260200160002081905550611bde83600660008073ffffffffffffffffffffffffffffffffffffffff1673ffffffffffffffffffffffffffffffffffffffff16815260200190815260200160002054613ea690919063ffffffff16565b600660008073ffffffffffffffffffffffffffffffffffffffff1673ffffffffffffffffffffffffffffffffffffffff16815260200190815260200160002081905550600460009054906101000a900473ffffffffffffffffffffffffffffffffffffffff1673ffffffffffffffffffffffffffffffffffffffff167fa049749a6e57e76ef2c4f10fc38de8bf877b4ec6a8fd67bcf01982c83a6b6f7484846040518083815260200180602001828103825283818151815260200191508051906020019080838360005b83811015611cc3578082015181840152602081019050611ca8565b50505050905090810190601f168015611cf05780820380516001836020036101000a031916815260200191505b50935050505060405180910390a26001905092915050565b6000600460009054906101000a900473ffffffffffffffffffffffffffffffffffffffff1673ffffffffffffffffffffffffffffffffffffffff163373ffffffffffffffffffffffffffffffffffffffff16141515611dcf576040517f08c379a00000000000000000000000000000000000000000000000000000000081526004018080602001828103825260158152602001807f4f6e6c79206f776e657220697320616c6c6f776564000000000000000000000081525060200191505060405180910390fd5b600560159054906101000a900460ff16151515611deb57600080fd5b600560009054906101000a900473ffffffffffffffffffffffffffffffffffffffff1673ffffffffffffffffffffffffffffffffffffffff16600073ffffffffffffffffffffffffffffffffffffffff16141515611eb1576040517f08c379a00000000000000000000000000000000000000000000000000000000081526004018080602001828103825260208152602001807f5472616e73666572206f776e65727368697020697320696e636f6d706c65746581525060200191505060405180910390fd5b611eb9613f2e565b6001600560156101000a81548160ff0219169083151502179055507f1b2d71eb44f882534bf4e86f940c56ccc869ffb927e2bab86561de93950c221660405160405180910390a16001905090565b600080600460009054906101000a900473ffffffffffffffffffffffffffffffffffffffff1673ffffffffffffffffffffffffffffffffffffffff163373ffffffffffffffffffffffffffffffffffffffff16141515611fcf576040517f08c379a00000000000000000000000000000000000000000000000000000000081526004018080602001828103825260158152602001807f4f6e6c79206f776e657220697320616c6c6f776564000000000000000000000081525060200191505060405180910390fd5b83518551148015611fe1575082518451145b1515612055576040517f08c379a00000000000000000000000000000000000000000000000000000000081526004018080602001828103825260118152602001807f4172726179206f7574206f662073796e6300000000000000000000000000000081525060200191505060405180910390fd5b600090505b80835111156120cf576120b3858281518110151561207457fe5b90602001906020020151858381518110151561208c57fe5b9060200190602002015185848151811015156120a457fe5b90602001906020020151612c23565b506120c8600182613ea690919063ffffffff16565b905061205a565b60019150509392505050565b600080600560159054906101000a900460ff161515612155573373ffffffffffffffffffffffffffffffffffffffff16600460009054906101000a900473ffffffffffffffffffffffffffffffffffffffff1673ffffffffffffffffffffffffffffffffffffffff1614151561215057600080fd5b612172565b600560149054906101000a900460ff1615151561217157600080fd5b5b600090505b808551111561234b5761219584600754613ea690919063ffffffff16565b600781905550612204846006600088858151811015156121b157fe5b9060200190602002015173ffffffffffffffffffffffffffffffffffffffff1673ffffffffffffffffffffffffffffffffffffffff16815260200190815260200160002054613ea690919063ffffffff16565b60066000878481518110151561221657fe5b9060200190602002015173ffffffffffffffffffffffffffffffffffffffff1673ffffffffffffffffffffffffffffffffffffffff16815260200190815260200160002081905550848181518110151561226c57fe5b9060200190602002015173ffffffffffffffffffffffffffffffffffffffff167fe66ec88cb5b7ccbc4c07963c469c0f33758ee58145b78f682a3c8cc7995880b885856040518083815260200180602001828103825283818151815260200191508051906020019080838360005b838110156122f55780820151818401526020810190506122da565b50505050905090810190601f1680156123225780820380516001836020036101000a031916815260200191505b50935050505060405180910390a2612344600182613ea690919063ffffffff16565b9050612177565b60019150509392505050565b600080846000141561236c57600091506123b5565b6123768484613420565b905061239f6103e86123918388613d6790919063ffffffff16565b613e0b90919063ffffffff16565b9450846000106123b05760016123b2565b845b91505b509392505050565b600080600560159054906101000a900460ff161515612437573373ffffffffffffffffffffffffffffffffffffffff16600460009054906101000a900473ffffffffffffffffffffffffffffffffffffffff1673ffffffffffffffffffffffffffffffffffffffff1614151561243257600080fd5b612454565b600560149054906101000a900460ff1615151561245357600080fd5b5b600860003373ffffffffffffffffffffffffffffffffffffffff1673ffffffffffffffffffffffffffffffffffffffff16815260200190815260200160002060008573ffffffffffffffffffffffffffffffffffffffff1673ffffffffffffffffffffffffffffffffffffffff16815260200190815260200160002054905080831115612562576000600860003373ffffffffffffffffffffffffffffffffffffffff1673ffffffffffffffffffffffffffffffffffffffff16815260200190815260200160002060008673ffffffffffffffffffffffffffffffffffffffff1673ffffffffffffffffffffffffffffffffffffffff168152602001908152602001600020819055506125f6565b6125758382613e2190919063ffffffff16565b600860003373ffffffffffffffffffffffffffffffffffffffff1673ffffffffffffffffffffffffffffffffffffffff16815260200190815260200160002060008673ffffffffffffffffffffffffffffffffffffffff1673ffffffffffffffffffffffffffffffffffffffff168152602001908152602001600020819055505b8373ffffffffffffffffffffffffffffffffffffffff163373ffffffffffffffffffffffffffffffffffffffff167f8c5be1e5ebec7d5bd14f71427d1e84f3dd0314c0f7b2291e5b200ac8c7c3b925600860003373ffffffffffffffffffffffffffffffffffffffff1673ffffffffffffffffffffffffffffffffffffffff16815260200190815260200160002060008873ffffffffffffffffffffffffffffffffffffffff1673ffffffffffffffffffffffffffffffffffffffff168152602001908152602001600020546040518082815260200191505060405180910390a3600191505092915050565b6000600560159054906101000a900460ff1615156126ff57600080fd5b600660008373ffffffffffffffffffffffffffffffffffffffff1673ffffffffffffffffffffffffffffffffffffffff168152602001908152602001600020549050919050565b60038054600181600116156101000203166002900480601f0160208091040260200160405190810160405280929190818152602001828054600181600116156101000203166002900480156127dc5780601f106127b1576101008083540402835291602001916127dc565b820191906000526020600020905b8154815290600101906020018083116127bf57829003601f168201915b505050505081565b600560149054906101000a900460ff1681565b600560009054906101000a900473ffffffffffffffffffffffffffffffffffffffff1673ffffffffffffffffffffffffffffffffffffffff163373ffffffffffffffffffffffffffffffffffffffff161415156128bc576040517f08c379a00000000000000000000000000000000000000000000000000000000081526004018080602001828103825260198152602001807f4f6e6c79206e6577206f776e657220697320616c6c6f7765640000000000000081525060200191505060405180910390fd5b600560009054906101000a900473ffffffffffffffffffffffffffffffffffffffff1673ffffffffffffffffffffffffffffffffffffffff16600460009054906101000a900473ffffffffffffffffffffffffffffffffffffffff1673ffffffffffffffffffffffffffffffffffffffff167f8be0079c531659141344cd1fd0a4f28419497f9722a3daafe3b4186f6b6457e060405160405180910390a3600560009054906101000a900473ffffffffffffffffffffffffffffffffffffffff16600460006101000a81548173ffffffffffffffffffffffffffffffffffffffff021916908373ffffffffffffffffffffffffffffffffffffffff1602179055506000600560006101000a81548173ffffffffffffffffffffffffffffffffffffffff021916908373ffffffffffffffffffffffffffffffffffffffff160217905550565b600080600560159054906101000a900460ff161515612a7b573373ffffffffffffffffffffffffffffffffffffffff16600460009054906101000a900473ffffffffffffffffffffffffffffffffffffffff1673ffffffffffffffffffffffffffffffffffffffff16141515612a7657600080fd5b612a98565b600560149054906101000a900460ff16151515612a9757600080fd5b5b600090505b8084511115612ae357612ac78482815181101515612ab757fe5b9060200190602002015184612f80565b50612adc600182613ea690919063ffffffff16565b9050612a9d565b600191505092915050565b600460009054906101000a900473ffffffffffffffffffffffffffffffffffffffff1673ffffffffffffffffffffffffffffffffffffffff163373ffffffffffffffffffffffffffffffffffffffff16141515612bb3576040517f08c379a00000000000000000000000000000000000000000000000000000000081526004018080602001828103825260158152602001807f4f6e6c79206f776e657220697320616c6c6f776564000000000000000000000081525060200191505060405180910390fd5b612bbb61330b565b507fcc0e82c1b8fa4695d6ae60217024b293814bde0f381a23cafaa0a1e25973c14b60405160405180910390a1600460009054906101000a900473ffffffffffffffffffffffffffffffffffffffff1673ffffffffffffffffffffffffffffffffffffffff16ff5b6000600460009054906101000a900473ffffffffffffffffffffffffffffffffffffffff1673ffffffffffffffffffffffffffffffffffffffff163373ffffffffffffffffffffffffffffffffffffffff16141515612cea576040517f08c379a00000000000000000000000000000000000000000000000000000000081526004018080602001828103825260158152602001807f4f6e6c79206f776e657220697320616c6c6f776564000000000000000000000081525060200191505060405180910390fd5b81600014151515612d63576040517f08c379a000000000000000000000000000000000000000000000000000000000815260040180806020018281038252601a8152602001807f45786368616e67652072617465206973206e6f742076616c696400000000000081525060200191505060405180910390fd5b81600c60008661ffff1661ffff16815260200190815260200160002060008561ffff1661ffff16815260200190815260200160002081905550600190509392505050565b600460009054906101000a900473ffffffffffffffffffffffffffffffffffffffff1681565b600a8054600181600116156101000203166002900480601f016020809104026020016040519081016040528092919081815260200182805460018160011615610100020316600290048015612e635780601f10612e3857610100808354040283529160200191612e63565b820191906000526020600020905b815481529060010190602001808311612e4657829003601f168201915b505050505081565b6000600460009054906101000a900473ffffffffffffffffffffffffffffffffffffffff1673ffffffffffffffffffffffffffffffffffffffff163373ffffffffffffffffffffffffffffffffffffffff16141515612f32576040517f08c379a00000000000000000000000000000000000000000000000000000000081526004018080602001828103825260158152602001807f4f6e6c79206f776e657220697320616c6c6f776564000000000000000000000081525060200191505060405180910390fd5b6000600560146101000a81548160ff0219169083151502179055507f62451d457bc659158be6e6247f56ec1df424a5c7597f71c20c2bc44e0965c8f960405160405180910390a16001905090565b6000600560159054906101000a900460ff161515612ff9573373ffffffffffffffffffffffffffffffffffffffff16600460009054906101000a900473ffffffffffffffffffffffffffffffffffffffff1673ffffffffffffffffffffffffffffffffffffffff16141515612ff457600080fd5b613016565b600560149054906101000a900460ff1615151561301557600080fd5b5b600073ffffffffffffffffffffffffffffffffffffffff168373ffffffffffffffffffffffffffffffffffffffff16141515156130bb576040517f08c379a00000000000000000000000000000000000000000000000000000000081526004018080602001828103825260178152602001807f546172676574206164647265737320697320656d70747900000000000000000081525060200191505060405180910390fd5b600660003373ffffffffffffffffffffffffffffffffffffffff1673ffffffffffffffffffffffffffffffffffffffff168152602001908152602001600020548211151515613172576040517f08c379a00000000000000000000000000000000000000000000000000000000081526004018080602001828103825260118152602001807f496e73756666696369656e742066756e6400000000000000000000000000000081525060200191505060405180910390fd5b6131c482600660003373ffffffffffffffffffffffffffffffffffffffff1673ffffffffffffffffffffffffffffffffffffffff16815260200190815260200160002054613e2190919063ffffffff16565b600660003373ffffffffffffffffffffffffffffffffffffffff1673ffffffffffffffffffffffffffffffffffffffff1681526020019081526020016000208190555061325982600660008673ffffffffffffffffffffffffffffffffffffffff1673ffffffffffffffffffffffffffffffffffffffff16815260200190815260200160002054613ea690919063ffffffff16565b600660008573ffffffffffffffffffffffffffffffffffffffff1673ffffffffffffffffffffffffffffffffffffffff168152602001908152602001600020819055508273ffffffffffffffffffffffffffffffffffffffff163373ffffffffffffffffffffffffffffffffffffffff167fddf252ad1be2c89b69c2b068fc378daa952ba7f163c4a11628f55a4df523b3ef846040518082815260200191505060405180910390a36001905092915050565b6000600460009054906101000a900473ffffffffffffffffffffffffffffffffffffffff1673ffffffffffffffffffffffffffffffffffffffff163373ffffffffffffffffffffffffffffffffffffffff161415156133d2576040517f08c379a00000000000000000000000000000000000000000000000000000000081526004018080602001828103825260158152602001807f4f6e6c79206f776e657220697320616c6c6f776564000000000000000000000081525060200191505060405180910390fd5b6001600560146101000a81548160ff0219169083151502179055507f7acc84e34091ae817647a4c49116f5cc07f319078ba80f8f5fde37ea7e25cbd660405160405180910390a16001905090565b60008161ffff168361ffff161461346b57600c60008461ffff1661ffff16815260200190815260200160002060008361ffff1661ffff1681526020019081526020016000205461346f565b6103e85b90508060001415801561348757508261ffff16600014155b15156134fb576040517f08c379a00000000000000000000000000000000000000000000000000000000081526004018080602001828103825260198152602001807f45786368616e652072617465206973206e6f7420666f756e640000000000000081525060200191505060405180910390fd5b92915050565b60028054600181600116156101000203166002900480601f0160208091040260200160405190810160405280929190818152602001828054600181600116156101000203166002900480156135975780601f1061356c57610100808354040283529160200191613597565b820191906000526020600020905b81548152906001019060200180831161357a57829003601f168201915b505050505081565b600560009054906101000a900473ffffffffffffffffffffffffffffffffffffffff1681565b6000600560159054906101000a900460ff16151561363e573373ffffffffffffffffffffffffffffffffffffffff16600460009054906101000a900473ffffffffffffffffffffffffffffffffffffffff1673ffffffffffffffffffffffffffffffffffffffff1614151561363957600080fd5b61365b565b600560149054906101000a900460ff1615151561365a57600080fd5b5b6136ea82600860003373ffffffffffffffffffffffffffffffffffffffff1673ffffffffffffffffffffffffffffffffffffffff16815260200190815260200160002060008673ffffffffffffffffffffffffffffffffffffffff1673ffffffffffffffffffffffffffffffffffffffff16815260200190815260200160002054613ea690919063ffffffff16565b600860003373ffffffffffffffffffffffffffffffffffffffff1673ffffffffffffffffffffffffffffffffffffffff16815260200190815260200160002060008573ffffffffffffffffffffffffffffffffffffffff1673ffffffffffffffffffffffffffffffffffffffff168152602001908152602001600020819055508273ffffffffffffffffffffffffffffffffffffffff163373ffffffffffffffffffffffffffffffffffffffff167f8c5be1e5ebec7d5bd14f71427d1e84f3dd0314c0f7b2291e5b200ac8c7c3b925600860003373ffffffffffffffffffffffffffffffffffffffff1673ffffffffffffffffffffffffffffffffffffffff16815260200190815260200160002060008773ffffffffffffffffffffffffffffffffffffffff1673ffffffffffffffffffffffffffffffffffffffff168152602001908152602001600020546040518082815260200191505060405180910390a36001905092915050565b6000600560159054906101000a900460ff16151561387257600080fd5b600860008473ffffffffffffffffffffffffffffffffffffffff1673ffffffffffffffffffffffffffffffffffffffff16815260200190815260200160002060008373ffffffffffffffffffffffffffffffffffffffff1673ffffffffffffffffffffffffffffffffffffffff16815260200190815260200160002054905092915050565b6000600460009054906101000a900473ffffffffffffffffffffffffffffffffffffffff1673ffffffffffffffffffffffffffffffffffffffff163373ffffffffffffffffffffffffffffffffffffffff161415156139be576040517f08c379a00000000000000000000000000000000000000000000000000000000081526004018080602001828103825260158152602001807f4f6e6c79206f776e657220697320616c6c6f776564000000000000000000000081525060200191505060405180910390fd5b6139d383600754613ea690919063ffffffff16565b600781905550613a4d8360066000600460009054906101000a900473ffffffffffffffffffffffffffffffffffffffff1673ffffffffffffffffffffffffffffffffffffffff1673ffffffffffffffffffffffffffffffffffffffff16815260200190815260200160002054613ea690919063ffffffff16565b60066000600460009054906101000a900473ffffffffffffffffffffffffffffffffffffffff1673ffffffffffffffffffffffffffffffffffffffff1673ffffffffffffffffffffffffffffffffffffffff16815260200190815260200160002081905550600460009054906101000a900473ffffffffffffffffffffffffffffffffffffffff1673ffffffffffffffffffffffffffffffffffffffff167fe66ec88cb5b7ccbc4c07963c469c0f33758ee58145b78f682a3c8cc7995880b884846040518083815260200180602001828103825283818151815260200191508051906020019080838360005b83811015613b54578082015181840152602081019050613b39565b50505050905090810190601f168015613b815780820380516001836020036101000a031916815260200191505b50935050505060405180910390a26001905092915050565b600960009054906101000a900461ffff1681565b60008054600181600116156101000203166002900480601f016020809104026020016040519081016040528092919081815260200182805460018160011615610100020316600290048015613c435780601f10613c1857610100808354040283529160200191613c43565b820191906000526020600020905b815481529060010190602001808311613c2657829003601f168201915b505050505081565b600560159054906101000a900460ff1681565b600460009054906101000a900473ffffffffffffffffffffffffffffffffffffffff1673ffffffffffffffffffffffffffffffffffffffff163373ffffffffffffffffffffffffffffffffffffffff16141515613d23576040517f08c379a00000000000000000000000000000000000000000000000000000000081526004018080602001828103825260158152602001807f4f6e6c79206f776e657220697320616c6c6f776564000000000000000000000081525060200191505060405180910390fd5b80600560006101000a81548173ffffffffffffffffffffffffffffffffffffffff021916908373ffffffffffffffffffffffffffffffffffffffff16021790555050565b600080831415613d7a5760009050613e05565b8183029050818382811515613d8b57fe5b04141515613e01576040517f08c379a00000000000000000000000000000000000000000000000000000000081526004018080602001828103825260148152602001807f4d756c7469706c69657220657863657074696f6e00000000000000000000000081525060200191505060405180910390fd5b8090505b92915050565b60008183811515613e1857fe5b04905092915050565b6000828211151515613e9b576040517f08c379a00000000000000000000000000000000000000000000000000000000081526004018080602001828103825260158152602001807f5375627472616374696f6e20657863657074696f6e000000000000000000000081525060200191505060405180910390fd5b818303905092915050565b60008183019050828110151515613f25576040517f08c379a00000000000000000000000000000000000000000000000000000000081526004018080602001828103825260118152602001807f4164646974696f6e206563657074696f6e00000000000000000000000000000081525060200191505060405180910390fd5b80905092915050565b5600a165627a7a72305820175522da9aa631a08093baf930e23403c8c6ea3a3bd98470c52b3abd25666d8d0029",
  "source": "pragma solidity ^0.4.24;\n\nimport \"./Label.sol\";\nimport \"./StandardToken.sol\";\n\ncontract XCoin is Label, StandardToken {\n    using SafeMath for uint256;\n\n    string constant CLASS_CODE = \"XCOIN\";\n\n    event AddedSupply(address indexed owner, uint256 value, string remarks);\n    event ReducedSupply(address indexed owner, uint256 value, string remarks);\n\n    uint16 public currencyCode;\n    string public symbol;\n    uint8 public decimals;\n\n    // Exchange rate (mapped: source currency code + target currency code => rate)\n    mapping(uint16 => mapping(uint16 => uint256)) exchangeRates;\n\n    constructor(string _typeCode, string _label, string _description, string _symbol, uint256 _initialSupply, uint8 _decimals, uint16 _currencyCode,\n        uint16[] _soCurrencyCodes, uint16[] _toCurrencyCodes, uint256[] _rates) public\n        Label(CLASS_CODE, _typeCode, _label, _description)\n    {\n        require(0 != _currencyCode, \"Currency code is empty\");\n\n        symbol = _symbol; // Currency code\n        decimals = _decimals;\n\n        addSupply(_initialSupply, \"Initial supply\");\n\n        currencyCode = _currencyCode;\n\n        if (0 < _soCurrencyCodes.length)\n            setExchangeRateBatch(_soCurrencyCodes, _toCurrencyCodes, _rates);\n    }\n\n    function setExchangeRateBatch(uint16[] _soCurrencyCodes, uint16[] _toCurrencyCodes, uint256[] _rates) public\n        onlyOwner\n        returns (bool)\n    {\n        require(_soCurrencyCodes.length == _toCurrencyCodes.length && _toCurrencyCodes.length == _rates.length, \"Array out of sync\");\n\n        for (uint256 i = 0; _rates.length > i; i = i.add(1))\n            setExchangeRate(_soCurrencyCodes[i], _toCurrencyCodes[i], _rates[i]);\n\n        return true;\n    }\n\n    function setExchangeRate(uint16 _soCurrencyCode, uint16 _toCurrencyCode, uint256 _rate) public\n        onlyOwner\n        returns (bool)\n    {\n        require(0 != _rate, \"Exchange rate is not valid\");\n        exchangeRates[_soCurrencyCode][_toCurrencyCode] = _rate;\n        return true;\n    }\n\n    function getExchangeRate(uint16 _soCurrencyCode, uint16 _toCurrencyCode) public view\n        returns (uint256 rate)\n    {\n        rate = (_soCurrencyCode == _toCurrencyCode) ? 1000 : exchangeRates[_soCurrencyCode][_toCurrencyCode];\n        require(0 != rate && 0 != _soCurrencyCode, \"Exchane rate is not found\");\n    }\n\n    function getExchangeValue(uint256 _value, uint16 _soCurrencyCode, uint16 _toCurrencyCode) public view\n        returns (uint256)\n    {\n        if (0 == _value)\n            return 0;\n\n        uint256 rate = getExchangeRate(_soCurrencyCode, _toCurrencyCode);\n        _value = _value.mul(rate).div(1000);\n\n        return 0 < _value ? _value : 1;\n    }\n\n    function getExchangeValueByRate(uint256 _value, uint256 _rate) public pure\n        returns (uint256)\n    {\n        if (0 == _value)\n            return 0;\n\n        _value = _value.mul(_rate).div(1000);\n\n        return 0 < _value ? _value : 1;\n    }\n\n    function addSupply(uint256 _value, string _remarks) public\n        onlyOwner\n        returns(bool success)\n    {\n        totalSupply_ = totalSupply_.add(_value);\n        balances[owner] = balances[owner].add(_value);\n\n        emit AddedSupply(owner, _value, _remarks);\n        return true;\n    }\n\n    function reduceSupply(uint256 _value, string _remarks) public\n        onlyOwner\n        returns(bool success)\n    {\n        totalSupply_ = totalSupply_.sub(_value);\n        balances[owner] = balances[owner].sub(_value);\n        balances[address(0)] = balances[address(0)].add(_value);\n\n        emit ReducedSupply(owner, _value, _remarks);\n        return true;\n    }\n\n    /**\n     * CAUTION: SHOULD BE REMOVE FROM PRODUCTION\n     */\n    function faucet(address _to, uint256 _value, string _remarks) public\n        isUsable\n        returns(bool success)\n    {\n        // Faucet some balance\n        totalSupply_ = totalSupply_.add(_value);\n        balances[_to] = balances[_to].add(_value);\n\n        emit AddedSupply(_to, _value, _remarks);\n\n        return true;\n    }\n\n    /**\n     * CAUTION: SHOULD BE REMOVE FROM PRODUCTION\n     */\n    function faucetBatch(address[] _tos, uint256 _value, string _remarks) public\n        isUsable\n        returns(bool success)\n    {\n        // Faucet some balance\n        for (uint256 i = 0; _tos.length > i; i = i.add(1)) {\n            totalSupply_ = totalSupply_.add(_value);\n            balances[_tos[i]] = balances[_tos[i]].add(_value);\n\n            emit AddedSupply(_tos[i], _value, _remarks);\n        }\n\n        return true;\n    }\n\n    function sealRequirement() private view\n    {\n    }\n\n}\n",
  "sourcePath": "/Users/jeansoonsik/Documents/work/oojibo/demos/proto/backend/contracts/XCoin.sol",
  "compiler": {
    "name": "solc",
    "version": "0.4.24+commit.e67f0147.Emscripten.clang"
  },
  "schemaVersion": "2.0.1",
  "updatedAt": "2018-09-17T15:47:23.234Z"
}